{
  "_format": "hh-sol-artifact-1",
  "contractName": "Appreciative",
  "sourceName": "contracts/Appreciative.sol",
  "abi": [
    {
      "inputs": [
        {
          "internalType": "address",
          "name": "_creator",
          "type": "address"
        },
        {
          "internalType": "string",
          "name": "_name",
          "type": "string"
        }
      ],
      "stateMutability": "nonpayable",
      "type": "constructor"
    },
    {
      "anonymous": false,
      "inputs": [
        {
          "indexed": false,
          "internalType": "address",
          "name": "member",
          "type": "address"
        },
        {
          "indexed": false,
          "internalType": "string",
          "name": "name",
          "type": "string"
        }
      ],
      "name": "AddedMember",
      "type": "event"
    },
    {
      "anonymous": false,
      "inputs": [
        {
          "indexed": false,
          "internalType": "string",
          "name": "namefrom",
          "type": "string"
        },
        {
          "indexed": false,
          "internalType": "string",
          "name": "nameto",
          "type": "string"
        }
      ],
      "name": "ChangedName",
      "type": "event"
    },
    {
      "anonymous": false,
      "inputs": [
        {
          "indexed": false,
          "internalType": "address",
          "name": "holon",
          "type": "address"
        },
        {
          "indexed": false,
          "internalType": "string",
          "name": "token",
          "type": "string"
        },
        {
          "indexed": false,
          "internalType": "uint256",
          "name": "amount",
          "type": "uint256"
        }
      ],
      "name": "HolonRewarded",
      "type": "event"
    },
    {
      "anonymous": false,
      "inputs": [
        {
          "indexed": false,
          "internalType": "address",
          "name": "member",
          "type": "address"
        },
        {
          "indexed": false,
          "internalType": "string",
          "name": "name",
          "type": "string"
        }
      ],
      "name": "RemovedMember",
      "type": "event"
    },
    {
      "anonymous": false,
      "inputs": [
        {
          "indexed": true,
          "internalType": "address",
          "name": "member",
          "type": "address"
        },
        {
          "indexed": false,
          "internalType": "address",
          "name": "token",
          "type": "address"
        },
        {
          "indexed": false,
          "internalType": "uint256",
          "name": "amount",
          "type": "uint256"
        }
      ],
      "name": "RewardFailed",
      "type": "event"
    },
    {
      "stateMutability": "payable",
      "type": "fallback"
    },
    {
      "inputs": [
        {
          "internalType": "address",
          "name": "_memberaddress",
          "type": "address"
        },
        {
          "internalType": "string",
          "name": "_membername",
          "type": "string"
        }
      ],
      "name": "addMember",
      "outputs": [],
      "stateMutability": "nonpayable",
      "type": "function"
    },
    {
      "inputs": [
        {
          "internalType": "address",
          "name": "_parentaddress",
          "type": "address"
        }
      ],
      "name": "addParent",
      "outputs": [],
      "stateMutability": "nonpayable",
      "type": "function"
    },
    {
      "inputs": [
        {
          "internalType": "address",
          "name": "_memberaddress",
          "type": "address"
        },
        {
          "internalType": "uint8",
          "name": "_percentage",
          "type": "uint8"
        }
      ],
      "name": "appreciate",
      "outputs": [],
      "stateMutability": "nonpayable",
      "type": "function"
    },
    {
      "inputs": [
        {
          "internalType": "address",
          "name": "_parent",
          "type": "address"
        },
        {
          "internalType": "address",
          "name": "_sibling",
          "type": "address"
        },
        {
          "internalType": "uint8",
          "name": "_percentage",
          "type": "uint8"
        }
      ],
      "name": "appreciateSibling",
      "outputs": [],
      "stateMutability": "nonpayable",
      "type": "function"
    },
    {
      "inputs": [
        {
          "internalType": "address",
          "name": "",
          "type": "address"
        }
      ],
      "name": "appreciation",
      "outputs": [
        {
          "internalType": "uint256",
          "name": "",
          "type": "uint256"
        }
      ],
      "stateMutability": "view",
      "type": "function"
    },
    {
      "inputs": [
        {
          "internalType": "address",
          "name": "_address",
          "type": "address"
        },
        {
          "internalType": "string",
          "name": "_name",
          "type": "string"
        }
      ],
      "name": "changeName",
      "outputs": [],
      "stateMutability": "nonpayable",
      "type": "function"
    },
    {
      "inputs": [
        {
          "internalType": "address",
          "name": "_address",
          "type": "address"
        }
      ],
      "name": "changeOwner",
      "outputs": [],
      "stateMutability": "nonpayable",
      "type": "function"
    },
    {
      "inputs": [],
      "name": "creator",
      "outputs": [
        {
          "internalType": "address",
          "name": "",
          "type": "address"
        }
      ],
      "stateMutability": "view",
      "type": "function"
    },
    {
      "inputs": [],
      "name": "flavor",
      "outputs": [
        {
          "internalType": "string",
          "name": "",
          "type": "string"
        }
      ],
      "stateMutability": "view",
      "type": "function"
    },
    {
      "inputs": [],
      "name": "getSize",
      "outputs": [
        {
          "internalType": "uint256",
          "name": "",
          "type": "uint256"
        }
      ],
      "stateMutability": "view",
      "type": "function"
    },
    {
      "inputs": [
        {
          "internalType": "address",
          "name": "",
          "type": "address"
        }
      ],
      "name": "isMember",
      "outputs": [
        {
          "internalType": "bool",
          "name": "",
          "type": "bool"
        }
      ],
      "stateMutability": "view",
      "type": "function"
    },
    {
      "inputs": [],
      "name": "listMembers",
      "outputs": [
        {
          "internalType": "address payable[]",
          "name": "",
          "type": "address[]"
        }
      ],
      "stateMutability": "view",
      "type": "function"
    },
    {
      "inputs": [],
      "name": "listParents",
      "outputs": [
        {
          "internalType": "address[]",
          "name": "",
          "type": "address[]"
        }
      ],
      "stateMutability": "view",
      "type": "function"
    },
    {
      "inputs": [],
      "name": "manifest",
      "outputs": [
        {
          "internalType": "string",
          "name": "",
          "type": "string"
        }
      ],
      "stateMutability": "view",
      "type": "function"
    },
    {
      "inputs": [],
      "name": "name",
      "outputs": [
        {
          "internalType": "string",
          "name": "",
          "type": "string"
        }
      ],
      "stateMutability": "view",
      "type": "function"
    },
    {
      "inputs": [
        {
          "internalType": "string",
          "name": "_flavor",
          "type": "string"
        },
        {
          "internalType": "string",
          "name": "_name",
          "type": "string"
        },
        {
          "internalType": "uint256",
          "name": "_parameter",
          "type": "uint256"
        }
      ],
      "name": "newHolon",
      "outputs": [
        {
          "internalType": "address",
          "name": "",
          "type": "address"
        }
      ],
      "stateMutability": "nonpayable",
      "type": "function"
    },
    {
      "inputs": [
        {
          "internalType": "address",
          "name": "",
          "type": "address"
        }
      ],
      "name": "remainingappreciation",
      "outputs": [
        {
          "internalType": "uint8",
          "name": "",
          "type": "uint8"
        }
      ],
      "stateMutability": "view",
      "type": "function"
    },
    {
      "inputs": [
        {
          "internalType": "address",
          "name": "_memberaddress",
          "type": "address"
        }
      ],
      "name": "removeMember",
      "outputs": [],
      "stateMutability": "nonpayable",
      "type": "function"
    },
    {
      "inputs": [],
      "name": "resetAppreciation",
      "outputs": [],
      "stateMutability": "nonpayable",
      "type": "function"
    },
    {
      "inputs": [
        {
          "internalType": "address",
          "name": "_tokenaddress",
          "type": "address"
        },
        {
          "internalType": "uint256",
          "name": "_tokenamount",
          "type": "uint256"
        }
      ],
      "name": "reward",
      "outputs": [],
      "stateMutability": "payable",
      "type": "function"
    },
    {
      "inputs": [
        {
          "internalType": "address[]",
          "name": "_memberaddress",
          "type": "address[]"
        },
        {
          "internalType": "uint8[]",
          "name": "_percentage",
          "type": "uint8[]"
        }
      ],
      "name": "setAppreciation",
      "outputs": [],
      "stateMutability": "nonpayable",
      "type": "function"
    },
    {
      "inputs": [
        {
          "internalType": "string",
          "name": "_IPFSHash",
          "type": "string"
        }
      ],
      "name": "setManifest",
      "outputs": [],
      "stateMutability": "nonpayable",
      "type": "function"
    },
    {
      "inputs": [
        {
          "internalType": "string",
          "name": "",
          "type": "string"
        }
      ],
      "name": "toAddress",
      "outputs": [
        {
          "internalType": "address",
          "name": "",
          "type": "address"
        }
      ],
      "stateMutability": "view",
      "type": "function"
    },
    {
      "inputs": [
        {
          "internalType": "address",
          "name": "",
          "type": "address"
        }
      ],
      "name": "toName",
      "outputs": [
        {
          "internalType": "string",
          "name": "",
          "type": "string"
        }
      ],
      "stateMutability": "view",
      "type": "function"
    },
    {
      "inputs": [],
      "name": "totalappreciation",
      "outputs": [
        {
          "internalType": "uint256",
          "name": "",
          "type": "uint256"
        }
      ],
      "stateMutability": "view",
      "type": "function"
    },
    {
      "inputs": [],
      "name": "version",
      "outputs": [
        {
          "internalType": "string",
          "name": "",
          "type": "string"
        }
      ],
      "stateMutability": "view",
      "type": "function"
    },
    {
      "stateMutability": "payable",
      "type": "receive"
    }
  ],
  "bytecode": "0x6080604052346200027057620027a1803803806200001d8162000275565b9283398101604082820312620002705781516001600160a01b03811690819003620002705760208381015190936001600160401b03919082821162000270570190601f9380858401121562000270578251928284116200024657601f19936200008c8782018616890162000275565b928184528882840101116200027057879160005b8281106200025c575050906000918301015260018060a01b03199232846002541617600255815192831162000246578291620000de6007546200029b565b87811162000208575b5087918784116001146200019d575060009262000191575b50508160011b916000199060031b1c1916176007555b600a541617600a556200012a6009546200029b565b908082116200016d575b7f41707072656369617469766500000000000000000000000000000000000000186009556000600b556040516124af9081620002f28239f35b62000188926009600052600020910160051c810190620002d8565b38808062000134565b015190503880620000ff565b909216916007600052876000209260005b89828210620001f1575050908460019594939210620001d7575b505050811b0160075562000115565b015160001960f88460031b161c19169055388080620001c8565b6001859682939686015181550195019301620001ae565b62000235906007600052896000208980870160051c8201928c88106200023c575b0160051c0190620002d8565b38620000e7565b9250819262000229565b634e487b7160e01b600052604160045260246000fd5b8181018401518582018501528301620000a0565b600080fd5b6040519190601f01601f191682016001600160401b038111838210176200024657604052565b90600182811c92168015620002cd575b6020831014620002b757565b634e487b7160e01b600052602260045260246000fd5b91607f1691620002ab565b818110620002e4575050565b60008155600101620002d856fe608060408181526004918236101561002f575b50505036156100265761002434611fea565b005b61002434611fea565b600092833560e01c91826302d05d3f14611cc95750816306fdde0314611c1f5781630b1ca49a14611a0e578382630babba86146118ff5750816321670f221461159d57816329b84d09146113e45781633113a2ae1461132957816345ca25ed1461111957816354fd4d501461104657816362278f1c14610f7e5781637e4115ba14610f1657816381bc3f8c14610e2e578163a230c52414610df1578163a6f9dae114610d65578163acf36e5314610cd4578163b062e56014610ae0578163b6afd2ca14610a1d578163b766f86f146109fe578163b9e78f8f14610835578163c127c2471461049d578163cf1327bc1461038857508063d398010314610351578063de8fa43114610335578063f59e4f651461028a578063f5baf0d71461019d5763ff4616431461015f5780610012565b346101995760203660031901126101995760209160ff9082906001600160a01b03610188611ddd565b168152600d85522054169051908152f35b5080fd5b5090346102875780600319360112610287575080516000916003546101c181611cee565b8084529060019081811690811561025f5750600114610202575b50506101ec826101fe940383611d74565b51918291602083526020830190611db8565b0390f35b6003600090815294507fc2575a0e9e593c00f959f8c92f12db2869c3395a3b0502d05e2516446f71f85b5b82861061024757505050918101602001916101ec826101db565b8054602087870181019190915290950194810161022d565b6101fe965085925060209150926101ec9360ff191682840152151560051b82010194506101db565b80fd5b5090346102875780600319360112610287575080516000916009546102ae81611cee565b8084529060019081811690811561025f57506001146102d85750506101ec826101fe940383611d74565b6009600090815294507f6e1540171b6c0c960b71a7020d9f60077f6af931a8bbf590da0223dacf75c7af5b82861061031d57505050918101602001916101ec826101db565b80546020878701810191909152909501948101610303565b5034610199578160031936011261019957602091549051908152f35b50346101995760203660031901126101995760209181906001600160a01b03610378611ddd565b168152600c845220549051908152f35b91905034610444576060366003190112610444576103a4611ddd565b6024356001600160a01b03818116949291859003610499576044359160ff83168093036104955781600254163303610448571693859190853b1561044457604490838651978894859363b9e78f8f60e01b85528885015260248401525af1801561043a57610410578380f35b6001600160401b0383116104275750523880808380f35b634e487b7160e01b845260419052602483fd5b82513d86823e3d90fd5b8280fd5b845162461bcd60e51b8152602081860152602160248201527f4f6e6c79206c6561642063616e20706572666f726d207468697320616374696f6044820152603760f91b6064820152608490fd5b8680fd5b8580fd5b91905034610444576104ae36611e87565b903385526020918483526001948560ff86892054161515148015610821575b6104d690612332565b6001600160a01b03838116808952828652868920549094919060ff166107e75786519084519187818188019461050d818388611d95565b8101600581520301902054166107ac578854600160401b8110156107995761055a61053d828b8994018d55611f50565b819391549060031b9160018060a01b03809116831b921b19161790565b90558489526006865286892084516001600160401b038111610786578a9282826105918b9461058b8f999754611cee565b846123a7565b83601f82116001146107145781879881926105ce989993610709575b501b916000199060031b1c19161790555b8951809381928951928391611d95565b81016005815203019020856001600160601b0360a01b82541617905584825282865286822060ff1998898254161790558651828088830163acf36e5360e01b938482523060248201526024815261062481611d59565b5190855afa610631611fba565b5061068d575b828960648a600d8b8b7f7c803c00251fe8138e27cfa8286be8d98625e5f6476ca6ca594f682362b7112061067b8d8651918291858352888784015288830190611db8565b0390a186525283209182541617905580f35b908291828951898101928352306024820152602481526106ac81611d59565b51925af16106b8611fba565b50156106c657868180610637565b845162461bcd60e51b8152908101849052601760248201527f4661696c656420746f2063726561746520706172656e740000000000000000006044820152606490fd5b8c01519250386105ad565b9690601f19811683885285882090885b81811061075f575098826105ce98999a10610746575b5050811b0190556105be565b8b015160001960f88460031b161c19169055388061073a565b9497999598509286929691868d015181550194019201938e96938e928d9699979499610724565b634e487b7160e01b8b526041855260248bfd5b634e487b7160e01b8a526041845260248afd5b865162461bcd60e51b815280840187905260156024820152742730b6b29034b99030b63932b0b23c903a30b5b2b760591b6044820152606490fd5b865162461bcd60e51b8152808401879052601460248201527313595b58995c88185b1c9958591e48185919195960621b6044820152606490fd5b506002546001600160a01b031633146104cd565b83915034610199578260031936011261019957610850611ddd565b926024359160ff808416938481036104995733865260209683885282858820541680156109e6575b15610998576001600160a01b03169233841461093b57338752600d885285838689205416106108ee5750916108e8959691600c93338952600d8452858920916108c5835492828416611ee0565b169060ff191617905586525283206108de828254611f0a565b9055600b54611f0a565b600b5580f35b845162461bcd60e51b8152908101889052602160248201527f4e6f7420656e6f75676820617070726563696174696f6e2072656d61696e696e6044820152606760f81b6064820152608490fd5b845162461bcd60e51b8152908101889052603160248201527f53656e6465722063616e6e6f7420617070726563696174652068696d73656c6660448201527005c5c40e8d0c2e84ee640e6cad8ccd2e6d607b1b6064820152608490fd5b845162461bcd60e51b8152808501899052602260248201527f53656e646572206f72205265636569766572206973206e6f742061206d656d6260448201526132b960f11b6064820152608490fd5b506001600160a01b0381168752848720548316610878565b505034610199578160031936011261019957602090600b549051908152f35b828434610287578060031936011261028757908051918290805491828552602080950180938380527f290decd9548b62a8d60345a988386fc84ba6bc95484008f6362f93160ef3e56390845b818110610ac35750505081610a7f910382611d74565b83519485948186019282875251809352850193925b828110610aa357505050500390f35b83516001600160a01b031685528695509381019392810192600101610a94565b82546001600160a01b031684529288019260019283019201610a69565b90503461044457816003193601126104445780356001600160401b03808211610cd05736602383011215610cd0578183013592610b1c84611ec9565b93610b2986519586611d74565b8085526020938486016024809360051b83010191368311610cad578301905b828210610cb15750505080359283116104955736602384011215610495578282013592610b7484611ec9565b93610b8188519586611d74565b808552828686019160051b83010191368311610cad578301905b828210610c90575050508451835103610c56575050600b92858455855b8151811015610c5257610c4d90610c4660ff80610bd58488611f26565b516001600160a01b03911681610beb8689611f26565b51168c52600c89528a8c205581610c028589611f26565b511690610c0f8588611f26565b51168b52600d8852898b209082610c2a835492828416611ee0565b169060ff1916179055610c3d8387611f26565b51168754611f0a565b8655611f17565b610bb8565b8680f35b855162461bcd60e51b815291820184905260159082015274082e4e4c2f240d8cadccee8d040dad2e6dac2e8c6d605b1b6044820152606490fd5b813560ff81168103610ca9578152908601908601610b9b565b8a80fd5b8980fd5b81356001600160a01b0381168103610ca9578152908601908601610b48565b8480fd5b83903461019957602036600319011261019957610cef611ddd565b9060015490600160401b821015610427576001820180600155821015610d5257507fb10e2d527612073b26eecdfd717e6a320cf44b4afac2b0732d9fcbe2b7fa0cf60180546001600160a01b0319166001600160a01b0390921691909117905580f35b634e487b7160e01b845260329052602483fd5b9190503461044457602036600319011261044457610d81611ddd565b600254926001600160a01b03928385163303610dae57505016906001600160601b0360a01b161760025580f35b906020606492519162461bcd60e51b8352820152601f60248201527f4f6e6c79206f776e65722063616e206368616e676520746865206f776e6572006044820152fd5b9050346104445760203660031901126104445760209260ff918391906001600160a01b03610e1d611ddd565b168252855220541690519015158152f35b5050346101995760209081600319360112610444576001600160a01b03610e53611ddd565b16835260068252808320815193849181815490610e6f82611cee565b92838652600192888482169182600014610eec575050600114610eae575b85886101fe89610e9f848a0385611d74565b51928284938452830190611db8565b87945081939291528383205b828410610ed45750505082010181610e9f6101fe38610e8d565b8054848a018601528895508794909301928101610eba565b60ff19168882015294151560051b87019094019450859350610e9f92506101fe9150389050610e8d565b828434610287576020366003190112610287578235906001600160401b0382116102875750602092610f4a91369101611e40565b82610f5d83519283815193849201611d95565b6005908201908152819003830190205490516001600160a01b039091168152f35b8284346102875780600319360112610287576002546001600160a01b03939084163303610ff7575080600b55805b8154811015610ff3578084610fc3610fee93611f50565b90549060031b1c168352600c6020600d8152858520606460ff19825416179055528284812055611f17565b610fac565b5080f35b608490602084519162461bcd60e51b83528201526024808201527f4f6e6c7920746865206c6561642063616e2072657365742061707072656369616044820152633a34b7b760e11b6064820152fd5b5050346101995781600319360112610199578051908260085461106881611cee565b808552916001918083169081156110f15750600114611094575b5050506101ec826101fe940383611d74565b9450600885527ff3f7a9fe364faab93b216da50a3214154f22a0a2b415b23a84c8169e8b636ee35b8286106110d9575050506101ec8260206101fe9582010194611082565b805460208787018101919091529095019481016110bc565b6101fe9750869350602092506101ec94915060ff191682840152151560051b82010194611082565b8383346101995761112936611e87565b936001600160a01b0391821692909133841490811561131b575b508015611312575b156112b45780519283865160209581611168889383858d01611d95565b81016005815203019020816001600160601b0360a01b825416179055808552600684527ffdcc9059d3426f73949b49e5d977553aa298184439da800d66f48959d9cc76b06111c68387206111d38551928392878452878401906123e3565b828103898401528a611db8565b0390a18452600683528320918451916001600160401b0383116112a15750611205826111ff8554611cee565b856123a7565b80601f831160011461123f5750839482939492611234575b50508160011b916000199060031b1c191617905580f35b01519050848061121d565b90601f198316958486528286209286905b88821061128957505083600195969710611270575b505050811b01905580f35b015160001960f88460031b161c19169055848080611265565b80600185968294968601518155019501930190611250565b634e487b7160e01b855260419052602484fd5b906020608492519162461bcd60e51b8352820152603260248201527f4e616d65206368616e67652072657175657374206e6f742073656e742066726f604482015271369036b2b6b132b9103737b91037bbb732b960711b6064820152fd5b5032831461114b565b905060025416331486611143565b50503461019957816003193601126101995780516001805480835281855260208084019592939186907fb10e2d527612073b26eecdfd717e6a320cf44b4afac2b0732d9fcbe2b7fa0cf690855b8181106113c8575050508261138c910383611d74565b8451948186019282875251809352850195925b8281106113ac5785870386f35b83516001600160a01b031687529581019592810192840161139f565b82546001600160a01b0316845292840192918701918701611376565b839150346101995760209283600319360112610444576001600160401b03918035838111610cd0576114199036908301611df8565b60025490949193906001600160a01b0316330361155b575083116104275750611443600354611cee565b601f8111611507575b508293601f8311600114611489575092829382939261147e575b50508160011b916000199060031b1c19161760035580f35b013590508380611466565b601f198316947fc2575a0e9e593c00f959f8c92f12db2869c3395a3b0502d05e2516446f71f85b929185905b8782106114ef5750508360019596106114d5575b505050811b0160035580f35b0135600019600384901b60f8161c191690558380806114c9565b806001849682949587013581550195019201906114b5565b61154b907fc2575a0e9e593c00f959f8c92f12db2869c3395a3b0502d05e2516446f71f85b601f850160051c810191878610611551575b601f0160051c0190612390565b8461144c565b909150819061153e565b5162461bcd60e51b8152808301879052601f60248201527f4f6e6c79206f776e65722063616e2073657420746865206d616e6966657374006044820152606490fd5b90508282600319360112610287576115b3611ddd565b90926024918490833582341515806118ee575b1561182457505034956001915b835b84548082101561182057600b5490811561181057506115f382611f50565b905460039190911b1c6001600160a01b03168652600c602052868620548a81029080159082048c1417156117fe579061162b91611f9a565b80611640575b5061163b90611f17565b6115d5565b8585156116b5578080809361165486611f50565b905460039190911b1c6001600160a01b03165af1611670611fba565b50156116815761163b905b90611631565b855162461bcd60e51b81526020818a0152600f818901526e151c985b9cd9995c8819985a5b1959608a1b6044820152606490fd5b506116bf82611f50565b9054885163a9059cbb60e01b8152600392831b9190911c6001600160a01b039081168c8301528a82018490526044936020939092848187818e8d88165af180156117f4578c928c94928f926117b4575b5090849583869361171f8c611f50565b9054911b1c16945191888301946310b3879160e11b86528c16908301528882015287815261174c81611d28565b51925af1611758611fba565b501561176957505061163b9061167b565b7f556e61626c6520746f2063616c6c20746865207265776172642066756e63746960849260228b8d948c519562461bcd60e51b87528601528401528201526137b760f11b6064820152fd5b929594509250508481813d83116117ed575b6117d08183611d74565b81010312610ca9575180151503610cad578991928c8c923861170f565b503d6117c6565b8c513d8d823e3d90fd5b634e487b7160e01b875260118a528887fd5b61181b91508a611f9a565b61162b565b8580f35b84516370a0823160e01b81523088820152919750916001600160a01b038116916020818881865afa9081156118e45790899186916118b0575b5010156115d357845162461bcd60e51b81526020818901526021818801527f4e6f7420656e6f75676820746f6b656e7320696e2074686520636f6e747261636044820152601d60fa1b6064820152608490fd5b9150506020813d82116118dc575b816118cb60209383611d74565b81010312610cd0578890518a61185d565b3d91506118be565b86513d87823e3d90fd5b506001600160a01b038316156115c6565b915091346101995760031992606036850112610444576001600160401b03938135858111610cd0576119349036908401611df8565b9190956024359081116104995761199a9560209461195760609336908301611df8565b98909460018060a01b03998a600a54169661198b8b519d8e9a8b998a986305d5dd4360e11b8a528901526064880191612311565b92858403016024860152612311565b604435604483015203925af1928315611a045784936119c0575b50602093505191168152f35b9092506020813d82116119fc575b816119db60209383611d74565b810103126119f8575181811681036119f8576020935091386119b4565b8380fd5b3d91506119ce565b81513d86823e3d90fd5b8284346102875760208060031936011261019957611a2d939293611ddd565b9360018060a01b0393611a4585600254163314612332565b84849616955b845480821015611c1457869088611a6184611f50565b939054600394851b1c1614611a80575050611a7b90611f17565b611a4b565b87611aa392611a9761053d939a969798999a611f50565b9054911b1c1692611f50565b90555b84548015611c01576000190190611abc82611f50565b909182549160031b1b19169055845584845282528083209360ff1994858154169055600683527f982d6fac85d22cbbe833f9fe4278a909ca0f3b24ecc8b1f10fe63736e3c72313611b1f83862084519182918583528688840152868301906123e3565b0390a1808452600683528184208251908596815491611b3d83611cee565b92600192838216918215611bea575050600114611bb7575b50505083818760056000989952030190206001600160601b0360a01b8154169055845260068252832090611b898254611cee565b601f8111611b98575b50505580f35b601f611bb0928487528620910160051c810190612390565b8380611b92565b875285872091975086915b888310611bd9575050509485019483816000611b55565b805484840152918601918101611bc2565b168552505050801515028101955083816000611b55565b634e487b7160e01b865260318352602486fd5b505090919293611aa6565b50503461019957816003193601126101995780519082600754611c4181611cee565b808552916001918083169081156110f15750600114611c6c575050506101ec826101fe940383611d74565b9450600785527fa66cc928b5edb82af9bd49922954155ab7b0942694bea4ce44661d9a8736c6885b828610611cb1575050506101ec8260206101fe9582010194611082565b80546020878701810191909152909501948101611c94565b849034610199578160031936011261019957600a546001600160a01b03168152602090f35b90600182811c92168015611d1e575b6020831014611d0857565b634e487b7160e01b600052602260045260246000fd5b91607f1691611cfd565b608081019081106001600160401b03821117611d4357604052565b634e487b7160e01b600052604160045260246000fd5b606081019081106001600160401b03821117611d4357604052565b90601f801991011681019081106001600160401b03821117611d4357604052565b60005b838110611da85750506000910152565b8181015183820152602001611d98565b90602091611dd181518092818552858086019101611d95565b601f01601f1916010190565b600435906001600160a01b0382168203611df357565b600080fd5b9181601f84011215611df3578235916001600160401b038311611df35760208381860195010111611df357565b6001600160401b038111611d4357601f01601f191660200190565b81601f82011215611df357803590611e5782611e25565b92611e656040519485611d74565b82845260208383010111611df357816000926020809301838601378301015290565b906040600319830112611df3576004356001600160a01b0381168103611df35791602435906001600160401b038211611df357611ec691600401611e40565b90565b6001600160401b038111611d435760051b60200190565b9060ff8091169116039060ff8211611ef457565b634e487b7160e01b600052601160045260246000fd5b91908201809211611ef457565b6000198114611ef45760010190565b8051821015611f3a5760209160051b010190565b634e487b7160e01b600052603260045260246000fd5b906000918254811015611f86578280527f290decd9548b62a8d60345a988386fc84ba6bc95484008f6362f93160ef3e563019190565b634e487b7160e01b83526032600452602483fd5b8115611fa4570490565b634e487b7160e01b600052601260045260246000fd5b3d15611fe5573d90611fcb82611e25565b91611fd96040519384611d74565b82523d6000602084013e565b606090565b6000809134151580612309575b1561224257505034906001915b60005b6000548082101561223b57600b5490811561222b575061202682611f50565b60018060a01b0391549060031b1c16600052600c6020526040600020549083820291808304851490151715611ef45761205e91611f9a565b80612073575b5061206e90611f17565b612007565b84156120ec5760008080809361208886611f50565b905460039190911b1c6001600160a01b03165af16120a4611fba565b50156120b55761206e905b90612064565b60405162461bcd60e51b815260206004820152600f60248201526e151c985b9cd9995c8819985a5b1959608a1b6044820152606490fd5b6120f582611f50565b919054604080519063a9059cbb60e01b825260018060a01b03809481600395600498871b1c1687850152602494818686015260209485818d81600060449c8d93165af18015612220576121e9575b509060009283926121538b611f50565b9054911b1c1690828551878101926310b3879160e11b8452828a8301528a82015289815261218081611d28565b51925af161218c611fba565b50156121a057505050505061206e906120af565b5162461bcd60e51b8152938401526022908301527f556e61626c6520746f2063616c6c20746865207265776172642066756e637469908201526137b760f11b6064820152608490fd5b8581819493943d8311612219575b6122018183611d74565b81010312611df3575180151503611df3579038612143565b503d6121f7565b85513d6000823e3d90fd5b612236915083611f9a565b61205e565b5050505050565b6040516370a0823160e01b81523060048201529192508291602081602481865afa9081156122fe5790829185916122ca575b5010156120045760405162461bcd60e51b815260206004820152602160248201527f4e6f7420656e6f75676820746f6b656e7320696e2074686520636f6e747261636044820152601d60fa1b6064820152608490fd5b9150506020813d82116122f6575b816122e560209383611d74565b810103126119f85781905138612274565b3d91506122d8565b6040513d86823e3d90fd5b506001611ff7565b908060209392818452848401376000828201840152601f01601f1916010190565b1561233957565b60405162461bcd60e51b815260206004820152602960248201527f52657175657374207375626d69747465642062792061206e6f6e2d6d656d626560448201526872206164647265737360b81b6064820152608490fd5b81811061239b575050565b60008155600101612390565b9190601f81116123b657505050565b6123e1926000526020600020906020601f840160051c8301931061155157601f0160051c0190612390565b565b90600092918054916123f483611cee565b9182825260019384811690816000146124565750600114612416575b50505050565b90919394506000526020928360002092846000945b838610612442575050505001019038808080612410565b80548587018301529401938590820161242b565b9294505050602093945060ff191683830152151560051b0101903880808061241056fea26469706673582212203ae79435f9aaf43af8092a88edad531b99c530e6666af036077ced5a452a48f564736f6c63430008140033",
  "linkReferences": {},
  "deployedLinkReferences": {}
}