{
  "_format": "hh-sol-artifact-1",
  "contractName": "Holon",
  "sourceName": "contracts/Holon.sol",
  "abi": [
    {
      "anonymous": false,
      "inputs": [
        {
          "indexed": false,
          "internalType": "address",
          "name": "member",
          "type": "address"
        },
        {
          "indexed": false,
          "internalType": "string",
          "name": "name",
          "type": "string"
        }
      ],
      "name": "AddedMember",
      "type": "event"
    },
    {
      "anonymous": false,
      "inputs": [
        {
          "indexed": false,
          "internalType": "string",
          "name": "namefrom",
          "type": "string"
        },
        {
          "indexed": false,
          "internalType": "string",
          "name": "nameto",
          "type": "string"
        }
      ],
      "name": "ChangedName",
      "type": "event"
    },
    {
      "anonymous": false,
      "inputs": [
        {
          "indexed": false,
          "internalType": "address",
          "name": "holon",
          "type": "address"
        },
        {
          "indexed": false,
          "internalType": "string",
          "name": "token",
          "type": "string"
        },
        {
          "indexed": false,
          "internalType": "uint256",
          "name": "amount",
          "type": "uint256"
        }
      ],
      "name": "HolonRewarded",
      "type": "event"
    },
    {
      "anonymous": false,
      "inputs": [
        {
          "indexed": false,
          "internalType": "address",
          "name": "member",
          "type": "address"
        },
        {
          "indexed": false,
          "internalType": "string",
          "name": "name",
          "type": "string"
        }
      ],
      "name": "RemovedMember",
      "type": "event"
    },
    {
      "anonymous": false,
      "inputs": [
        {
          "indexed": true,
          "internalType": "address",
          "name": "member",
          "type": "address"
        },
        {
          "indexed": false,
          "internalType": "address",
          "name": "token",
          "type": "address"
        },
        {
          "indexed": false,
          "internalType": "uint256",
          "name": "amount",
          "type": "uint256"
        }
      ],
      "name": "RewardFailed",
      "type": "event"
    },
    {
      "stateMutability": "payable",
      "type": "fallback"
    },
    {
      "inputs": [
        {
          "internalType": "address",
          "name": "_memberaddress",
          "type": "address"
        },
        {
          "internalType": "string",
          "name": "_membername",
          "type": "string"
        }
      ],
      "name": "addMember",
      "outputs": [],
      "stateMutability": "nonpayable",
      "type": "function"
    },
    {
      "inputs": [
        {
          "internalType": "address",
          "name": "_parentaddress",
          "type": "address"
        }
      ],
      "name": "addParent",
      "outputs": [],
      "stateMutability": "nonpayable",
      "type": "function"
    },
    {
      "inputs": [
        {
          "internalType": "address",
          "name": "_address",
          "type": "address"
        },
        {
          "internalType": "string",
          "name": "_name",
          "type": "string"
        }
      ],
      "name": "changeName",
      "outputs": [],
      "stateMutability": "nonpayable",
      "type": "function"
    },
    {
      "inputs": [
        {
          "internalType": "address",
          "name": "_address",
          "type": "address"
        }
      ],
      "name": "changeOwner",
      "outputs": [],
      "stateMutability": "nonpayable",
      "type": "function"
    },
    {
      "inputs": [],
      "name": "creator",
      "outputs": [
        {
          "internalType": "address",
          "name": "",
          "type": "address"
        }
      ],
      "stateMutability": "view",
      "type": "function"
    },
    {
      "inputs": [],
      "name": "flavor",
      "outputs": [
        {
          "internalType": "string",
          "name": "",
          "type": "string"
        }
      ],
      "stateMutability": "view",
      "type": "function"
    },
    {
      "inputs": [],
      "name": "getSize",
      "outputs": [
        {
          "internalType": "uint256",
          "name": "",
          "type": "uint256"
        }
      ],
      "stateMutability": "view",
      "type": "function"
    },
    {
      "inputs": [
        {
          "internalType": "address",
          "name": "",
          "type": "address"
        }
      ],
      "name": "isMember",
      "outputs": [
        {
          "internalType": "bool",
          "name": "",
          "type": "bool"
        }
      ],
      "stateMutability": "view",
      "type": "function"
    },
    {
      "inputs": [],
      "name": "listMembers",
      "outputs": [
        {
          "internalType": "address payable[]",
          "name": "",
          "type": "address[]"
        }
      ],
      "stateMutability": "view",
      "type": "function"
    },
    {
      "inputs": [],
      "name": "listParents",
      "outputs": [
        {
          "internalType": "address[]",
          "name": "",
          "type": "address[]"
        }
      ],
      "stateMutability": "view",
      "type": "function"
    },
    {
      "inputs": [],
      "name": "manifest",
      "outputs": [
        {
          "internalType": "string",
          "name": "",
          "type": "string"
        }
      ],
      "stateMutability": "view",
      "type": "function"
    },
    {
      "inputs": [],
      "name": "name",
      "outputs": [
        {
          "internalType": "string",
          "name": "",
          "type": "string"
        }
      ],
      "stateMutability": "view",
      "type": "function"
    },
    {
      "inputs": [
        {
          "internalType": "string",
          "name": "_flavor",
          "type": "string"
        },
        {
          "internalType": "string",
          "name": "_name",
          "type": "string"
        },
        {
          "internalType": "uint256",
          "name": "_parameter",
          "type": "uint256"
        }
      ],
      "name": "newHolon",
      "outputs": [
        {
          "internalType": "address",
          "name": "",
          "type": "address"
        }
      ],
      "stateMutability": "nonpayable",
      "type": "function"
    },
    {
      "inputs": [
        {
          "internalType": "address",
          "name": "_memberaddress",
          "type": "address"
        }
      ],
      "name": "removeMember",
      "outputs": [],
      "stateMutability": "nonpayable",
      "type": "function"
    },
    {
      "inputs": [
        {
          "internalType": "address",
          "name": "_tokenAddress",
          "type": "address"
        },
        {
          "internalType": "uint256",
          "name": "_tokenAmount",
          "type": "uint256"
        }
      ],
      "name": "reward",
      "outputs": [],
      "stateMutability": "payable",
      "type": "function"
    },
    {
      "inputs": [
        {
          "internalType": "string",
          "name": "_IPFSHash",
          "type": "string"
        }
      ],
      "name": "setManifest",
      "outputs": [],
      "stateMutability": "nonpayable",
      "type": "function"
    },
    {
      "inputs": [
        {
          "internalType": "string",
          "name": "",
          "type": "string"
        }
      ],
      "name": "toAddress",
      "outputs": [
        {
          "internalType": "address",
          "name": "",
          "type": "address"
        }
      ],
      "stateMutability": "view",
      "type": "function"
    },
    {
      "inputs": [
        {
          "internalType": "address",
          "name": "",
          "type": "address"
        }
      ],
      "name": "toName",
      "outputs": [
        {
          "internalType": "string",
          "name": "",
          "type": "string"
        }
      ],
      "stateMutability": "view",
      "type": "function"
    },
    {
      "inputs": [],
      "name": "version",
      "outputs": [
        {
          "internalType": "string",
          "name": "",
          "type": "string"
        }
      ],
      "stateMutability": "view",
      "type": "function"
    },
    {
      "stateMutability": "payable",
      "type": "receive"
    }
  ],
  "bytecode": "0x6080806040523461002857600280546001600160a01b03191632179055611e11908161002e8239f35b600080fdfe608060408181526004918236101561002f575b5050503615610026576100243461193d565b005b6100243461193d565b600092833560e01c91826302d05d3f146117325750816306fdde03146116885781630b1ca49a14611477578382630babba86146113635750816321670f2214610ef257816329b84d0914610d345781633113a2ae14610c7957816345ca25ed14610a6857816354fd4d50146109be5781637e4115ba1461095557816381bc3f8c1461086d578163a230c52414610830578163a6f9dae1146107a0578163acf36e53146106fc578163b6afd2ca14610636578163c127c247146102c257508063de8fa431146102a6578063f59e4f65146101fd5763f5baf0d7146101125780610012565b346101f957816003193601126101f9578051908260035461013281611757565b808552916001918083169081156101d15750600114610174575b50505061015e826101709403836117c3565b51918291602083526020830190611808565b0390f35b9450600385527fc2575a0e9e593c00f959f8c92f12db2869c3395a3b0502d05e2516446f71f85b5b8286106101b95750505061015e826020610170958201019461014c565b8054602087870181019190915290950194810161019c565b61017097508693506020925061015e94915060ff191682840152151560051b8201019461014c565b5080fd5b50346101f957816003193601126101f9578051908260095461021e81611757565b808552916001918083169081156101d157506001146102495750505061015e826101709403836117c3565b9450600985527f6e1540171b6c0c960b71a7020d9f60077f6af931a8bbf590da0223dacf75c7af5b82861061028e5750505061015e826020610170958201019461014c565b80546020878701810191909152909501948101610271565b50346101f957816003193601126101f957602091549051908152f35b839150346101f9576102d3366118d9565b3384526020928084526001928360ff88882054161515148015610622575b6102fa90611c94565b6001600160a01b03818116808852838752888820549095919060ff166105e8578851908551918881818901946103318183886117e5565b8101600581520301902054166105ad578754600160401b81101561059a5761037e61036182858a94018c55611c1a565b819391549060031b9160018060a01b03809116831b921b19161790565b9055858852600687528888209085519167ffffffffffffffff83116105875790816103b4846103ae8c9554611757565b83611d09565b8293601f811160011461052257806103f0958d91610517575b50600019600383901b1c191690861b1790555b8a518093819289519283916117e5565b81016005815203019020856001600160601b0360a01b8254161790558487528286528787209060ff198254161790558651868087830163acf36e5360e01b938482523060248201526024815261044581611791565b5190855afa610452611c64565b5061049b575b5050506104959085807f7c803c00251fe8138e27cfa8286be8d98625e5f6476ca6ca594f682362b711209697519586958652850152830190611808565b0390a180f35b86918291828a51898101928352306024820152602481526104bb81611791565b51925af16104c7611c64565b50156104d4578080610458565b855162461bcd60e51b8152908101849052601760248201527f4661696c656420746f2063726561746520706172656e740000000000000000006044820152606490fd5b90508901518e6103cd565b85908c8a96601f198316858352878320925b81811061056d57506103f098508311610554575b5050811b0190556103e0565b8b015160001960f88460031b161c191690558e80610548565b9882015183558c988f988b96909401939283019201610534565b634e487b7160e01b8a526041865260248afd5b634e487b7160e01b895260418552602489fd5b885162461bcd60e51b815280850188905260156024820152742730b6b29034b99030b63932b0b23c903a30b5b2b760591b6044820152606490fd5b885162461bcd60e51b8152808501889052601460248201527313595b58995c88185b1c9958591e48185919195960621b6044820152606490fd5b506002546001600160a01b031633146102f1565b8284346106f957806003193601126106f957908051918290805491828552602080950180938380527f290decd9548b62a8d60345a988386fc84ba6bc95484008f6362f93160ef3e56390845b8181106106dc57505050816106989103826117c3565b83519485948186019282875251809352850193925b8281106106bc57505050500390f35b83516001600160a01b0316855286955093810193928101926001016106ad565b82546001600160a01b031684529288019260019283019201610682565b80fd5b8390346101f95760203660031901126101f95761071761182d565b9060015490600160401b82101561078d57600182018060015582101561077a57507fb10e2d527612073b26eecdfd717e6a320cf44b4afac2b0732d9fcbe2b7fa0cf60180546001600160a01b0319166001600160a01b0390921691909117905580f35b634e487b7160e01b845260329052602483fd5b634e487b7160e01b845260419052602483fd5b9190503461082c57602036600319011261082c576107bc61182d565b600254926001600160a01b039283851633036107e957505016906001600160601b0360a01b161760025580f35b906020606492519162461bcd60e51b8352820152601f60248201527f4f6e6c79206f776e65722063616e206368616e676520746865206f776e6572006044820152fd5b8280fd5b90503461082c57602036600319011261082c5760209260ff918391906001600160a01b0361085c61182d565b168252855220541690519015158152f35b5050346101f9576020908160031936011261082c576001600160a01b0361089261182d565b168352600682528083208151938491818154906108ae82611757565b9283865260019288848216918260001461092b5750506001146108ed575b8588610170896108de848a03856117c3565b51928284938452830190611808565b87945081939291528383205b82841061091357505050820101816108de610170386108cc565b8054848a0186015288955087949093019281016108f9565b60ff19168882015294151560051b870190940194508593506108de925061017091503890506108cc565b8284346106f95760203660031901126106f95782359067ffffffffffffffff82116106f9575060209261098a91369101611892565b8261099d835192838151938492016117e5565b6005908201908152819003830190205490516001600160a01b039091168152f35b5050346101f957816003193601126101f957805190826008546109e081611757565b808552916001918083169081156101d15750600114610a0b5750505061015e826101709403836117c3565b9450600885527ff3f7a9fe364faab93b216da50a3214154f22a0a2b415b23a84c8169e8b636ee35b828610610a505750505061015e826020610170958201019461014c565b80546020878701810191909152909501948101610a33565b8383346101f957610a78366118d9565b936001600160a01b03918216929091338414908115610c6b575b508015610c62575b15610c045780519283865160209581610ab7889383858d016117e5565b81016005815203019020816001600160601b0360a01b825416179055808552600684527ffdcc9059d3426f73949b49e5d977553aa298184439da800d66f48959d9cc76b0610b15838720610b22855192839287845287840190611d45565b828103898401528a611808565b0390a184526006835283209184519167ffffffffffffffff8311610bf15750610b5582610b4f8554611757565b85611d09565b80601f8311600114610b8f5750839482939492610b84575b50508160011b916000199060031b1c191617905580f35b015190508480610b6d565b90601f198316958486528286209286905b888210610bd957505083600195969710610bc0575b505050811b01905580f35b015160001960f88460031b161c19169055848080610bb5565b80600185968294968601518155019501930190610ba0565b634e487b7160e01b855260419052602484fd5b906020608492519162461bcd60e51b8352820152603260248201527f4e616d65206368616e67652072657175657374206e6f742073656e742066726f604482015271369036b2b6b132b9103737b91037bbb732b960711b6064820152fd5b50328314610a9a565b905060025416331486610a92565b5050346101f957816003193601126101f95780516001805480835281855260208084019592939186907fb10e2d527612073b26eecdfd717e6a320cf44b4afac2b0732d9fcbe2b7fa0cf690855b818110610d185750505082610cdc9103836117c3565b8451948186019282875251809352850195925b828110610cfc5785870386f35b83516001600160a01b0316875295810195928101928401610cef565b82546001600160a01b0316845292840192918701918701610cc6565b839150346101f9576020928360031936011261082c5767ffffffffffffffff918035838111610eee57610d6a9036908301611848565b60025490949193906001600160a01b03163303610eac5750831161078d5750610d94600354611757565b601f8111610e58575b508293601f8311600114610dda5750928293829392610dcf575b50508160011b916000199060031b1c19161760035580f35b013590508380610db7565b601f198316947fc2575a0e9e593c00f959f8c92f12db2869c3395a3b0502d05e2516446f71f85b929185905b878210610e40575050836001959610610e26575b505050811b0160035580f35b0135600019600384901b60f8161c19169055838080610e1a565b80600184968294958701358155019501920190610e06565b610e9c907fc2575a0e9e593c00f959f8c92f12db2869c3395a3b0502d05e2516446f71f85b601f850160051c810191878610610ea2575b601f0160051c0190611cf2565b84610d9d565b9091508190610e8f565b5162461bcd60e51b8152808301879052601f60248201527f4f6e6c79206f776e65722063616e2073657420746865206d616e6966657374006044820152606490fd5b8480fd5b905082826003193601126106f957610f0861182d565b92602491823594815490811561132a5786156112d957341515806112c8575b1561105b57505034850361102157610f40815486611b7d565b610f4b811515611b9d565b815b8254811015610fce578280808085610f6486611c1a565b905460039190911b1c6001600160a01b03165af1610f80611c64565b5015610f9457610f8f90611bf5565b610f4d565b835162461bcd60e51b815260208188015260158187015274115d1a195c881d1c985b9cd9995c8819985a5b1959605a1b6044820152606490fd5b5050937f5e1d21dcfda4f76cd32994c09b67a7cd04e48267cd319846e7af93569afff7a9935060a0925081519130835260606020840152600560608401526422aa2422a960d91b6080840152820152a180f35b815162461bcd60e51b81526020818601526015818501527408ae8d0cae440c2dadeeadce840dad2e6dac2e8c6d605b1b6044820152606490fd5b91939290916001600160a01b0390811680156112775782516370a0823160e01b815230888201526020949085818881865afa90811561126d57908a918991611238575b50106111ec576110ae9089611b7d565b906110ba821515611b9d565b865b875481101561119757836110cf82611c1a565b91905487519263a9059cbb60e01b845260031b1c168a8201528388820152604490878183818d885af190811561118d578a91611153575b501561111b575061111690611bf5565b6110bc565b8974115490cc8c081d1c985b9cd9995c8819985a5b1959605a1b60649260158b8b8b519562461bcd60e51b8752860152840152820152fd5b90508781813d8311611186575b61116a81836117c3565b8101031261118257518015158103611182578c611106565b8980fd5b503d611160565b87513d8c823e3d90fd5b505050507f5e1d21dcfda4f76cd32994c09b67a7cd04e48267cd319846e7af93569afff7a9945060a0939591925060608151933085528401526005606084015264045524332360dc1b6080840152820152a180f35b835162461bcd60e51b81528089018690526021818801527f4e6f7420656e6f75676820746f6b656e7320696e2074686520636f6e747261636044820152601d60fa1b6064820152608490fd5b809250878092503d8311611266575b61125181836117c3565b81010312611262578990518b61109e565b8780fd5b503d611247565b85513d8a823e3d90fd5b825162461bcd60e51b81526020818901526026818701527f496e76616c696420746f6b656e206164647265737320666f72204552433230206044820152651c995dd85c9960d21b6064820152608490fd5b506001600160a01b03811615610f27565b835162461bcd60e51b81526020818801526026818701527f546f6b656e20616d6f756e74206d7573742062652067726561746572207468616044820152656e207a65726f60d01b6064820152608490fd5b835162461bcd60e51b815260208188015260148187015273139bc81b595b58995c9cc81d1bc81c995dd85c9960621b6044820152606490fd5b915091346101f9576003199260603685011261082c5767ffffffffffffffff938135858111610eee576113999036908401611848565b919095602435908111611473576113ff956020946113bc60609336908301611848565b98909460018060a01b03998a600a5416966113f08b519d8e9a8b998a986305d5dd4360e11b8a52890152606488019161191c565b9285840301602486015261191c565b604435604483015203925af1928315611469578493611425575b50602093505191168152f35b9092506020813d8211611461575b81611440602093836117c3565b8101031261145d5751818116810361145d57602093509138611419565b8380fd5b3d9150611433565b81513d86823e3d90fd5b8580fd5b8284346106f9576020806003193601126101f95761149693929361182d565b9360018060a01b03936114ae85600254163314611c94565b84849616955b84548082101561167d578690886114ca84611c1a565b939054600394851b1c16146114e95750506114e490611bf5565b6114b4565b8761150c92611500610361939a969798999a611c1a565b9054911b1c1692611c1a565b90555b8454801561166a57600019019061152582611c1a565b909182549160031b1b19169055845584845282528083209360ff1994858154169055600683527f982d6fac85d22cbbe833f9fe4278a909ca0f3b24ecc8b1f10fe63736e3c723136115888386208451918291858352868884015286830190611d45565b0390a18084526006835281842082519085968154916115a683611757565b92600192838216918215611653575050600114611620575b50505083818760056000989952030190206001600160601b0360a01b81541690558452600682528320906115f28254611757565b601f8111611601575b50505580f35b601f611619928487528620910160051c810190611cf2565b83806115fb565b875285872091975086915b8883106116425750505094850194838160006115be565b80548484015291860191810161162b565b1685525050508015150281019550838160006115be565b634e487b7160e01b865260318352602486fd5b50509091929361150f565b5050346101f957816003193601126101f957805190826007546116aa81611757565b808552916001918083169081156101d157506001146116d55750505061015e826101709403836117c3565b9450600785527fa66cc928b5edb82af9bd49922954155ab7b0942694bea4ce44661d9a8736c6885b82861061171a5750505061015e826020610170958201019461014c565b805460208787018101919091529095019481016116fd565b8490346101f957816003193601126101f957600a546001600160a01b03168152602090f35b90600182811c92168015611787575b602083101461177157565b634e487b7160e01b600052602260045260246000fd5b91607f1691611766565b6060810190811067ffffffffffffffff8211176117ad57604052565b634e487b7160e01b600052604160045260246000fd5b90601f8019910116810190811067ffffffffffffffff8211176117ad57604052565b60005b8381106117f85750506000910152565b81810151838201526020016117e8565b90602091611821815180928185528580860191016117e5565b601f01601f1916010190565b600435906001600160a01b038216820361184357565b600080fd5b9181601f840112156118435782359167ffffffffffffffff8311611843576020838186019501011161184357565b67ffffffffffffffff81116117ad57601f01601f191660200190565b81601f82011215611843578035906118a982611876565b926118b760405194856117c3565b8284526020838301011161184357816000926020809301838601378301015290565b906040600319830112611843576004356001600160a01b038116810361184357916024359067ffffffffffffffff82116118435761191991600401611892565b90565b908060209392818452848401376000828201840152601f01601f1916010190565b9060009081548015611b41578315611aed5734151580611ae5575b15611a9157348403611a545761196e9084611b7d565b9061197a821515611b9d565b825b8354811015611a0057838080808661199386611c1a565b905460039190911b1c6001600160a01b03165af16119af611c64565b50156119c3576119be90611bf5565b61197c565b60405162461bcd60e51b8152602060048201526015602482015274115d1a195c881d1c985b9cd9995c8819985a5b1959605a1b6044820152606490fd5b50927f5e1d21dcfda4f76cd32994c09b67a7cd04e48267cd319846e7af93569afff7a9925060a091506040519030825260606020830152600560608301526422aa2422a960d91b60808301526040820152a1565b60405162461bcd60e51b815260206004820152601560248201527408ae8d0cae440c2dadeeadce840dad2e6dac2e8c6d605b1b6044820152606490fd5b60405162461bcd60e51b815260206004820152602660248201527f496e76616c696420746f6b656e206164647265737320666f72204552433230206044820152651c995dd85c9960d21b6064820152608490fd5b506001611958565b60405162461bcd60e51b815260206004820152602660248201527f546f6b656e20616d6f756e74206d7573742062652067726561746572207468616044820152656e207a65726f60d01b6064820152608490fd5b60405162461bcd60e51b8152602060048201526014602482015273139bc81b595b58995c9cc81d1bc81c995dd85c9960621b6044820152606490fd5b8115611b87570490565b634e487b7160e01b600052601260045260246000fd5b15611ba457565b60405162461bcd60e51b8152602060048201526024808201527f496e73756666696369656e7420616d6f756e7420666f722064697374726962756044820152633a34b7b760e11b6064820152608490fd5b6000198114611c045760010190565b634e487b7160e01b600052601160045260246000fd5b906000918254811015611c50578280527f290decd9548b62a8d60345a988386fc84ba6bc95484008f6362f93160ef3e563019190565b634e487b7160e01b83526032600452602483fd5b3d15611c8f573d90611c7582611876565b91611c8360405193846117c3565b82523d6000602084013e565b606090565b15611c9b57565b60405162461bcd60e51b815260206004820152602960248201527f52657175657374207375626d69747465642062792061206e6f6e2d6d656d626560448201526872206164647265737360b81b6064820152608490fd5b818110611cfd575050565b60008155600101611cf2565b9190601f8111611d1857505050565b611d43926000526020600020906020601f840160051c83019310610ea257601f0160051c0190611cf2565b565b9060009291805491611d5683611757565b918282526001938481169081600014611db85750600114611d78575b50505050565b90919394506000526020928360002092846000945b838610611da4575050505001019038808080611d72565b805485870183015294019385908201611d8d565b9294505050602093945060ff191683830152151560051b01019038808080611d7256fea26469706673582212208b37e95b95d49f3d994ed6997303b7de142220015e53031a68ad339167d4941f64736f6c63430008140033",
  "linkReferences": {},
  "deployedLinkReferences": {}
}