{
  "_format": "hh-sol-artifact-1",
  "contractName": "Holons",
  "sourceName": "contracts/Holons.sol",
  "abi": [
    {
      "anonymous": false,
      "inputs": [
        {
          "indexed": true,
          "internalType": "address",
          "name": "flavor",
          "type": "address"
        },
        {
          "indexed": false,
          "internalType": "string",
          "name": "name",
          "type": "string"
        }
      ],
      "name": "NewFlavor",
      "type": "event"
    },
    {
      "anonymous": false,
      "inputs": [
        {
          "indexed": false,
          "internalType": "string",
          "name": "name",
          "type": "string"
        },
        {
          "indexed": false,
          "internalType": "address",
          "name": "addr",
          "type": "address"
        }
      ],
      "name": "NewHolon",
      "type": "event"
    },
    {
      "inputs": [
        {
          "internalType": "string",
          "name": "_name",
          "type": "string"
        }
      ],
      "name": "getFlavorAddress",
      "outputs": [
        {
          "internalType": "address",
          "name": "",
          "type": "address"
        }
      ],
      "stateMutability": "view",
      "type": "function"
    },
    {
      "inputs": [
        {
          "internalType": "uint256",
          "name": "",
          "type": "uint256"
        }
      ],
      "name": "knownflavors",
      "outputs": [
        {
          "internalType": "string",
          "name": "",
          "type": "string"
        }
      ],
      "stateMutability": "view",
      "type": "function"
    },
    {
      "inputs": [],
      "name": "listFlavors",
      "outputs": [
        {
          "internalType": "string[]",
          "name": "",
          "type": "string[]"
        }
      ],
      "stateMutability": "view",
      "type": "function"
    },
    {
      "inputs": [],
      "name": "listHolons",
      "outputs": [
        {
          "internalType": "address[]",
          "name": "",
          "type": "address[]"
        }
      ],
      "stateMutability": "view",
      "type": "function"
    },
    {
      "inputs": [
        {
          "internalType": "address",
          "name": "_address",
          "type": "address"
        }
      ],
      "name": "listHolonsOf",
      "outputs": [
        {
          "internalType": "address[]",
          "name": "",
          "type": "address[]"
        }
      ],
      "stateMutability": "view",
      "type": "function"
    },
    {
      "inputs": [
        {
          "internalType": "string",
          "name": "_flavorname",
          "type": "string"
        },
        {
          "internalType": "address",
          "name": "_flavoraddress",
          "type": "address"
        }
      ],
      "name": "newFlavor",
      "outputs": [],
      "stateMutability": "nonpayable",
      "type": "function"
    },
    {
      "inputs": [
        {
          "internalType": "string",
          "name": "_flavor",
          "type": "string"
        },
        {
          "internalType": "string",
          "name": "_name",
          "type": "string"
        },
        {
          "internalType": "uint256",
          "name": "_parameter",
          "type": "uint256"
        }
      ],
      "name": "newHolon",
      "outputs": [
        {
          "internalType": "address",
          "name": "",
          "type": "address"
        }
      ],
      "stateMutability": "nonpayable",
      "type": "function"
    },
    {
      "inputs": [
        {
          "internalType": "string",
          "name": "",
          "type": "string"
        }
      ],
      "name": "toAddress",
      "outputs": [
        {
          "internalType": "address",
          "name": "",
          "type": "address"
        }
      ],
      "stateMutability": "view",
      "type": "function"
    }
  ],
  "bytecode": "0x6080806040523461001657610b43908161001c8239f35b600080fdfe60406080815260048036101561001457600080fd5b600090813560e01c80630babba86146106a15780631bef6cd4146105a05780632c0e78601461050c5780637b72401f146104aa5780637e4115ba1461043d578063dfee5717146103ba578063e5c23374146103405763f690335a1461007857600080fd5b3461033c578260031936011261033c5780359267ffffffffffffffff908185116103385736602386011215610338578483013591821161033857602480860136828589010111610334576001600160a01b038235818116969193908790036103305784519386848637848781016002815260209687910301902054166102e35784518684823784818881016002815203019020876bffffffffffffffffffffffff60a01b82541617905560035498680100000000000000008a10156102d15761014860019a8b8101600355610944565b9390936102c0575061015a8354610991565b601f811161027a575b508890601f88116001146101ec57878a9b81969482969483947f6718dfd55f2c8a35b1a954f6fcc62a3d28a6f996fa4a157974ad6f42a0e67b519d9e956101df575b5050501b906000198560031b1c19161790555b8451958487958652850152848401378181018301879052601f01601f19168101030190a280f35b01013592503880806101a5565b838a52858a20929091601f1989168b5b8181106102635750927f6718dfd55f2c8a35b1a954f6fcc62a3d28a6f996fa4a157974ad6f42a0e67b519a9b9c928a9795928880989610610247575b5050505083811b0190556101b8565b60001960f88960031b161c199201013516905538808080610238565b8483018401358655948d01949188019188016101fc565b838a52858a20601f890160051c810191878a106102b6575b601f0160051c01908b905b8281106102ab575050610163565b8b8155018b9061029d565b9091508190610292565b634e487b7160e01b8a528990528189fd5b50634e487b7160e01b88526041825287fd5b915091608493519262461bcd60e51b8452830152808201527f466c61766f7220776974682074686973206e616d6520616c72656164792065786044820152636973747360e01b6064820152fd5b8780fd5b8580fd5b8380fd5b5080fd5b82843461033c578160031936011261033c578180526020908282528083209281518093808654928381520195835280832092905b82821061039a57610396868661038c828b038361085c565b5191829182610a71565b0390f35b83546001600160a01b031687529586019560019384019390910190610374565b5082346104395760209182600319360112610338576001600160a01b0392903583811690819003610435578452838152818420825181548082529186528286208184019691959093905b83831061041c57610396878761038c828c038361085c565b8454811688529681019660019485019490920191610404565b8480fd5b8280fd5b509190346104a75760203660031901126104a75782359067ffffffffffffffff82116104a75750602092610473913691016108b0565b82610486835192838151938492016108fc565b6001908201908152819003830190205490516001600160a01b039091168152f35b80fd5b509190346104a75760203660031901126104a757823560035481101561033c576104d390610944565b9390936104fa57610396836104e7866109cb565b905191829160208352602083019061091f565b634e487b7160e01b8252819052602490fd5b509190346104a75760203660031901126104a75782359067ffffffffffffffff82116104a75750602092610542913691016108b0565b61058d8383519280519061057d8382019261055e8188866108fc565b860160028152868560018060a01b039889930301902054161515610ab5565b85519384928392519283916108fc565b8101600281520301902054169051908152f35b503461033c578160031936011261033c576003549067ffffffffffffffff821161068e57508251916020926105da848460051b018261085c565b8281526003825283810192827fc2575a0e9e593c00f959f8c92f12db2869c3395a3b0502d05e2516446f71f85b855b83831061066a57505050508451938085019181865251809252858501958260051b8601019392955b82871061063e5785850386f35b90919293828061065a600193603f198a8203018652885161091f565b9601920196019592919092610631565b600188819261067c859b98999b6109cb565b81520192019201919096949396610609565b634e487b7160e01b835260419052602482fd5b50913461033c57606036600319011261033c5767ffffffffffffffff91833583811161033c576106d490369086016108b0565b9260243590811161033c576106ec90369086016108b0565b9082519481808651976107406020809a8a61073083809d01926107108188866108fc565b8601600281528660018060a01b039e8f9889930301902054161515610ab5565b8a519384928392519283916108fc565b810160028152030190205416865189810190630e43cb2760e41b825288602482015261078981610773606482018b61091f565b604435604483015203601f19810183528261085c565b51915af4903d15610854573d9161079f83610894565b926107ac8751948561085c565b83523d848985013e5b156108195750858180518101031261033c578501519384168094036104a7575061080b7f10d047031611691941b661f2160741619b4030812eb79997f4b3734ed5605a439183519182918583528583019061091f565b85878301520390a151908152f35b845162461bcd60e51b81529081018790526015602482015274121bdb1bdb8818dc99585d1a5bdb8819985a5b1959605a1b6044820152606490fd5b6060916107b5565b90601f8019910116810190811067ffffffffffffffff82111761087e57604052565b634e487b7160e01b600052604160045260246000fd5b67ffffffffffffffff811161087e57601f01601f191660200190565b81601f820112156108f7578035906108c782610894565b926108d5604051948561085c565b828452602083830101116108f757816000926020809301838601378301015290565b600080fd5b60005b83811061090f5750506000910152565b81810151838201526020016108ff565b90602091610938815180928185528580860191016108fc565b601f01601f1916010190565b60035481101561097b5760036000527fc2575a0e9e593c00f959f8c92f12db2869c3395a3b0502d05e2516446f71f85b0190600090565b634e487b7160e01b600052603260045260246000fd5b90600182811c921680156109c1575b60208310146109ab57565b634e487b7160e01b600052602260045260246000fd5b91607f16916109a0565b90604051918260008254926109df84610991565b908184526001948581169081600014610a4e5750600114610a0b575b5050610a099250038361085c565b565b9093915060005260209081600020936000915b818310610a36575050610a09935082010138806109fb565b85548884018501529485019487945091830191610a1e565b915050610a0994506020925060ff191682840152151560051b82010138806109fb565b6020908160408183019282815285518094520193019160005b828110610a98575050505090565b83516001600160a01b031685529381019392810192600101610a8a565b15610abc57565b60405162461bcd60e51b8152602060048201526024808201527f466c61766f7220776974682074686973206e616d6520646f6573206e6f7420656044820152631e1a5cdd60e21b6064820152608490fdfea26469706673582212206ae5d77c8f0bb9f8a8ec5b4b2b38d051bade095c261b8a6432433846eafd908e64736f6c63430008140033",
  "linkReferences": {},
  "deployedLinkReferences": {}
}