{
  "_format": "hh-sol-artifact-1",
  "contractName": "Resource",
  "sourceName": "contracts/Resource.sol",
  "abi": [
    {
      "inputs": [
        {
          "internalType": "string",
          "name": "_label",
          "type": "string"
        },
        {
          "internalType": "uint256",
          "name": "_id",
          "type": "uint256"
        }
      ],
      "stateMutability": "nonpayable",
      "type": "constructor"
    },
    {
      "anonymous": false,
      "inputs": [
        {
          "indexed": false,
          "internalType": "address",
          "name": "member",
          "type": "address"
        },
        {
          "indexed": false,
          "internalType": "string",
          "name": "name",
          "type": "string"
        }
      ],
      "name": "AddedMember",
      "type": "event"
    },
    {
      "anonymous": false,
      "inputs": [
        {
          "indexed": false,
          "internalType": "string",
          "name": "namefrom",
          "type": "string"
        },
        {
          "indexed": false,
          "internalType": "string",
          "name": "nameto",
          "type": "string"
        }
      ],
      "name": "ChangedName",
      "type": "event"
    },
    {
      "anonymous": false,
      "inputs": [
        {
          "indexed": false,
          "internalType": "address",
          "name": "holon",
          "type": "address"
        },
        {
          "indexed": false,
          "internalType": "string",
          "name": "token",
          "type": "string"
        },
        {
          "indexed": false,
          "internalType": "uint256",
          "name": "amount",
          "type": "uint256"
        }
      ],
      "name": "HolonRewarded",
      "type": "event"
    },
    {
      "anonymous": false,
      "inputs": [
        {
          "indexed": false,
          "internalType": "string",
          "name": "_label",
          "type": "string"
        }
      ],
      "name": "NewRecipe",
      "type": "event"
    },
    {
      "anonymous": false,
      "inputs": [
        {
          "indexed": false,
          "internalType": "string",
          "name": "_label",
          "type": "string"
        },
        {
          "indexed": false,
          "internalType": "uint256",
          "name": "recipeID",
          "type": "uint256"
        },
        {
          "indexed": false,
          "internalType": "uint256",
          "name": "amount",
          "type": "uint256"
        }
      ],
      "name": "NewRequest",
      "type": "event"
    },
    {
      "anonymous": false,
      "inputs": [
        {
          "indexed": false,
          "internalType": "address",
          "name": "member",
          "type": "address"
        },
        {
          "indexed": false,
          "internalType": "string",
          "name": "name",
          "type": "string"
        }
      ],
      "name": "RemovedMember",
      "type": "event"
    },
    {
      "anonymous": false,
      "inputs": [
        {
          "indexed": true,
          "internalType": "address",
          "name": "member",
          "type": "address"
        },
        {
          "indexed": false,
          "internalType": "address",
          "name": "token",
          "type": "address"
        },
        {
          "indexed": false,
          "internalType": "uint256",
          "name": "amount",
          "type": "uint256"
        }
      ],
      "name": "RewardFailed",
      "type": "event"
    },
    {
      "stateMutability": "payable",
      "type": "fallback"
    },
    {
      "inputs": [
        {
          "internalType": "address",
          "name": "_memberaddress",
          "type": "address"
        },
        {
          "internalType": "string",
          "name": "_membername",
          "type": "string"
        }
      ],
      "name": "addMember",
      "outputs": [],
      "stateMutability": "nonpayable",
      "type": "function"
    },
    {
      "inputs": [
        {
          "internalType": "address",
          "name": "_parentaddress",
          "type": "address"
        }
      ],
      "name": "addParent",
      "outputs": [],
      "stateMutability": "nonpayable",
      "type": "function"
    },
    {
      "inputs": [
        {
          "internalType": "string",
          "name": "name",
          "type": "string"
        },
        {
          "internalType": "address[]",
          "name": "components",
          "type": "address[]"
        },
        {
          "internalType": "uint256[]",
          "name": "componentRecipe",
          "type": "uint256[]"
        },
        {
          "internalType": "uint256[]",
          "name": "quantities",
          "type": "uint256[]"
        }
      ],
      "name": "addRecipe",
      "outputs": [],
      "stateMutability": "nonpayable",
      "type": "function"
    },
    {
      "inputs": [
        {
          "internalType": "uint256[]",
          "name": "lhs",
          "type": "uint256[]"
        },
        {
          "internalType": "uint256[]",
          "name": "rhs",
          "type": "uint256[]"
        }
      ],
      "name": "addVectors",
      "outputs": [
        {
          "internalType": "uint256[]",
          "name": "",
          "type": "uint256[]"
        }
      ],
      "stateMutability": "pure",
      "type": "function"
    },
    {
      "inputs": [],
      "name": "bestrecipe",
      "outputs": [
        {
          "internalType": "uint256",
          "name": "",
          "type": "uint256"
        }
      ],
      "stateMutability": "view",
      "type": "function"
    },
    {
      "inputs": [
        {
          "internalType": "address",
          "name": "_address",
          "type": "address"
        },
        {
          "internalType": "string",
          "name": "_name",
          "type": "string"
        }
      ],
      "name": "changeName",
      "outputs": [],
      "stateMutability": "nonpayable",
      "type": "function"
    },
    {
      "inputs": [
        {
          "internalType": "address",
          "name": "_address",
          "type": "address"
        }
      ],
      "name": "changeOwner",
      "outputs": [],
      "stateMutability": "nonpayable",
      "type": "function"
    },
    {
      "inputs": [
        {
          "internalType": "uint256",
          "name": "requestId",
          "type": "uint256"
        }
      ],
      "name": "confirm",
      "outputs": [],
      "stateMutability": "nonpayable",
      "type": "function"
    },
    {
      "inputs": [],
      "name": "creator",
      "outputs": [
        {
          "internalType": "address",
          "name": "",
          "type": "address"
        }
      ],
      "stateMutability": "view",
      "type": "function"
    },
    {
      "inputs": [],
      "name": "flavor",
      "outputs": [
        {
          "internalType": "string",
          "name": "",
          "type": "string"
        }
      ],
      "stateMutability": "view",
      "type": "function"
    },
    {
      "inputs": [
        {
          "internalType": "uint256",
          "name": "recipeID",
          "type": "uint256"
        }
      ],
      "name": "getComponents",
      "outputs": [
        {
          "internalType": "address[]",
          "name": "",
          "type": "address[]"
        }
      ],
      "stateMutability": "view",
      "type": "function"
    },
    {
      "inputs": [],
      "name": "getRecipes",
      "outputs": [
        {
          "internalType": "string[]",
          "name": "",
          "type": "string[]"
        }
      ],
      "stateMutability": "view",
      "type": "function"
    },
    {
      "inputs": [
        {
          "internalType": "uint256",
          "name": "requestId",
          "type": "uint256"
        }
      ],
      "name": "getRequestInfo",
      "outputs": [
        {
          "internalType": "address",
          "name": "requester",
          "type": "address"
        },
        {
          "internalType": "uint256",
          "name": "amounts",
          "type": "uint256"
        },
        {
          "internalType": "string",
          "name": "location",
          "type": "string"
        },
        {
          "internalType": "uint256",
          "name": "status",
          "type": "uint256"
        },
        {
          "internalType": "uint256",
          "name": "creation",
          "type": "uint256"
        }
      ],
      "stateMutability": "view",
      "type": "function"
    },
    {
      "inputs": [],
      "name": "getSize",
      "outputs": [
        {
          "internalType": "uint256",
          "name": "",
          "type": "uint256"
        }
      ],
      "stateMutability": "view",
      "type": "function"
    },
    {
      "inputs": [
        {
          "internalType": "uint256",
          "name": "requestId",
          "type": "uint256"
        }
      ],
      "name": "getStatus",
      "outputs": [
        {
          "internalType": "uint256",
          "name": "status",
          "type": "uint256"
        }
      ],
      "stateMutability": "view",
      "type": "function"
    },
    {
      "inputs": [
        {
          "internalType": "uint256",
          "name": "recipeID",
          "type": "uint256"
        }
      ],
      "name": "getTruePrice",
      "outputs": [
        {
          "internalType": "uint256[]",
          "name": "",
          "type": "uint256[]"
        }
      ],
      "stateMutability": "view",
      "type": "function"
    },
    {
      "inputs": [],
      "name": "id",
      "outputs": [
        {
          "internalType": "uint256",
          "name": "",
          "type": "uint256"
        }
      ],
      "stateMutability": "view",
      "type": "function"
    },
    {
      "inputs": [
        {
          "internalType": "address",
          "name": "",
          "type": "address"
        }
      ],
      "name": "isMember",
      "outputs": [
        {
          "internalType": "bool",
          "name": "",
          "type": "bool"
        }
      ],
      "stateMutability": "view",
      "type": "function"
    },
    {
      "inputs": [],
      "name": "label",
      "outputs": [
        {
          "internalType": "string",
          "name": "",
          "type": "string"
        }
      ],
      "stateMutability": "view",
      "type": "function"
    },
    {
      "inputs": [],
      "name": "listMembers",
      "outputs": [
        {
          "internalType": "address payable[]",
          "name": "",
          "type": "address[]"
        }
      ],
      "stateMutability": "view",
      "type": "function"
    },
    {
      "inputs": [],
      "name": "listParents",
      "outputs": [
        {
          "internalType": "address[]",
          "name": "",
          "type": "address[]"
        }
      ],
      "stateMutability": "view",
      "type": "function"
    },
    {
      "inputs": [],
      "name": "manifest",
      "outputs": [
        {
          "internalType": "string",
          "name": "",
          "type": "string"
        }
      ],
      "stateMutability": "view",
      "type": "function"
    },
    {
      "inputs": [
        {
          "internalType": "uint256[]",
          "name": "lhs",
          "type": "uint256[]"
        },
        {
          "internalType": "uint256",
          "name": "scalar",
          "type": "uint256"
        }
      ],
      "name": "mulVectors",
      "outputs": [
        {
          "internalType": "uint256[]",
          "name": "",
          "type": "uint256[]"
        }
      ],
      "stateMutability": "pure",
      "type": "function"
    },
    {
      "inputs": [],
      "name": "name",
      "outputs": [
        {
          "internalType": "string",
          "name": "",
          "type": "string"
        }
      ],
      "stateMutability": "view",
      "type": "function"
    },
    {
      "inputs": [
        {
          "internalType": "string",
          "name": "_flavor",
          "type": "string"
        },
        {
          "internalType": "string",
          "name": "_name",
          "type": "string"
        },
        {
          "internalType": "uint256",
          "name": "_parameter",
          "type": "uint256"
        }
      ],
      "name": "newHolon",
      "outputs": [
        {
          "internalType": "address",
          "name": "",
          "type": "address"
        }
      ],
      "stateMutability": "nonpayable",
      "type": "function"
    },
    {
      "inputs": [],
      "name": "nrecipes",
      "outputs": [
        {
          "internalType": "uint256",
          "name": "",
          "type": "uint256"
        }
      ],
      "stateMutability": "view",
      "type": "function"
    },
    {
      "inputs": [],
      "name": "nrequests",
      "outputs": [
        {
          "internalType": "uint256",
          "name": "",
          "type": "uint256"
        }
      ],
      "stateMutability": "view",
      "type": "function"
    },
    {
      "inputs": [
        {
          "internalType": "uint256",
          "name": "",
          "type": "uint256"
        }
      ],
      "name": "recipes",
      "outputs": [
        {
          "internalType": "string",
          "name": "name",
          "type": "string"
        },
        {
          "internalType": "uint256",
          "name": "timesrequested",
          "type": "uint256"
        }
      ],
      "stateMutability": "view",
      "type": "function"
    },
    {
      "inputs": [
        {
          "internalType": "address",
          "name": "_memberaddress",
          "type": "address"
        }
      ],
      "name": "removeMember",
      "outputs": [],
      "stateMutability": "nonpayable",
      "type": "function"
    },
    {
      "inputs": [
        {
          "internalType": "uint256",
          "name": "_amount",
          "type": "uint256"
        },
        {
          "internalType": "string",
          "name": "_location",
          "type": "string"
        }
      ],
      "name": "request",
      "outputs": [],
      "stateMutability": "nonpayable",
      "type": "function"
    },
    {
      "inputs": [
        {
          "internalType": "uint256",
          "name": "_recipeID",
          "type": "uint256"
        },
        {
          "internalType": "uint256",
          "name": "_amount",
          "type": "uint256"
        },
        {
          "internalType": "string",
          "name": "_location",
          "type": "string"
        }
      ],
      "name": "requestRecipe",
      "outputs": [],
      "stateMutability": "nonpayable",
      "type": "function"
    },
    {
      "inputs": [
        {
          "internalType": "uint256",
          "name": "",
          "type": "uint256"
        }
      ],
      "name": "requests",
      "outputs": [
        {
          "internalType": "address",
          "name": "requester",
          "type": "address"
        },
        {
          "internalType": "uint256",
          "name": "recipeID",
          "type": "uint256"
        },
        {
          "internalType": "uint256",
          "name": "amounts",
          "type": "uint256"
        },
        {
          "internalType": "string",
          "name": "location",
          "type": "string"
        },
        {
          "internalType": "uint8",
          "name": "status",
          "type": "uint8"
        },
        {
          "internalType": "uint256",
          "name": "creation",
          "type": "uint256"
        }
      ],
      "stateMutability": "view",
      "type": "function"
    },
    {
      "inputs": [
        {
          "internalType": "address",
          "name": "_tokenAddress",
          "type": "address"
        },
        {
          "internalType": "uint256",
          "name": "_tokenAmount",
          "type": "uint256"
        }
      ],
      "name": "reward",
      "outputs": [],
      "stateMutability": "payable",
      "type": "function"
    },
    {
      "inputs": [
        {
          "internalType": "string",
          "name": "_IPFSHash",
          "type": "string"
        }
      ],
      "name": "setManifest",
      "outputs": [],
      "stateMutability": "nonpayable",
      "type": "function"
    },
    {
      "inputs": [
        {
          "internalType": "string",
          "name": "",
          "type": "string"
        }
      ],
      "name": "toAddress",
      "outputs": [
        {
          "internalType": "address",
          "name": "",
          "type": "address"
        }
      ],
      "stateMutability": "view",
      "type": "function"
    },
    {
      "inputs": [
        {
          "internalType": "address",
          "name": "",
          "type": "address"
        }
      ],
      "name": "toName",
      "outputs": [
        {
          "internalType": "string",
          "name": "",
          "type": "string"
        }
      ],
      "stateMutability": "view",
      "type": "function"
    },
    {
      "inputs": [],
      "name": "version",
      "outputs": [
        {
          "internalType": "string",
          "name": "",
          "type": "string"
        }
      ],
      "stateMutability": "view",
      "type": "function"
    },
    {
      "stateMutability": "payable",
      "type": "receive"
    }
  ],
  "bytecode": "0x608060405234620002435762003395803803806200001d8162000248565b928339810190604081830312620002435780516001600160401b03908181116200024357820191601f84818501121562000243578351918383116200021857602092601f1995620000748588868501160162000248565b9782895285838301011162000243579084929160005b8281106200022e57505082600091890101520151943260018060a01b0319600254161760025560006011556000600c556000600d5580519384116200021857600f54926001938481811c911680156200020d575b82821014620001f757838111620001ab575b50809285116001146200014057508394509083929160009462000134575b50501b916000199060031b1c191617600f555b60105560405161312690816200026f8239f35b0151925038806200010e565b929484908116600f60005284600020946000905b8883831062000190575050501062000176575b505050811b01600f5562000121565b015160001960f88460031b161c1916905538808062000167565b85870151885590960195948501948793509081019062000154565b600f600052816000208480880160051c820192848910620001ed575b0160051c019085905b828110620001e0575050620000f0565b60008155018590620001d0565b92508192620001c7565b634e487b7160e01b600052602260045260246000fd5b90607f1690620000de565b634e487b7160e01b600052604160045260246000fd5b8181018501518a82018601528694016200008a565b600080fd5b6040519190601f01601f191682016001600160401b03811183821017620002185760405256fe60806040818152600436101561002c575b505036156100235761002134612541565b005b61002134612541565b600091823560e01c90816302d05d3f146120fa5750806306fdde03146120515780630b1ca49a14611e3f5780630b81604514611dc75780630babba8614611cbc5780630c1df23d14611c9e5780631c5d656614611c5f57806321670f22146117eb57806329b84d09146116315780633113a2ae146115b0578063443c227c1461155857806345ca25ed1461134a57806354fd4d50146112a15780635c622a0e146111d25780635f295775146111b45780636147b4f6146111735780637dcf5857146110f75780637e4115ba1461108e5780638163ba111461104e57806381bc3f8c1461100157806381d12c5814610f7257806385f045b214610bb3578063a230c52414610b76578063a6f9dae114610aec578063acf36e5314610a4a578063af640d0f14610a2c578063b68191ac146109d0578063b6afd2ca1461090d578063b711ac3d146108ef578063ba0179b5146108c0578063c127c24714610547578063cb4774c41461049e578063d9b3fd5b146103a8578063de8fa4311461038c578063f59e4f65146102e3578063f5baf0d7146101ff5763f6adf7b10361001057346101fb5760203660031901126101fb576101f7906101ec600435612e9a565b9051918291826124aa565b0390f35b5080fd5b50346101fb57816003193601126101fb57805190826003546102208161211f565b808552916001918083169081156102bb575060011461025e575b50505061024c826101f79403836121a5565b5191829160208352602083019061228f565b9450600385527fc2575a0e9e593c00f959f8c92f12db2869c3395a3b0502d05e2516446f71f85b5b8286106102a35750505061024c8260206101f7958201019461023a565b80546020878701810191909152909501948101610286565b6101f797508693506020925061024c94915060ff191682840152151560051b8201019461023a565b50346101fb57816003193601126101fb57805190826009546103048161211f565b808552916001918083169081156102bb575060011461032f5750505061024c826101f79403836121a5565b9450600985527f6e1540171b6c0c960b71a7020d9f60077f6af931a8bbf590da0223dacf75c7af5b8286106103745750505061024c8260206101f7958201019461023a565b80546020878701810191909152909501948101610357565b50346101fb57816003193601126101fb57602091549051908152f35b50903461049b578060031936011261049b57600c546103c681612435565b906103d3845192836121a5565b808252601f196103e282612435565b01835b81811061048a575050825b818110610454575050825191602080840190808552835180925280868601968360051b870101940192955b8287106104285785850386f35b909192938280610444600193603f198a8203018652885161228f565b960192019601959291909261041b565b8061046a610464610485936123a2565b506121c6565b6104748286612e54565b5261047f8185612e54565b506127f9565b6103f0565b8060606020809387010152016103e5565b80fd5b50346101fb57816003193601126101fb5780519082600f546104bf8161211f565b808552916001918083169081156102bb57506001146104ea5750505061024c826101f79403836121a5565b9450600f85527f8d1108e10bcb7c27dddfc02ed9d693a074039d026cf4ea4240b40f7d581ac8025b82861061052f5750505061024c8260206101f7958201019461023a565b80546020878701810191909152909501948101610512565b50903461049b57610557366123f3565b90338352602091600483526001918260ff878720541615151480156108ac575b6105809061289c565b6001600160a01b0381811680875260048652878720549094919060ff16610871578751908451918781818801946105b881838861226c565b810160058152030190205416610835578654600160401b811015610821576106056105e882858994018b5561281e565b819391549060031b9160018060a01b03809116831b921b19161790565b905584875260068652878720908451916001600160401b03831161080d57908161063a846106348b955461211f565b83612911565b8293601f81116001146107a95780610676958c9161079e575b50600019600383901b1c191690861b1790555b895180938192885192839161226c565b81016005815203019020846001600160601b0360a01b825416179055838652600485528686209060ff198254161790558551858086830163acf36e5360e01b93848252306024820152602481526106cc8161218a565b5190855afa6106d961286c565b50610721575b505061071b9085807f7c803c00251fe8138e27cfa8286be8d98625e5f6476ca6ca594f682362b71120969751958695865285015283019061228f565b0390a180f35b85918291828951888101928352306024820152602481526107418161218a565b51925af161074d61286c565b501561075a5738806106df565b845162461bcd60e51b815260048101849052601760248201527f4661696c656420746f2063726561746520706172656e740000000000000000006044820152606490fd5b905088015138610653565b818b52838b2094869190601f1982168d5b8181106107f4575090826106769892106107db575b5050811b019055610666565b8a015160001960f88460031b161c1916905538806107cf565b828c0151895593909701968c96899492810192016107ba565b634e487b7160e01b89526041600452602489fd5b634e487b7160e01b88526041600452602488fd5b875162461bcd60e51b81526004810187905260156024820152742730b6b29034b99030b63932b0b23c903a30b5b2b760591b6044820152606490fd5b875162461bcd60e51b815260048101879052601460248201527313595b58995c88185b1c9958591e48185919195960621b6044820152606490fd5b506002546001600160a01b03163314610577565b823461049b57602036600319011261049b5760056108df6004356124e5565b5001805460ff1916600217905580f35b50346101fb57816003193601126101fb57602090600c549051908152f35b50903461049b578060031936011261049b57908051918290805491828552602080950180938380527f290decd9548b62a8d60345a988386fc84ba6bc95484008f6362f93160ef3e56390845b8181106109b3575050508161096f9103826121a5565b83519485948186019282875251809352850193925b82811061099357505050500390f35b83516001600160a01b031685528695509381019392810192600101610984565b82546001600160a01b031684529288019260019283019201610959565b50346101fb57806003193601126101fb576001600160401b03600435818111610a2857610a0190369060040161244c565b9260243591821161049b57506101f792610a226101ec92369060040161244c565b90613060565b8380fd5b50346101fb57816003193601126101fb576020906010549051908152f35b823461049b57602036600319011261049b57610a646122b4565b600154600160401b811015610ad8576001810180600155811015610ac4577fb10e2d527612073b26eecdfd717e6a320cf44b4afac2b0732d9fcbe2b7fa0cf60180546001600160a01b0319166001600160a01b0390921691909117905580f35b634e487b7160e01b83526032600452602483fd5b634e487b7160e01b83526041600452602483fd5b50346101fb5760203660031901126101fb57610b066122b4565b600254916001600160a01b0391908284163303610b33575016906001600160601b0360a01b161760025580f35b5162461bcd60e51b815260206004820152601f60248201527f4f6e6c79206f776e65722063616e206368616e676520746865206f776e6572006044820152606490fd5b50346101fb5760203660031901126101fb5760209160ff9082906001600160a01b03610ba06122b4565b1681526004855220541690519015158152f35b50346101fb5760803660031901126101fb576004356001600160401b038111610f6e57610be4903690600401612317565b906024356001600160401b038111610a285736602382011215610a28578060040135610c0f81612435565b91610c1c845193846121a5565b8183526024602084019260051b82010190368211610f6a57602401915b818310610f46575050506044356001600160401b038111610f4257610c6290369060040161244c565b6064356001600160401b038111610f3e57610c8190369060040161244c565b83519160a083018381106001600160401b038211176108215785528583526020830193845284830190815260608301918252866080840152600b54600160401b81101561082157806001610cd89201600b556123a2565b949094610f2a5783518051906001600160401b038211610ea2578190610d0882610d028a5461211f565b8a612911565b602090601f8311600114610ec1578b92610eb6575b50508160011b916000199060031b1c19161785555b5180519060018601906001600160401b038311610ea257600160401b8311610ea257602090610d6684845481865585612a01565b0190895260208920895b838110610e855750505050600284019051908151916001600160401b03831161080d57600160401b831161080d57602090610db084845481865585612a01565b0190885260208820885b838110610e715750505050600383019051908151916001600160401b03831161082157600160401b831161082157602090610dfa84845481865585612a01565b0190875260208720875b838110610e5d57887f66f1b7b691565f05e1e14571c06a440752ee8943c708bbb5623cb212a21eca3561071b8a8a8a600460808c0151910155610e48600c546127f9565b600c555191829160208352602083019061228f565b600190602084519401938184015501610e04565b600190602084519401938184015501610dba565b82516001600160a01b031681830155602090920191600101610d70565b634e487b7160e01b8a52604160045260248afd5b015190503880610d1d565b9250878b5260208b20908b935b601f1984168510610f0f576001945083601f19811610610ef6575b505050811b018555610d32565b015160001960f88460031b161c19169055388080610ee9565b81810151835560209485019460019093019290910190610ece565b634e487b7160e01b88526004889052602488fd5b8580fd5b8480fd5b82356001600160a01b0381168103610f6657815260209283019201610c39565b8780fd5b8680fd5b8280fd5b50903461049b57602036600319011261049b5760043590600e5482101561049b5750610f9d906124e5565b5060018060a01b0381541690600181015492610ff26003830154610fc3600485016121c6565b90600660ff6005870154169501549380519788978852602088015286015260c0606086015260c085019061228f565b91608084015260a08301520390f35b50346101fb5760203660031901126101fb576101f79161103b9082906001600160a01b0361102d6122b4565b1681526006602052206121c6565b905191829160208352602083019061228f565b50346101fb5736600319011261049b576024356001600160401b0381116101fb5761108061108b913690600401612317565b600435600d54612a24565b80f35b50346101fb5760203660031901126101fb57600435916001600160401b03831161049b57506110c36020923690600401612317565b826110d68351928381519384920161226c565b6005908201908152819003830190205490516001600160a01b039091168152f35b50346101fb5760209081600319360112610f6e576111166004356123a2565b509260018094019382518094808754928381520196845280842093905b828210611155576101f7878761114b828c03836121a5565b519182918261235e565b84546001600160a01b03168852968701969383019390830190611133565b50346101fb57806003193601126101fb57600435916001600160401b03831161049b57506101ec6111ab6101f793369060040161244c565b602435906130b9565b50346101fb57816003193601126101fb57602090600d549051908152f35b50903461049b57602091826003193601126101fb576111f26004356124e5565b509181519061120082612159565b83546001600160a01b03168252600184810154868401528351600286018054808352908452878420919390928492838a01929091905b8a86821061128b575050505061124e925003826121a5565b8282015260038301546060820152611268600484016121c6565b608082015260c0600660ff600586015416948560a0850152015491015251908152f35b8354855287955090930192918101918101611236565b50346101fb57816003193601126101fb57805190826008546112c28161211f565b808552916001918083169081156102bb57506001146112ed5750505061024c826101f79403836121a5565b9450600885527ff3f7a9fe364faab93b216da50a3214154f22a0a2b415b23a84c8169e8b636ee35b8286106113325750505061024c8260206101f7958201019461023a565b80546020878701810191909152909501948101611315565b50903461049b5761135a366123f3565b926001600160a01b039182169133831490811561154a575b508015611541575b156114e35780519182855160209481611397879383858c0161226c565b81016005815203019020816001600160601b0360a01b825416179055808452600683527ffdcc9059d3426f73949b49e5d977553aa298184439da800d66f48959d9cc76b06113f583862061140285519283928784528784019061294b565b828103888401528961228f565b0390a18352600682528220908351906001600160401b0382116114cf576114338261142d855461211f565b85612911565b80601f831160011461146d5750839482939492611462575b50508160011b916000199060031b1c191617905580f35b01519050388061144b565b90601f198316958486528286209286905b8882106114b75750508360019596971061149e575b505050811b01905580f35b015160001960f88460031b161c19169055388080611493565b8060018596829496860151815501950193019061147e565b634e487b7160e01b84526041600452602484fd5b5162461bcd60e51b815260206004820152603260248201527f4e616d65206368616e67652072657175657374206e6f742073656e742066726f604482015271369036b2b6b132b9103737b91037bbb732b960711b6064820152608490fd5b5032821461137a565b905060025416331438611372565b50903461049b57602036600319011261049b5760043590600b5482101561049b5750611583906123a2565b50906004611590836121c6565b9201546115a6825193838594855284019061228f565b9060208301520390f35b50903461049b578060031936011261049b578151918291600180548086526020809601958284527fb10e2d527612073b26eecdfd717e6a320cf44b4afac2b0732d9fcbe2b7fa0cf693905b828210611613576101f7878761114b828c03836121a5565b84546001600160a01b031688529687019693830193908301906115fb565b50903461049b57602091826003193601126101fb576001600160401b0390600435828111610a28576116679036906004016122cf565b60025490939192906001600160a01b031633036117a857508211610ad85761169060035461211f565b601f8111611754575b508293601f83116001146116d657509282938293926116cb575b50508160011b916000199060031b1c19161760035580f35b0135905038806116b3565b601f198316947fc2575a0e9e593c00f959f8c92f12db2869c3395a3b0502d05e2516446f71f85b929185905b87821061173c575050836001959610611722575b505050811b0160035580f35b0135600019600384901b60f8161c19169055388080611716565b80600184968294958701358155019501920190611702565b611798907fc2575a0e9e593c00f959f8c92f12db2869c3395a3b0502d05e2516446f71f85b601f850160051c81019187861061179e575b601f0160051c01906128fa565b38611699565b909150819061178b565b5162461bcd60e51b815260048101869052601f60248201527f4f6e6c79206f776e65722063616e2073657420746865206d616e6966657374006044820152606490fd5b50908160031936011261049b576118006122b4565b916024918235938154908115611c25578515611bd35734151580611bc2575b1561195557505034840361191a57611838815485612781565b6118438115156127a1565b815b82548110156118c757828080808561185c8661281e565b905460039190911b1c6001600160a01b03165af161187861286c565b501561188c57611887906127f9565b611845565b835162461bcd60e51b81526020600482015260158187015274115d1a195c881d1c985b9cd9995c8819985a5b1959605a1b6044820152606490fd5b5050927f5e1d21dcfda4f76cd32994c09b67a7cd04e48267cd319846e7af93569afff7a992509060a09181519130835260606020840152600560608401526422aa2422a960d91b6080840152820152a180f35b815162461bcd60e51b8152602060048201526015818501527408ae8d0cae440c2dadeeadce840dad2e6dac2e8c6d605b1b6044820152606490fd5b90939192906001600160a01b039081168015611b705782516370a0823160e01b81523060048201526020969087818781865afa908115611b66579089918891611b35575b5010611ae8576119a99088612781565b906119b58215156127a1565b855b8654811015611a9457836119ca8261281e565b91905487519263a9059cbb60e01b845260031b1c1660048201528387820152604490898183818c885af1908115611a8a578991611a50575b5015611a175750611a12906127f9565b6119b7565b8874115490cc8c081d1c985b9cd9995c8819985a5b1959605a1b60649260158a8a519462461bcd60e51b86526004860152840152820152fd5b90508981813d8311611a83575b611a6781836121a5565b81010312611a7f57518015158103611a7f5738611a02565b8880fd5b503d611a5d565b87513d8b823e3d90fd5b505050507f5e1d21dcfda4f76cd32994c09b67a7cd04e48267cd319846e7af93569afff7a99391509360a0929460608151933085528401526005606084015264045524332360dc1b6080840152820152a180f35b835162461bcd60e51b8152600481018890526021818701527f4e6f7420656e6f75676820746f6b656e7320696e2074686520636f6e747261636044820152601d60fa1b6064820152608490fd5b809250898092503d8311611b5f575b611b4e81836121a5565b81010312610f6a5788905138611999565b503d611b44565b85513d89823e3d90fd5b825162461bcd60e51b8152602060048201526026818601527f496e76616c696420746f6b656e206164647265737320666f72204552433230206044820152651c995dd85c9960d21b6064820152608490fd5b506001600160a01b0381161561181f565b835162461bcd60e51b8152602060048201526026818701527f546f6b656e20616d6f756e74206d7573742062652067726561746572207468616044820152656e207a65726f60d01b6064820152608490fd5b835162461bcd60e51b81526020600482015260148187015273139bc81b595b58995c9cc81d1bc81c995dd85c9960621b6044820152606490fd5b823461049b57606036600319011261049b576044356001600160401b0381116101fb57611c9361108b913690600401612317565b602435600435612a24565b50346101fb57816003193601126101fb576020906011549051908152f35b50346101fb57600319606036820112610f6e576001600160401b0391600435838111610f4257611cf09036906004016122cf565b938560243591821161049b57602092611d10611d489336906004016122cf565b929097611d5760018060a01b039889600a54169589519b8c98899788966305d5dd4360e11b8852606060048901526064880191612520565b92858403016024860152612520565b604435604483015203925af1928315611dbd578493611d7d575b50602093505191168152f35b9092506020813d8211611db5575b81611d98602093836121a5565b81010312610a2857518181168103610a2857602093509138611d71565b3d9150611d8b565b81513d86823e3d90fd5b50903461049b57602036600319011261049b5750611de66004356124e5565b5060018060a01b0381541690600381015492611e30611e07600484016121c6565b60a0600660ff6005870154169501549380519788978852602088015286015260a085019061228f565b91606084015260808301520390f35b50903461049b576020908160031936011261049b578290611e5e6122b4565b9260018060a01b0392611e768460025416331461289c565b83839516945b83548082101561204757859087611e928461281e565b939054600394851b1c1614611eb1575050611eac906127f9565b611e7c565b86611ed392611ec76105e893999697989961281e565b9054911b1c169261281e565b90555b83548015612033576000190190611eec8261281e565b909182549160031b1b191690558355838352600482528083209360ff1994858154169055600683527f982d6fac85d22cbbe833f9fe4278a909ca0f3b24ecc8b1f10fe63736e3c72313611f51838620845191829185835286888401528683019061294b565b0390a1808452600683528184208251908596815491611f6f8361211f565b9260019283821691821561201c575050600114611fe9575b50505083818760056000989952030190206001600160601b0360a01b8154169055845260068252832090611fbb825461211f565b601f8111611fca575b50505580f35b601f611fe2928487528620910160051c8101906128fa565b8380611fc4565b875285872091975086915b88831061200b575050509485019483816000611f87565b805484840152918601918101611ff4565b168552505050801515028101955083816000611f87565b634e487b7160e01b85526031600452602485fd5b5050909192611ed6565b50346101fb57816003193601126101fb57805190826007546120728161211f565b808552916001918083169081156102bb575060011461209d5750505061024c826101f79403836121a5565b9450600785527fa66cc928b5edb82af9bd49922954155ab7b0942694bea4ce44661d9a8736c6885b8286106120e25750505061024c8260206101f7958201019461023a565b805460208787018101919091529095019481016120c5565b8390346101fb57816003193601126101fb57600a546001600160a01b03168152602090f35b90600182811c9216801561214f575b602083101461213957565b634e487b7160e01b600052602260045260246000fd5b91607f169161212e565b60e081019081106001600160401b0382111761217457604052565b634e487b7160e01b600052604160045260246000fd5b606081019081106001600160401b0382111761217457604052565b90601f801991011681019081106001600160401b0382111761217457604052565b90604051918260008254926121da8461211f565b9081845260019485811690816000146122495750600114612206575b5050612204925003836121a5565b565b9093915060005260209081600020936000915b818310612231575050612204935082010138806121f6565b85548884018501529485019487945091830191612219565b91505061220494506020925060ff191682840152151560051b82010138806121f6565b60005b83811061227f5750506000910152565b818101518382015260200161226f565b906020916122a88151809281855285808601910161226c565b601f01601f1916010190565b600435906001600160a01b03821682036122ca57565b600080fd5b9181601f840112156122ca578235916001600160401b0383116122ca57602083818601950101116122ca57565b6001600160401b03811161217457601f01601f191660200190565b81601f820112156122ca5780359061232e826122fc565b9261233c60405194856121a5565b828452602083830101116122ca57816000926020809301838601378301015290565b6020908160408183019282815285518094520193019160005b828110612385575050505090565b83516001600160a01b031685529381019392810192600101612377565b600b548110156123dd57600590600b600052027f0175b7a638427703f0dbe7bb9bbf987a2551717b34e79f33b5b1008d1fa01db90190600090565b634e487b7160e01b600052603260045260246000fd5b9060406003198301126122ca576004356001600160a01b03811681036122ca5791602435906001600160401b0382116122ca5761243291600401612317565b90565b6001600160401b0381116121745760051b60200190565b81601f820112156122ca5780359161246383612435565b9261247160405194856121a5565b808452602092838086019260051b8201019283116122ca578301905b82821061249b575050505090565b8135815290830190830161248d565b6020908160408183019282815285518094520193019160005b8281106124d1575050505090565b8351855293810193928101926001016124c3565b600e548110156123dd57600790600e600052027fbb7b4a454dc3493923482f07822329ed19e8244eff582cc204f8554c3620c3fd0190600090565b908060209392818452848401376000828201840152601f01601f1916010190565b90600090815480156127455783156126f157341515806126e9575b1561269557348403612658576125729084612781565b9061257e8215156127a1565b825b83548110156126045783808080866125978661281e565b905460039190911b1c6001600160a01b03165af16125b361286c565b50156125c7576125c2906127f9565b612580565b60405162461bcd60e51b8152602060048201526015602482015274115d1a195c881d1c985b9cd9995c8819985a5b1959605a1b6044820152606490fd5b50927f5e1d21dcfda4f76cd32994c09b67a7cd04e48267cd319846e7af93569afff7a9925060a091506040519030825260606020830152600560608301526422aa2422a960d91b60808301526040820152a1565b60405162461bcd60e51b815260206004820152601560248201527408ae8d0cae440c2dadeeadce840dad2e6dac2e8c6d605b1b6044820152606490fd5b60405162461bcd60e51b815260206004820152602660248201527f496e76616c696420746f6b656e206164647265737320666f72204552433230206044820152651c995dd85c9960d21b6064820152608490fd5b50600161255c565b60405162461bcd60e51b815260206004820152602660248201527f546f6b656e20616d6f756e74206d7573742062652067726561746572207468616044820152656e207a65726f60d01b6064820152608490fd5b60405162461bcd60e51b8152602060048201526014602482015273139bc81b595b58995c9cc81d1bc81c995dd85c9960621b6044820152606490fd5b811561278b570490565b634e487b7160e01b600052601260045260246000fd5b156127a857565b60405162461bcd60e51b8152602060048201526024808201527f496e73756666696369656e7420616d6f756e7420666f722064697374726962756044820152633a34b7b760e11b6064820152608490fd5b60001981146128085760010190565b634e487b7160e01b600052601160045260246000fd5b906000918254811015610ac4578280527f290decd9548b62a8d60345a988386fc84ba6bc95484008f6362f93160ef3e563019190565b80548210156123dd5760005260206000200190600090565b3d15612897573d9061287d826122fc565b9161288b60405193846121a5565b82523d6000602084013e565b606090565b156128a357565b60405162461bcd60e51b815260206004820152602960248201527f52657175657374207375626d69747465642062792061206e6f6e2d6d656d626560448201526872206164647265737360b81b6064820152608490fd5b818110612905575050565b600081556001016128fa565b9190601f811161292057505050565b612204926000526020600020906020601f840160051c8301931061179e57601f0160051c01906128fa565b906000929180549161295c8361211f565b9182825260019384811690816000146129be575060011461297e575b50505050565b90919394506000526020928360002092846000945b8386106129aa575050505001019038808080612978565b805485870183015294019385908201612993565b9294505050602093945060ff191683830152151560051b01019038808080612978565b9190820180921161280857565b8181029291811591840414171561280857565b91818110612a0e57505050565b61220492600052602060002091820191016128fa565b929190612a3084612e9a565b604051612a3c81612159565b338152602081019186835260408201908152606082018481526080830191868352600060a08501524260c0850152612a76866011546129e1565b601155600e5490600160401b918281101561217457806001612a9b9201600e556124e5565b969096612e3e57855187546001600160a01b0319166001600160a01b0391909116178755516001870155518051916002870191906001600160401b03841161217457831161217457602090612af584845481865585612a01565b0190600052602060002060005b838110612e2a5750505050516003840155518051906001600160401b03821161217457612b3f82612b36600487015461211f565b60048701612911565b602090601f8311600114612db55791806006949260c094600092612daa575b50508160011b916000199060031b1c19161760048501555b60ff60a08201511660ff196005860154161760058501550151910155600c548015908115612d9f575b50612d995760005b6001612bb2866123a2565b500154811015612cb257612be282612bd6836003612bcf8a6123a2565b5001612854565b90549060031b1c6129ee565b612bf1826002612bcf896123a2565b90549060031b1c90612c08836001612bcf8a6123a2565b905460039190911b1c6001600160a01b031691823b156122ca57600090604051938491630e2eb2b360e11b835260048301526024938483015260606044830152818381612c58606482018c61228f565b03925af18015612ca657612c77575b5050612c72906127f9565b612ba7565b6001600160401b038211612c925750604052612c7238612c67565b634e487b7160e01b60009081526041600452fd5b6040513d6000823e3d90fd5b5090506040519060608252600093600f54612ccc8161211f565b90816060860152600181169081600014612d775750600114612d1f575b509382917fdd769ef05d7f927a4b3cda8431196b9400f664392f76e581b77f9f64042487e69495602084015260408301520390a1565b600f60009081529195507f8d1108e10bcb7c27dddfc02ed9d693a074039d026cf4ea4240b40f7d581ac8025b818310612d6057505082016080019382612ce9565b805460808487010152602090920191600101612d4b565b60ff191660808681019190915291151560051b85019091019550839050612ce9565b50509050565b905084101538612b9f565b015190503880612b5e565b906004850160005260206000209160005b601f1985168110612e125750926006949260019260c09583601f19811610612df9575b505050811b016004850155612b76565b015160001960f88460031b161c19169055388080612de9565b91926020600181928685015181550194019201612dc6565b600190602084519401938184015501612b02565b634e487b7160e01b600052600060045260246000fd5b80518210156123dd5760209160051b010190565b90612e7282612435565b612e7f60405191826121a5565b8281528092612e90601f1991612435565b0190602036910137565b90604080516101a08101906001600160401b039181811083821117612174578352600c8152602092610180368584013781600c541561303557506000915b612ee1876123a2565b5060018091015484101561302c57612bcf9160006024612f15876002612f0c828f98612bcf8a6123a2565b989054976123a2565b9054875163f6adf7b160e01b8152600392831b9190911c600482015290959094859291839190881b1c6001600160a01b03165afa91821561302157600092612f90575b5091612f6a612f8492612f8a94613060565b90612f798682612bcf8d6123a2565b9054911b1c906130b9565b926127f9565b91612ed8565b9190913d8083833e612fa281836121a5565b8101908881830312610f6e57805190888211610a28570181601f82011215610f6e57805190612fd082612435565b93612fdd885195866121a5565b8285528a8086019360051b83010193841161049b575089809101915b838310613011575092939250612f6a9150612f589050565b82518152918101918a9101612ff9565b84513d6000823e3d90fd5b50955050505050565b9495505050505060105461305c61305561304f8385612e54565b516127f9565b9183612e54565b5290565b91909161306d8151612e68565b9060005b81518110156130b2578061309d61308b6130ad9385612e54565b516130968389612e54565b51906129e1565b6130a78286612e54565b526127f9565b613071565b5090925050565b9190916130c68151612e68565b9060005b81518110156130b2578061309d866130e56130eb9486612e54565b516129ee565b6130ca56fea2646970667358221220d57a32c74fe1a5e0029b17f82eb7e42f719100aa9a51e28454c517a07dec048e64736f6c63430008140033",
  "linkReferences": {},
  "deployedLinkReferences": {}
}