{
  "_format": "hh-sol-artifact-1",
  "contractName": "Zoned",
  "sourceName": "contracts/Zoned.sol",
  "abi": [
    {
      "inputs": [
        {
          "internalType": "address",
          "name": "_creator",
          "type": "address"
        },
        {
          "internalType": "string",
          "name": "_name",
          "type": "string"
        },
        {
          "internalType": "uint256",
          "name": "_nzones",
          "type": "uint256"
        }
      ],
      "stateMutability": "nonpayable",
      "type": "constructor"
    },
    {
      "anonymous": false,
      "inputs": [
        {
          "indexed": false,
          "internalType": "address",
          "name": "member",
          "type": "address"
        },
        {
          "indexed": false,
          "internalType": "string",
          "name": "name",
          "type": "string"
        }
      ],
      "name": "AddedMember",
      "type": "event"
    },
    {
      "anonymous": false,
      "inputs": [
        {
          "indexed": false,
          "internalType": "string",
          "name": "namefrom",
          "type": "string"
        },
        {
          "indexed": false,
          "internalType": "string",
          "name": "nameto",
          "type": "string"
        }
      ],
      "name": "ChangedName",
      "type": "event"
    },
    {
      "anonymous": false,
      "inputs": [
        {
          "indexed": false,
          "internalType": "address",
          "name": "holon",
          "type": "address"
        },
        {
          "indexed": false,
          "internalType": "string",
          "name": "token",
          "type": "string"
        },
        {
          "indexed": false,
          "internalType": "uint256",
          "name": "amount",
          "type": "uint256"
        }
      ],
      "name": "HolonRewarded",
      "type": "event"
    },
    {
      "anonymous": false,
      "inputs": [
        {
          "indexed": false,
          "internalType": "address",
          "name": "member",
          "type": "address"
        },
        {
          "indexed": false,
          "internalType": "string",
          "name": "name",
          "type": "string"
        }
      ],
      "name": "RemovedMember",
      "type": "event"
    },
    {
      "anonymous": false,
      "inputs": [
        {
          "indexed": true,
          "internalType": "address",
          "name": "member",
          "type": "address"
        },
        {
          "indexed": false,
          "internalType": "address",
          "name": "token",
          "type": "address"
        },
        {
          "indexed": false,
          "internalType": "uint256",
          "name": "amount",
          "type": "uint256"
        }
      ],
      "name": "RewardFailed",
      "type": "event"
    },
    {
      "stateMutability": "payable",
      "type": "fallback"
    },
    {
      "inputs": [],
      "name": "a",
      "outputs": [
        {
          "internalType": "uint256",
          "name": "",
          "type": "uint256"
        }
      ],
      "stateMutability": "view",
      "type": "function"
    },
    {
      "inputs": [
        {
          "internalType": "address",
          "name": "_memberaddress",
          "type": "address"
        },
        {
          "internalType": "string",
          "name": "_membername",
          "type": "string"
        }
      ],
      "name": "addMember",
      "outputs": [],
      "stateMutability": "nonpayable",
      "type": "function"
    },
    {
      "inputs": [
        {
          "internalType": "address",
          "name": "_parentaddress",
          "type": "address"
        }
      ],
      "name": "addParent",
      "outputs": [],
      "stateMutability": "nonpayable",
      "type": "function"
    },
    {
      "inputs": [
        {
          "internalType": "address",
          "name": "_memberaddress",
          "type": "address"
        },
        {
          "internalType": "uint256",
          "name": "_zone",
          "type": "uint256"
        }
      ],
      "name": "addToZone",
      "outputs": [],
      "stateMutability": "nonpayable",
      "type": "function"
    },
    {
      "inputs": [],
      "name": "b",
      "outputs": [
        {
          "internalType": "uint256",
          "name": "",
          "type": "uint256"
        }
      ],
      "stateMutability": "view",
      "type": "function"
    },
    {
      "inputs": [],
      "name": "c",
      "outputs": [
        {
          "internalType": "uint256",
          "name": "",
          "type": "uint256"
        }
      ],
      "stateMutability": "view",
      "type": "function"
    },
    {
      "inputs": [],
      "name": "calculateRewards",
      "outputs": [
        {
          "internalType": "uint256[]",
          "name": "",
          "type": "uint256[]"
        }
      ],
      "stateMutability": "view",
      "type": "function"
    },
    {
      "inputs": [
        {
          "internalType": "address",
          "name": "_address",
          "type": "address"
        },
        {
          "internalType": "string",
          "name": "_name",
          "type": "string"
        }
      ],
      "name": "changeName",
      "outputs": [],
      "stateMutability": "nonpayable",
      "type": "function"
    },
    {
      "inputs": [
        {
          "internalType": "address",
          "name": "_address",
          "type": "address"
        }
      ],
      "name": "changeOwner",
      "outputs": [],
      "stateMutability": "nonpayable",
      "type": "function"
    },
    {
      "inputs": [],
      "name": "creator",
      "outputs": [
        {
          "internalType": "address",
          "name": "",
          "type": "address"
        }
      ],
      "stateMutability": "view",
      "type": "function"
    },
    {
      "inputs": [],
      "name": "flavor",
      "outputs": [
        {
          "internalType": "string",
          "name": "",
          "type": "string"
        }
      ],
      "stateMutability": "view",
      "type": "function"
    },
    {
      "inputs": [],
      "name": "getSize",
      "outputs": [
        {
          "internalType": "uint256",
          "name": "",
          "type": "uint256"
        }
      ],
      "stateMutability": "view",
      "type": "function"
    },
    {
      "inputs": [
        {
          "internalType": "address",
          "name": "",
          "type": "address"
        }
      ],
      "name": "isMember",
      "outputs": [
        {
          "internalType": "bool",
          "name": "",
          "type": "bool"
        }
      ],
      "stateMutability": "view",
      "type": "function"
    },
    {
      "inputs": [],
      "name": "listMembers",
      "outputs": [
        {
          "internalType": "address payable[]",
          "name": "",
          "type": "address[]"
        }
      ],
      "stateMutability": "view",
      "type": "function"
    },
    {
      "inputs": [],
      "name": "listParents",
      "outputs": [
        {
          "internalType": "address[]",
          "name": "",
          "type": "address[]"
        }
      ],
      "stateMutability": "view",
      "type": "function"
    },
    {
      "inputs": [],
      "name": "manifest",
      "outputs": [
        {
          "internalType": "string",
          "name": "",
          "type": "string"
        }
      ],
      "stateMutability": "view",
      "type": "function"
    },
    {
      "inputs": [],
      "name": "name",
      "outputs": [
        {
          "internalType": "string",
          "name": "",
          "type": "string"
        }
      ],
      "stateMutability": "view",
      "type": "function"
    },
    {
      "inputs": [
        {
          "internalType": "string",
          "name": "_flavor",
          "type": "string"
        },
        {
          "internalType": "string",
          "name": "_name",
          "type": "string"
        },
        {
          "internalType": "uint256",
          "name": "_parameter",
          "type": "uint256"
        }
      ],
      "name": "newHolon",
      "outputs": [
        {
          "internalType": "address",
          "name": "",
          "type": "address"
        }
      ],
      "stateMutability": "nonpayable",
      "type": "function"
    },
    {
      "inputs": [],
      "name": "nzones",
      "outputs": [
        {
          "internalType": "uint256",
          "name": "",
          "type": "uint256"
        }
      ],
      "stateMutability": "view",
      "type": "function"
    },
    {
      "inputs": [
        {
          "internalType": "address",
          "name": "_memberaddress",
          "type": "address"
        }
      ],
      "name": "removeMember",
      "outputs": [],
      "stateMutability": "nonpayable",
      "type": "function"
    },
    {
      "inputs": [
        {
          "internalType": "address",
          "name": "_tokenaddress",
          "type": "address"
        },
        {
          "internalType": "uint256",
          "name": "_tokenamount",
          "type": "uint256"
        }
      ],
      "name": "reward",
      "outputs": [],
      "stateMutability": "payable",
      "type": "function"
    },
    {
      "inputs": [
        {
          "internalType": "uint256",
          "name": "",
          "type": "uint256"
        }
      ],
      "name": "rewards",
      "outputs": [
        {
          "internalType": "uint256",
          "name": "",
          "type": "uint256"
        }
      ],
      "stateMutability": "view",
      "type": "function"
    },
    {
      "inputs": [
        {
          "internalType": "string",
          "name": "_IPFSHash",
          "type": "string"
        }
      ],
      "name": "setManifest",
      "outputs": [],
      "stateMutability": "nonpayable",
      "type": "function"
    },
    {
      "inputs": [
        {
          "internalType": "uint256",
          "name": "_a",
          "type": "uint256"
        },
        {
          "internalType": "uint256",
          "name": "_b",
          "type": "uint256"
        },
        {
          "internalType": "uint256",
          "name": "_c",
          "type": "uint256"
        }
      ],
      "name": "setRewardFunction",
      "outputs": [],
      "stateMutability": "nonpayable",
      "type": "function"
    },
    {
      "inputs": [
        {
          "internalType": "string",
          "name": "",
          "type": "string"
        }
      ],
      "name": "toAddress",
      "outputs": [
        {
          "internalType": "address",
          "name": "",
          "type": "address"
        }
      ],
      "stateMutability": "view",
      "type": "function"
    },
    {
      "inputs": [
        {
          "internalType": "address",
          "name": "",
          "type": "address"
        }
      ],
      "name": "toName",
      "outputs": [
        {
          "internalType": "string",
          "name": "",
          "type": "string"
        }
      ],
      "stateMutability": "view",
      "type": "function"
    },
    {
      "inputs": [],
      "name": "version",
      "outputs": [
        {
          "internalType": "string",
          "name": "",
          "type": "string"
        }
      ],
      "stateMutability": "view",
      "type": "function"
    },
    {
      "inputs": [
        {
          "internalType": "address",
          "name": "",
          "type": "address"
        }
      ],
      "name": "zone",
      "outputs": [
        {
          "internalType": "uint256",
          "name": "",
          "type": "uint256"
        }
      ],
      "stateMutability": "view",
      "type": "function"
    },
    {
      "inputs": [
        {
          "internalType": "uint256",
          "name": "",
          "type": "uint256"
        },
        {
          "internalType": "uint256",
          "name": "",
          "type": "uint256"
        }
      ],
      "name": "zonemembers",
      "outputs": [
        {
          "internalType": "address",
          "name": "",
          "type": "address"
        }
      ],
      "stateMutability": "view",
      "type": "function"
    },
    {
      "stateMutability": "payable",
      "type": "receive"
    }
  ],
  "bytecode": "0x604060808152346200051c5762002da8803803806200001e8162000521565b9283398101906060818303126200051c5780516001600160a01b038116908190036200051c576020828101516001600160401b0393919291908481116200051c57810191601f918683850112156200051c5783518681116200028857601f19946200008f8286018716880162000521565b98828a528783830101116200051c57899291879160005b82811062000504575050906000918a01015201519260018060a01b0319963288600254161760025580519187831162000288578291620000e860075462000547565b868111620004c6575b5087918684116001146200045b57506000926200044f575b50508160011b916000199060031b1c1916176007555b85600a541617600a556200013560095462000547565b8181116200042b575b5050600a64169bdb995960da1b0160095580600f55326000526011908183528086600020556000526010825284600020938454906801000000000000000091828110156200028857600196878201808255821015620004155760005284600020019032908254161790556000600b556000600c5584600d5532600052818352856000205491600f54809303620003b85786519060e08201828110878211176200028857885260068252868583019460c036873760009082905b80821115620003255750506000915b6200029e575b50505051938411620002885783116200028857600e5483600e5580841062000267575b5090600e600052806000209060005b848110620002555786516127b19081620005f78239f35b8351838201559281019285016200023e565b6200028190600e6000528484600020918201910162000584565b386200022f565b634e487b7160e01b600052604160045260246000fd5b83518210156200031f57620002b48285620005e1565b51612710908181029181830414901517156200030a578115620002f457899282620002ed9204620002e68288620005e1565b52620005c3565b9162000206565b634e487b7160e01b600052601260045260246000fd5b83634e487b7160e01b60005260045260246000fd5b6200020c565b9190925062000334836200059d565b83810290808204851490151715620003a3576200035d9062000356856200059d565b90620005d3565b8a8101809111620003a3576200039a9162000393916200037e8689620005e1565b526200038b8588620005e1565b5190620005d3565b92620005c3565b899291620001f7565b84634e487b7160e01b60005260045260246000fd5b865162461bcd60e51b815260048101859052603060248201527f6f6e6c7920636f7265206d656d626572732063616e206368616e67652074686560448201526f103932bbb0b93210333ab731ba34b7b760811b6064820152608490fd5b634e487b7160e01b600052603260045260246000fd5b6200044791600960005284600020910160051c81019062000584565b38806200013e565b01519050388062000109565b909216916007600052876000209260005b89828210620004af57505090846001959493921062000495575b505050811b016007556200011f565b015160001960f88460031b161c1916905538808062000486565b60018596829396860151815501950193016200046c565b620004f3906007600052896000208880870160051c8201928c8810620004fa575b0160051c019062000584565b38620000f1565b92508192620004e7565b8181018401518c82018501528c9550899301620000a6565b600080fd5b6040519190601f01601f191682016001600160401b038111838210176200028857604052565b90600182811c9216801562000579575b60208310146200056357565b634e487b7160e01b600052602260045260246000fd5b91607f169162000557565b81811062000590575050565b6000815560010162000584565b906000911560011715620005ad57565b634e487b7160e01b600052601160045260246000fd5b6000198114620005ad5760010190565b91908201809211620005ad57565b8051821015620004155760209160051b01019056fe608080604052600436101561067c575b5036156103cd5760003481811515806103c5575b156102fe57506001915b60019182805b61003957005b600f90815481116102fc57849181600052601090602091808352604060002054610070575b50505061006a9061255d565b90610033565b856100a56127106100916100838861240c565b949054600395861b1c612638565b048660005283865260406000205490612618565b918215156000885b6100bb575b5050505061005e565b909192939495968098506000528287528a8a8d60406000209081548510156102f2578a91899187610104575b5050505050906100f69061255d565b8198979695949392916100ad565b869495506000146101955750505050508760005282875260008080808861012e8660408420612443565b9054908a1b1c6001600160a01b03165af161014761252d565b5015610160576100f68b915b9190508a88878f806100e7565b606487876040519162461bcd60e51b8352600483015260248201526e151c985b9cd9995c8819985a5b1959608a1b6044820152fd5b6101e4936101a291612443565b905460405163a9059cbb60e01b8152918a1b1c6001600160a01b0390811660048301526024820192909252909390928391908290600090879083906044820190565b0393165af180156102e6576102ae575b508860005283885261020a826040600020612443565b905490861b1c16604051906000808a8401926310b3879160e11b84526024938285870152826044968c8882015287815261024381612257565b51925af161024f61252d565b50156102615750506100f68b91610153565b7f556e61626c6520746f2063616c6c20746865207265776172642066756e63746960849260228b936040519462461bcd60e51b865260048601528401528201526137b760f11b6064820152fd5b8881813d83116102df575b6102c38183612272565b810103126102da5751801515036102da57386101f4565b600080fd5b503d6102b9565b6040513d6000823e3d90fd5b50505097966100b2565b005b8092506040516370a0823160e01b8152306004820152602081602481875afa80156103ba5783918591610382575b50101561002d5760405162461bcd60e51b815260206004820152602160248201527f4e6f7420656e6f75676820746f6b656e7320696e2074686520636f6e747261636044820152601d60fa1b6064820152608490fd5b9150506020813d82116103b2575b8161039d60209383612272565b810103126103ae578290513861032c565b8380fd5b3d9150610390565b6040513d86823e3d90fd5b506001610023565b6000348181151580610674575b156105bc57506001915b60019182805b6103f057005b600f90815481116102fc57849181600052601090602091808352604060002054610427575b5050506104219061255d565b906103ea565b8561043a6127106100916100838861240c565b918215156000885b610450575b50505050610415565b909192939495968098506000528287528a8a8d60406000209081548510156105b2578a91899187610499575b50505050509061048b9061255d565b819897969594939291610442565b869495506000146104f5575050505050876000528287526000808080886104c38660408420612443565b9054908a1b1c6001600160a01b03165af16104dc61252d565b50156101605761048b8b915b9190508a88878f8061047c565b610502936101a291612443565b0393165af180156102e65761057f575b5088600052838852610528826040600020612443565b905490861b1c16604051906000808a8401926310b3879160e11b84526024938285870152826044968c8882015287815261056181612257565b51925af161056d61252d565b501561026157505061048b8b916104e8565b8881813d83116105ab575b6105948183612272565b810103126102da5751801515036102da5738610512565b503d61058a565b5050509796610447565b8092506040516370a0823160e01b8152306004820152602081602481875afa80156103ba5783918591610640575b5010156103e45760405162461bcd60e51b815260206004820152602160248201527f4e6f7420656e6f75676820746f6b656e7320696e2074686520636f6e747261636044820152601d60fa1b6064820152608490fd5b9150506020813d821161066c575b8161065b60209383612272565b810103126103ae57829051386105ea565b3d915061064e565b5060016103da565b60003560e01c90816302d05d3f146121de5750806306fdde03146121385780630b1ca49a14611f1c5780630babba8614611e1b5780630dbe671f14611dfd5780630f9fd88714611cb557806321670f221461191857806329b84d09146117615780633113a2ae146116a157806333d6e65f146116835780633e50de301461162757806345ca25ed146114205780634df7e3d01461140257806354fd4d501461135c57806361c72e51146111385780637e4115ba146110d057806381bc3f8c14610fed5780638306071b14610fb3578063a230c52414610f74578063a6f9dae114610eec578063acf36e5314610e5e578063b6afd2ca14610d97578063c127c24714610a19578063c3da42b8146109fb578063de8fa431146109dd578063ead625201461098b578063f301af4214610954578063f59e4f65146108ae5763f5baf0d7146107c8573861000f565b346102da5760003660031901126102da5760405160006003546107ea81612202565b80845290600190818116908115610887575060011461082c575b6108288461081481860382612272565b6040519182916020835260208301906122b6565b0390f35b6003600090815292507fc2575a0e9e593c00f959f8c92f12db2869c3395a3b0502d05e2516446f71f85b5b82841061086f57505050810160200161081482610804565b80546020858701810191909152909301928101610857565b60ff191660208087019190915292151560051b850190920192506108149150839050610804565b346102da5760003660031901126102da5760405160006009546108d081612202565b8084529060019081811690811561088757506001146108f9576108288461081481860382612272565b6009600090815292507f6e1540171b6c0c960b71a7020d9f60077f6af931a8bbf590da0223dacf75c7af5b82841061093c57505050810160200161081482610804565b80546020858701810191909152909301928101610924565b346102da5760203660031901126102da57600435600e548110156102da5761097d60209161240c565b90546040519160031b1c8152f35b346102da5760403660031901126102da576024356004356000526010602052604060002080548210156102da576020916109c491612443565b905460405160039290921b1c6001600160a01b03168152f35b346102da5760003660031901126102da576020600054604051908152f35b346102da5760003660031901126102da576020600d54604051908152f35b346102da57610a2736612380565b9033600052602090600482526001908160ff604060002054161515148015610d83575b610a539061247c565b6001600160a01b0381811660008181526004865260409020549093919060ff16610d4757604051908651918681818a0194610a8f818388612293565b810160058152030190205416610d0a57600054600160401b811015610cf457610ade610ac182858894016000556123c2565b819391549060031b9160018060a01b03809116831b921b19161790565b9055836000526006855260406000208651916001600160401b038311610cf45781610b1484610b0e8a9554612202565b836124f1565b8293601f8111600114610c8d5780610b5295600091610c82575b50600019600383901b1c191690861b1790555b604051809381928a51928391612293565b81016005815203019020836001600160601b0360a01b825416179055826000526004845260406000209060ff1982541617905560405160008085830163acf36e5360e01b9384825230602482015260248152610bad8161223c565b5190855afa610bba61252d565b50610c02575b5050610bfd7f7c803c00251fe8138e27cfa8286be8d98625e5f6476ca6ca594f682362b711209360408051948594855284015260408301906122b6565b0390a1005b60009182918260405187810192835230602482015260248152610c248161223c565b51925af1610c3061252d565b5015610c3d578380610bc0565b60405162461bcd60e51b815260048101839052601760248201527f4661696c656420746f2063726561746520706172656e740000000000000000006044820152606490fd5b90508a01518b610b2e565b60008281528481208b96889392601f198416905b818110610cda5750610b5298508311610cc1575b5050811b019055610b41565b8c015160001960f88460031b161c191690558b80610cb5565b9882015183558d988d988b96909401939283019201610ca1565b634e487b7160e01b600052604160045260246000fd5b60405162461bcd60e51b81526004810186905260156024820152742730b6b29034b99030b63932b0b23c903a30b5b2b760591b6044820152606490fd5b60405162461bcd60e51b815260048101869052601460248201527313595b58995c88185b1c9958591e48185919195960621b6044820152606490fd5b506002546001600160a01b03163314610a4a565b346102da5760003660031901126102da576040518060005480835260208093018091600080527f290decd9548b62a8d60345a988386fc84ba6bc95484008f6362f93160ef3e5639060005b86828210610e41578686610df882880383612272565b604051928392818401908285525180915260408401929160005b828110610e2157505050500390f35b83516001600160a01b031685528695509381019392810192600101610e12565b83546001600160a01b031685529093019260019283019201610de2565b346102da5760203660031901126102da57610e776122db565b600154600160401b811015610cf4576001810180600155811015610ed6577fb10e2d527612073b26eecdfd717e6a320cf44b4afac2b0732d9fcbe2b7fa0cf60180546001600160a01b0319166001600160a01b03909216919091179055005b634e487b7160e01b600052603260045260246000fd5b346102da5760203660031901126102da57610f056122db565b600254906001600160a01b03908183163303610f2f576001600160a01b0319909216911617600255005b60405162461bcd60e51b815260206004820152601f60248201527f4f6e6c79206f776e65722063616e206368616e676520746865206f776e6572006044820152606490fd5b346102da5760203660031901126102da576001600160a01b03610f956122db565b166000526004602052602060ff604060002054166040519015158152f35b346102da5760203660031901126102da576001600160a01b03610fd46122db565b1660005260116020526020604060002054604051908152f35b346102da576020806003193601126102da576001600160a01b0361100f6122db565b166000526006815260406000209060405191826000825461102f81612202565b938484526001918683821691826000146110ae57505060011461106f575b505061105b92500383612272565b6108286040519282849384528301906122b6565b85925060005281600020906000915b85831061109657505061105b9350820101858061104d565b8054838901850152879450869390920191810161107e565b925093505061105b94915060ff191682840152151560051b820101858061104d565b346102da5760203660031901126102da576004356001600160401b0381116102da576111026020913690600401612339565b816111166040519283815193849201612293565b600590820190815281900382019020546040516001600160a01b039091168152f35b346102da5760403660031901126102da576111516122db565b60248035903360005260119160209083825280604060002054106112fb576001600160a01b0394851660008181528584526040902054909490806111e8575b5084601094959650600052825280604060002055600052526040600020805491600160401b8310156111d4575081610ac19160016111d094018155612443565b9055005b634e487b7160e01b60009081526041600452fd5b949392919060005b86600052601080855288604060002080548410156112ed57611213848a92612443565b929054600393841b1c161461123257505061122d9061255d565b6111f0565b8860009994959697989993929352828752604060002080549060001982019182116112d957610ac19261126a61128195938e93612443565b9054911b1c16938560005288526040600020612443565b90555b6000526010835260406000209586549687156112c457601095969760001901916112ae8383612443565b909182549160031b1b1916905555859493611190565b85634e487b7160e01b60005260316004526000fd5b8987634e487b7160e01b6000526004526000fd5b505050509091929394611284565b5060356084926040519262461bcd60e51b845260048401528201527f6d656d6265727320696e206c6f776572207a6f6e65732063616e6e6f742070726044820152746f6d6f746520746f20686967686572207a6f6e657360581b6064820152fd5b346102da5760003660031901126102da57604051600060085461137e81612202565b8084529060019081811690811561088757506001146113a7576108288461081481860382612272565b6008600090815292507ff3f7a9fe364faab93b216da50a3214154f22a0a2b415b23a84c8169e8b636ee35b8284106113ea57505050810160200161081482610804565b805460208587018101919091529093019281016113d2565b346102da5760003660031901126102da576020600c54604051908152f35b346102da5761142e36612380565b906001600160a01b0390811690338214908115611619575b508015611610575b156115b057604051908183516020938161146c869383858a01612293565b81016005815203019020816001600160601b0360a01b82541617905580600052600682527ffdcc9059d3426f73949b49e5d977553aa298184439da800d66f48959d9cc76b06114d060406000206114dd604051928392604084526040840190612582565b82810387840152876122b6565b0390a1600052600681526040600020908251906001600160401b038211610cf4576115128261150c8554612202565b856124f1565b80601f831160011461154d5750819293600092611542575b5050600019600383901b1c191660019190911b179055005b01519050838061152a565b90601f198316948460005282600020926000905b87821061159857505083600195961061157f575b505050811b019055005b015160001960f88460031b161c19169055838080611575565b80600185968294968601518155019501930190611561565b60405162461bcd60e51b815260206004820152603260248201527f4e616d65206368616e67652072657175657374206e6f742073656e742066726f604482015271369036b2b6b132b9103737b91037bbb732b960711b6064820152608490fd5b5032811461144e565b905060025416331483611446565b346102da5760003660031901126102da5761164061266c565b604051809160208083018184528251809152816040850193019160005b82811061166c57505050500390f35b83518552869550938101939281019260010161165d565b346102da5760003660031901126102da576020600f54604051908152f35b346102da5760003660031901126102da5760405180600180549283815260208091018094836000527fb10e2d527612073b26eecdfd717e6a320cf44b4afac2b0732d9fcbe2b7fa0cf69060005b8181106117455750505083611704910384612272565b60405192818401908285525180915260408401949160005b8281106117295785870386f35b83516001600160a01b031687529581019592810192840161171c565b82546001600160a01b03168452928401929185019185016116ee565b346102da576020806003193601126102da576001600160401b036004358181116102da576117939036906004016122f1565b6002549092906001600160a01b031633036118d3578211610cf4576117b9600354612202565b601f811161187f575b50600092601f831160011461180257509181926000926117f7575b50508160011b916000199060031b1c191617600355600080f35b0135905082806117dd565b601f198316937fc2575a0e9e593c00f959f8c92f12db2869c3395a3b0502d05e2516446f71f85b92916000905b868210611867575050836001951061184d575b505050811b01600355005b0135600019600384901b60f8161c19169055828080611842565b8060018496829495870135815501950192019061182f565b6118c3907fc2575a0e9e593c00f959f8c92f12db2869c3395a3b0502d05e2516446f71f85b601f850160051c8101918686106118c9575b601f0160051c01906124da565b836117c2565b90915081906118b6565b60405162461bcd60e51b815260048101859052601f60248201527f4f6e6c79206f776e65722063616e2073657420746865206d616e6966657374006044820152606490fd5b60403660031901126102da5761192c6122db565b6000908160243534151580611ca4575b15611bde57505034906001925b60015b600f5481116102fc57806000526010602052604060002054611977575b6119729061255d565b61194c565b906119b061271061199a8661198e8698979861240c565b90549060031b1c612638565b0483600052601060205260406000205490612618565b9260005b83600052601060205260406000208054821015611bd357856119e0575b506119db9061255d565b6119b4565b81868915611a6b57505050836000526010602052600080808088611a078660408420612443565b905460039190911b1c6001600160a01b03165af1611a2361252d565b5015611a34576119db905b906119d1565b60405162461bcd60e51b815260206004820152600f60248201526e151c985b9cd9995c8819985a5b1959608a1b6044820152606490fd5b611a7a602092611ab294612443565b905460405163a9059cbb60e01b815260039290921b1c6001600160a01b03166004820152602481019190915291829081906044820190565b038160006001600160a01b0389165af180156102e657611b9b575b50836000526010602052600080611ae78360408320612443565b90546040516310b3879160e11b602082019081526001600160a01b038c8116602484015260448084018d9052835260039490941b9290921c909216918390611b30606482612272565b51925af1611b3c61252d565b5015611b4b576119db90611a2e565b60405162461bcd60e51b815260206004820152602260248201527f556e61626c6520746f2063616c6c20746865207265776172642066756e63746960448201526137b760f11b6064820152608490fd5b6020813d602011611bcb575b81611bb460209383612272565b810103126102da5751801515036102da5787611acd565b3d9150611ba7565b505093925090611969565b6040516370a0823160e01b815230600482015291935091906001600160a01b03821690602081602481855afa80156102e6578491600091611c70575b5010156119495760405162461bcd60e51b815260206004820152602160248201527f4e6f7420656e6f75676820746f6b656e7320696e2074686520636f6e747261636044820152601d60fa1b6064820152608490fd5b9150506020813d8211611c9c575b81611c8b60209383612272565b810103126102da5783905186611c1a565b3d9150611c7e565b506001600160a01b0383161561193c565b346102da5760603660031901126102da5732600052602060118152604060002054600f5403611da057600435600b55602435600c55604435600d55611cf861266c565b8051906001600160401b038211610cf457600160401b8211610cf4578290600e5483600e55808410611d6a575b5001600e60005260005b828110611d3857005b81517fbb7b4a454dc3493923482f07822329ed19e8244eff582cc204f8554c3620c3fd82015590830190600101611d2f565b611d9a90847fbb7b4a454dc3493923482f07822329ed19e8244eff582cc204f8554c3620c3fd91820191016124da565b84611d25565b6084906040519062461bcd60e51b82526004820152603060248201527f6f6e6c7920636f7265206d656d626572732063616e206368616e67652074686560448201526f103932bbb0b93210333ab731ba34b7b760811b6064820152fd5b346102da5760003660031901126102da576020600b54604051908152f35b346102da576003196060368201126102da576001600160401b036004358181116102da57611e4d9036906004016122f1565b91906024359182116102da576000611ea891611e6f60209436906004016122f1565b929095611eb760018060a01b039889600a541695604051998a98899788966305d5dd4360e11b885260606004890152606488019161245b565b9285840301602486015261245b565b604435604483015203925af19081156102e657600091611edf575b5060209160405191168152f35b90506020813d8211611f14575b81611ef960209383612272565b810103126102da57519080821682036102da57906020611ed2565b3d9150611eec565b346102da576020806003193601126102da57611f366122db565b60025490916001600160a01b0391611f51908316331461247c565b8160009316925b6000548082101561213057839085611f6f846123c2565b939054600394851b1c1614611f8e575050611f899061255d565b611f58565b84611fae92611fa2610ac1939796976123c2565b9054911b1c16926123c2565b90555b600054801561211a576000190190611fc8826123c2565b909182549160031b1b19169055600055816000526004815260406000209160ff1992838154169055600682527f982d6fac85d22cbbe833f9fe4278a909ca0f3b24ecc8b1f10fe63736e3c7231361203660406000206040519182918583526040878401526040830190612582565b0390a180600052600682526040600020926040519360009181549161205a83612202565b926001928382169182156121035750506001146120d0575b50505092828185600560009752030190206001600160601b0360a01b815416905582526006815260408220906120a88254612202565b601f81116120b557505055005b601f6120cd928486528520910160051c8101906124da565b55005b6000908152858120929350915b8383106120f257505050830182846000612072565b8054878401529185019181016120dd565b168852505050801515028401905082846000612072565b634e487b7160e01b600052603160045260246000fd5b505090611fb1565b346102da5760003660031901126102da57604051600060075461215a81612202565b808452906001908181169081156108875750600114612183576108288461081481860382612272565b6007600090815292507fa66cc928b5edb82af9bd49922954155ab7b0942694bea4ce44661d9a8736c6885b8284106121c657505050810160200161081482610804565b805460208587018101919091529093019281016121ae565b346102da5760003660031901126102da57600a546001600160a01b03168152602090f35b90600182811c92168015612232575b602083101461221c57565b634e487b7160e01b600052602260045260246000fd5b91607f1691612211565b606081019081106001600160401b03821117610cf457604052565b608081019081106001600160401b03821117610cf457604052565b90601f801991011681019081106001600160401b03821117610cf457604052565b60005b8381106122a65750506000910152565b8181015183820152602001612296565b906020916122cf81518092818552858086019101612293565b601f01601f1916010190565b600435906001600160a01b03821682036102da57565b9181601f840112156102da578235916001600160401b0383116102da57602083818601950101116102da57565b6001600160401b038111610cf457601f01601f191660200190565b81601f820112156102da578035906123508261231e565b9261235e6040519485612272565b828452602083830101116102da57816000926020809301838601378301015290565b9060406003198301126102da576004356001600160a01b03811681036102da5791602435906001600160401b0382116102da576123bf91600401612339565b90565b9060009182548110156123f8578280527f290decd9548b62a8d60345a988386fc84ba6bc95484008f6362f93160ef3e563019190565b634e487b7160e01b83526032600452602483fd5b600e54811015610ed657600e6000527fbb7b4a454dc3493923482f07822329ed19e8244eff582cc204f8554c3620c3fd0190600090565b8054821015610ed65760005260206000200190600090565b908060209392818452848401376000828201840152601f01601f1916010190565b1561248357565b60405162461bcd60e51b815260206004820152602960248201527f52657175657374207375626d69747465642062792061206e6f6e2d6d656d626560448201526872206164647265737360b81b6064820152608490fd5b8181106124e5575050565b600081556001016124da565b9190601f811161250057505050565b61252b926000526020600020906020601f840160051c830193106118c957601f0160051c01906124da565b565b3d15612558573d9061253e8261231e565b9161254c6040519384612272565b82523d6000602084013e565b606090565b600019811461256c5760010190565b634e487b7160e01b600052601160045260246000fd5b906000929180549161259383612202565b9182825260019384811690816000146125f557506001146125b5575b50505050565b90919394506000526020928360002092846000945b8386106125e15750505050010190388080806125af565b8054858701830152940193859082016125ca565b9294505050602093945060ff191683830152151560051b010190388080806125af565b8115612622570490565b634e487b7160e01b600052601260045260246000fd5b8181029291811591840414171561256c57565b9190820180921161256c57565b8051821015610ed65760209160051b010190565b60405160e081018181106001600160401b03821117610cf4576040526006815260c03660208301376000600180600f54600b54600c54600d54915b83851115612715575050505050806000905b6126c4575b50505090565b8351811015612710576126d78185612658565b51906127109182810292818404149015171561256c576126fa8461270a93612618565b6127048287612658565b5261255d565b816126b9565b6126be565b909192939561276c612772916127508661274b61273b8c612736818a612638565b612638565b6127458d8a612638565b9061264b565b61264b565b61275a8a8c612658565b52612765898b612658565b519061264b565b9661255d565b939291906126a756fea26469706673582212207fff3e96b83a4e0f218ebe66eac46cfa89508f34767d8e9c42df0da368b8c24064736f6c63430008140033",
  "linkReferences": {},
  "deployedLinkReferences": {}
}