{
  "_format": "hh-sol-artifact-1",
  "contractName": "Geospatial",
  "sourceName": "contracts/Geospatial.sol",
  "abi": [
    {
      "inputs": [
        {
          "internalType": "address",
          "name": "_creator",
          "type": "address"
        },
        {
          "internalType": "string",
          "name": "_name",
          "type": "string"
        }
      ],
      "stateMutability": "nonpayable",
      "type": "constructor"
    },
    {
      "anonymous": false,
      "inputs": [
        {
          "indexed": false,
          "internalType": "address",
          "name": "member",
          "type": "address"
        },
        {
          "indexed": false,
          "internalType": "string",
          "name": "name",
          "type": "string"
        }
      ],
      "name": "AddedMember",
      "type": "event"
    },
    {
      "anonymous": false,
      "inputs": [
        {
          "indexed": false,
          "internalType": "string",
          "name": "namefrom",
          "type": "string"
        },
        {
          "indexed": false,
          "internalType": "string",
          "name": "nameto",
          "type": "string"
        }
      ],
      "name": "ChangedName",
      "type": "event"
    },
    {
      "anonymous": false,
      "inputs": [
        {
          "indexed": false,
          "internalType": "address",
          "name": "holon",
          "type": "address"
        },
        {
          "indexed": false,
          "internalType": "string",
          "name": "token",
          "type": "string"
        },
        {
          "indexed": false,
          "internalType": "uint256",
          "name": "amount",
          "type": "uint256"
        }
      ],
      "name": "HolonRewarded",
      "type": "event"
    },
    {
      "anonymous": false,
      "inputs": [
        {
          "indexed": false,
          "internalType": "address",
          "name": "member",
          "type": "address"
        },
        {
          "indexed": false,
          "internalType": "string",
          "name": "name",
          "type": "string"
        }
      ],
      "name": "RemovedMember",
      "type": "event"
    },
    {
      "anonymous": false,
      "inputs": [
        {
          "indexed": true,
          "internalType": "address",
          "name": "member",
          "type": "address"
        },
        {
          "indexed": false,
          "internalType": "address",
          "name": "token",
          "type": "address"
        },
        {
          "indexed": false,
          "internalType": "uint256",
          "name": "amount",
          "type": "uint256"
        }
      ],
      "name": "RewardFailed",
      "type": "event"
    },
    {
      "stateMutability": "payable",
      "type": "fallback"
    },
    {
      "inputs": [
        {
          "internalType": "string",
          "name": "_hex",
          "type": "string"
        }
      ],
      "name": "addMember",
      "outputs": [],
      "stateMutability": "nonpayable",
      "type": "function"
    },
    {
      "inputs": [
        {
          "internalType": "address",
          "name": "_memberaddress",
          "type": "address"
        },
        {
          "internalType": "string",
          "name": "_membername",
          "type": "string"
        }
      ],
      "name": "addMember",
      "outputs": [],
      "stateMutability": "nonpayable",
      "type": "function"
    },
    {
      "inputs": [
        {
          "internalType": "address",
          "name": "_parentaddress",
          "type": "address"
        }
      ],
      "name": "addParent",
      "outputs": [],
      "stateMutability": "nonpayable",
      "type": "function"
    },
    {
      "inputs": [
        {
          "internalType": "string",
          "name": "",
          "type": "string"
        }
      ],
      "name": "appreciation",
      "outputs": [
        {
          "internalType": "uint256",
          "name": "",
          "type": "uint256"
        }
      ],
      "stateMutability": "view",
      "type": "function"
    },
    {
      "inputs": [
        {
          "internalType": "address",
          "name": "_address",
          "type": "address"
        },
        {
          "internalType": "string",
          "name": "_name",
          "type": "string"
        }
      ],
      "name": "changeName",
      "outputs": [],
      "stateMutability": "nonpayable",
      "type": "function"
    },
    {
      "inputs": [
        {
          "internalType": "address",
          "name": "_address",
          "type": "address"
        }
      ],
      "name": "changeOwner",
      "outputs": [],
      "stateMutability": "nonpayable",
      "type": "function"
    },
    {
      "inputs": [
        {
          "internalType": "string",
          "name": "_hex",
          "type": "string"
        },
        {
          "internalType": "address",
          "name": "_beneficiary",
          "type": "address"
        }
      ],
      "name": "claim",
      "outputs": [],
      "stateMutability": "nonpayable",
      "type": "function"
    },
    {
      "inputs": [],
      "name": "creator",
      "outputs": [
        {
          "internalType": "address",
          "name": "",
          "type": "address"
        }
      ],
      "stateMutability": "view",
      "type": "function"
    },
    {
      "inputs": [
        {
          "internalType": "string",
          "name": "_hex",
          "type": "string"
        },
        {
          "internalType": "uint256",
          "name": "amount",
          "type": "uint256"
        }
      ],
      "name": "depositEtherForUser",
      "outputs": [],
      "stateMutability": "payable",
      "type": "function"
    },
    {
      "inputs": [
        {
          "internalType": "string",
          "name": "_hex",
          "type": "string"
        },
        {
          "internalType": "address",
          "name": "_tokenAddress",
          "type": "address"
        },
        {
          "internalType": "uint256",
          "name": "_amount",
          "type": "uint256"
        }
      ],
      "name": "depositTokenForUser",
      "outputs": [],
      "stateMutability": "nonpayable",
      "type": "function"
    },
    {
      "inputs": [
        {
          "internalType": "string",
          "name": "",
          "type": "string"
        }
      ],
      "name": "etherBalance",
      "outputs": [
        {
          "internalType": "uint256",
          "name": "",
          "type": "uint256"
        }
      ],
      "stateMutability": "view",
      "type": "function"
    },
    {
      "inputs": [],
      "name": "flavor",
      "outputs": [
        {
          "internalType": "string",
          "name": "",
          "type": "string"
        }
      ],
      "stateMutability": "view",
      "type": "function"
    },
    {
      "inputs": [],
      "name": "getSize",
      "outputs": [
        {
          "internalType": "uint256",
          "name": "",
          "type": "uint256"
        }
      ],
      "stateMutability": "view",
      "type": "function"
    },
    {
      "inputs": [
        {
          "internalType": "string",
          "name": "",
          "type": "string"
        }
      ],
      "name": "hasClaimed",
      "outputs": [
        {
          "internalType": "bool",
          "name": "",
          "type": "bool"
        }
      ],
      "stateMutability": "view",
      "type": "function"
    },
    {
      "inputs": [
        {
          "internalType": "string",
          "name": "",
          "type": "string"
        }
      ],
      "name": "hexToAddress",
      "outputs": [
        {
          "internalType": "address",
          "name": "",
          "type": "address"
        }
      ],
      "stateMutability": "view",
      "type": "function"
    },
    {
      "inputs": [
        {
          "internalType": "uint256",
          "name": "",
          "type": "uint256"
        }
      ],
      "name": "hexs",
      "outputs": [
        {
          "internalType": "string",
          "name": "",
          "type": "string"
        }
      ],
      "stateMutability": "view",
      "type": "function"
    },
    {
      "inputs": [
        {
          "internalType": "address",
          "name": "",
          "type": "address"
        }
      ],
      "name": "isMember",
      "outputs": [
        {
          "internalType": "bool",
          "name": "",
          "type": "bool"
        }
      ],
      "stateMutability": "view",
      "type": "function"
    },
    {
      "inputs": [],
      "name": "listMembers",
      "outputs": [
        {
          "internalType": "address payable[]",
          "name": "",
          "type": "address[]"
        }
      ],
      "stateMutability": "view",
      "type": "function"
    },
    {
      "inputs": [],
      "name": "listParents",
      "outputs": [
        {
          "internalType": "address[]",
          "name": "",
          "type": "address[]"
        }
      ],
      "stateMutability": "view",
      "type": "function"
    },
    {
      "inputs": [],
      "name": "manifest",
      "outputs": [
        {
          "internalType": "string",
          "name": "",
          "type": "string"
        }
      ],
      "stateMutability": "view",
      "type": "function"
    },
    {
      "inputs": [],
      "name": "name",
      "outputs": [
        {
          "internalType": "string",
          "name": "",
          "type": "string"
        }
      ],
      "stateMutability": "view",
      "type": "function"
    },
    {
      "inputs": [
        {
          "internalType": "string",
          "name": "_flavor",
          "type": "string"
        },
        {
          "internalType": "string",
          "name": "_name",
          "type": "string"
        },
        {
          "internalType": "uint256",
          "name": "_parameter",
          "type": "uint256"
        }
      ],
      "name": "newHolon",
      "outputs": [
        {
          "internalType": "address",
          "name": "",
          "type": "address"
        }
      ],
      "stateMutability": "nonpayable",
      "type": "function"
    },
    {
      "inputs": [
        {
          "internalType": "address",
          "name": "_memberaddress",
          "type": "address"
        }
      ],
      "name": "removeMember",
      "outputs": [],
      "stateMutability": "nonpayable",
      "type": "function"
    },
    {
      "inputs": [
        {
          "internalType": "address",
          "name": "_tokenaddress",
          "type": "address"
        },
        {
          "internalType": "uint256",
          "name": "_tokenamount",
          "type": "uint256"
        }
      ],
      "name": "reward",
      "outputs": [],
      "stateMutability": "payable",
      "type": "function"
    },
    {
      "inputs": [
        {
          "internalType": "string[]",
          "name": "_hexs",
          "type": "string[]"
        },
        {
          "internalType": "uint256[]",
          "name": "_appreciationAmounts",
          "type": "uint256[]"
        }
      ],
      "name": "setAppreciation",
      "outputs": [],
      "stateMutability": "nonpayable",
      "type": "function"
    },
    {
      "inputs": [
        {
          "internalType": "string",
          "name": "_IPFSHash",
          "type": "string"
        }
      ],
      "name": "setManifest",
      "outputs": [],
      "stateMutability": "nonpayable",
      "type": "function"
    },
    {
      "inputs": [
        {
          "internalType": "string",
          "name": "_hex",
          "type": "string"
        },
        {
          "internalType": "uint256",
          "name": "_appreciationAmount",
          "type": "uint256"
        }
      ],
      "name": "setUserAppreciation",
      "outputs": [],
      "stateMutability": "nonpayable",
      "type": "function"
    },
    {
      "inputs": [
        {
          "internalType": "string",
          "name": "",
          "type": "string"
        }
      ],
      "name": "toAddress",
      "outputs": [
        {
          "internalType": "address",
          "name": "",
          "type": "address"
        }
      ],
      "stateMutability": "view",
      "type": "function"
    },
    {
      "inputs": [
        {
          "internalType": "address",
          "name": "",
          "type": "address"
        }
      ],
      "name": "toName",
      "outputs": [
        {
          "internalType": "string",
          "name": "",
          "type": "string"
        }
      ],
      "stateMutability": "view",
      "type": "function"
    },
    {
      "inputs": [
        {
          "internalType": "string",
          "name": "",
          "type": "string"
        },
        {
          "internalType": "address",
          "name": "",
          "type": "address"
        }
      ],
      "name": "tokenBalance",
      "outputs": [
        {
          "internalType": "uint256",
          "name": "",
          "type": "uint256"
        }
      ],
      "stateMutability": "view",
      "type": "function"
    },
    {
      "inputs": [
        {
          "internalType": "string",
          "name": "",
          "type": "string"
        },
        {
          "internalType": "uint256",
          "name": "",
          "type": "uint256"
        }
      ],
      "name": "tokensOf",
      "outputs": [
        {
          "internalType": "address",
          "name": "",
          "type": "address"
        }
      ],
      "stateMutability": "view",
      "type": "function"
    },
    {
      "inputs": [],
      "name": "totalappreciation",
      "outputs": [
        {
          "internalType": "uint256",
          "name": "",
          "type": "uint256"
        }
      ],
      "stateMutability": "view",
      "type": "function"
    },
    {
      "inputs": [],
      "name": "version",
      "outputs": [
        {
          "internalType": "string",
          "name": "",
          "type": "string"
        }
      ],
      "stateMutability": "view",
      "type": "function"
    },
    {
      "stateMutability": "payable",
      "type": "receive"
    }
  ],
  "bytecode": "0x608060405234620002515762003536803803806200001d8162000256565b9283398101604082820312620002515781516001600160a01b0381169290839003620002515760208181015190916001600160401b03919082821162000251570191601f848185011215620002515783518381116200022657601f19946200008b8284018716850162000256565b968288528483830101116200025157839060005b8381106200023c5750506000918701015260018060a01b0319943286600254161760025580519384116200022657600754926001938481811c911680156200021b575b828210146200020557838111620001b9575b50809285116001146200014e57508394509083929160009462000142575b50501b916000199060031b1c1916176007555b600a541617600a5560006011556040516132b990816200027d8239f35b01519250388062000112565b929484908116600760005284600020946000905b888383106200019e575050501062000184575b505050811b0160075562000125565b015160001960f88460031b161c1916905538808062000175565b85870151885590960195948501948793509081019062000162565b6007600052816000208480880160051c820192848910620001fb575b0160051c019085905b828110620001ee575050620000f4565b60008155018590620001de565b92508192620001d5565b634e487b7160e01b600052602260045260246000fd5b90607f1690620000e2565b634e487b7160e01b600052604160045260246000fd5b8181018301518982018401528592016200009f565b600080fd5b6040519190601f01601f191682016001600160401b03811183821017620002265760405256fe60806040908082526004908136101561073e575b5036156103ff576000913483811515806103f7575b156103325750926001905b60005b600b5480821015610330576011805491821561031e575061005f61005984612db9565b50612f71565b5490888202918083048a149015171561030b57509061007d91612f51565b80610092575b5061008d90612f1a565b610036565b83156101a05760ff6100ac6100a684612db9565b50613004565b541615610127576000808080936100c286612db9565b506001600160a01b03906100d590613097565b54165af16100e16131c0565b50156100f25761008d905b90610083565b835162461bcd60e51b8152602081870152600f60248201526e151c985b9cd9995c8819985a5b1959608a1b6044820152606490fd5b61013082612db9565b50303b1561019b5761015e600091875193849283926378bef78b60e01b84528a8c850152604484019061312a565b906024830152038183305af18015610190579061008d9291610181575b506100ec565b61018a90612b3e565b3861017b565b85513d6000823e3d90fd5b600080fd5b60ff6101ae6100a684612db9565b5416156102aa576101d3906101c283612db9565b506001600160a01b03928391613097565b54875163a9059cbb60e01b815291166001600160a01b0316888201908152602080820184905293919084908290819060400103816000868b165af1801561029f5792600080949361008d9796938295610272575b5061023a61023488612db9565b50613097565b5416928a51908101926310b3879160e11b845282602483015260449081830152815261026581612b82565b51925af15061017b6131c0565b61029190853d8711610298575b6102898183612b9d565b810190612f39565b5038610227565b503d61027f565b88513d6000823e3d90fd5b6102b382612db9565b50303b1561019b578551632615c3c760e01b815260608882015291600091839182916102e390606484019061312a565b908460248401526044830152038183305af18015610190579061008d929161018157506100ec565b87634e487b7160e01b6000525260246000fd5b905061032b915087612f51565b61007d565b005b8091945082516370a0823160e01b81523085820152602081602481865afa9081156103ed5790869184916103b5575b50101561003357825162461bcd60e51b8152602081860152602160248201527f4e6f7420656e6f75676820746f6b656e7320696e2074686520636f6e747261636044820152601d60fa1b6064820152608490fd5b9150506020813d82116103e5575b816103d060209383612b9d565b810103126103e15785905138610361565b8280fd5b3d91506103c3565b84513d85823e3d90fd5b506001610028565b600091348381151580610736575b1561067f5750926001905b60005b600b5480821015610330576011805491821561066d575061043e61005984612db9565b5490888202918083048a149015171561030b57509061045c91612f51565b80610471575b5061046c90612f1a565b61041b565b83156105345760ff6104856100a684612db9565b5416156104cb5760008080809361049b86612db9565b506001600160a01b03906104ae90613097565b54165af16104ba6131c0565b50156100f25761046c905b90610462565b6104d482612db9565b50303b1561019b57610502600091875193849283926378bef78b60e01b84528a8c850152604484019061312a565b906024830152038183305af18015610190579061046c9291610525575b506104c5565b61052e90612b3e565b3861051f565b60ff6105426100a684612db9565b54161561060c57610556906101c283612db9565b54875163a9059cbb60e01b815291166001600160a01b0316888201908152602080820184905293919084908290819060400103816000868b165af1801561029f5792600080949361046c97969382956105ef575b506105b761023488612db9565b5416928a51908101926310b3879160e11b84528260248301526044908183015281526105e281612b82565b51925af15061051f6131c0565b61060590853d8711610298576102898183612b9d565b50386105aa565b61061582612db9565b50303b1561019b578551632615c3c760e01b8152606088820152916000918391829161064590606484019061312a565b908460248401526044830152038183305af18015610190579061046c929161052557506104c5565b905061067a915087612f51565b61045c565b8091945082516370a0823160e01b81523085820152602081602481865afa9081156103ed579086918491610702575b50101561041857825162461bcd60e51b8152602081860152602160248201527f4e6f7420656e6f75676820746f6b656e7320696e2074686520636f6e747261636044820152601d60fa1b6064820152608490fd5b9150506020813d821161072e575b8161071d60209383612b9d565b810103126103e157859051386106ae565b3d9150610710565b50600161040d565b600090813560e01c90816302d05d3f14612b195750806305f182ae14612ace57806306fdde0314612a245780630b1ca49a146128125780630babba861461270757806321670f22146123125780632615c3c7146121c857806329b84d09146120105780633113a2ae14611f5557806332a1e16414611eca578063363454ee14611e6857806345ca25ed14611c5957806354fd4d5014611baf57806357a3253414611b5257806360a1da83146117c657806367945a841461175d57806375f9ccd51461167057806378bef78b1461163e5780637e4115ba146115d557806381bc3f8c146114ed578063918f9687146112d8578063a230c5241461129a578063a6f9dae11461120f578063acf36e531461116b578063b6afd2ca146110a8578063b766f86f14611089578063c127c24714610d17578063ca22431314610ca0578063cc18494814610c16578063de8fa43114610bf7578063f155966314610a48578063f59e4f651461099e5763f5baf0d70361001357823461099a578160031936011261099a57805190826003546108d381612c43565b808552916001918083169081156109725750600114610915575b5050506108ff82610911940383612b9d565b51918291602083526020830190612c7d565b0390f35b9450600385527fc2575a0e9e593c00f959f8c92f12db2869c3395a3b0502d05e2516446f71f85b5b82861061095a575050506108ff82602061091195820101946108ed565b8054602087870181019190915290950194810161093d565b6109119750869350602092506108ff94915060ff191682840152151560051b820101946108ed565b5080fd5b50823461099a578160031936011261099a57805190826009546109c081612c43565b8085529160019180831690811561097257506001146109eb575050506108ff82610911940383612b9d565b9450600985527f6e1540171b6c0c960b71a7020d9f60077f6af931a8bbf590da0223dacf75c7af5b828610610a30575050506108ff82602061091195820101946108ed565b80546020878701810191909152909501948101610a13565b509190346103e157816003193601126103e1576001600160401b03918135838111610bf357610a7a9036908401612e1e565b9290602435858111610bef57610a939036908401612e1e565b959092610aab60018060a01b03600a54163314612ea1565b868603610bac57600b548603610b515750601193878555875b868110610acf578880f35b610ada818987612f29565b35908060051b850135601e1986360301811215610b4d578501918235858111610b49576020809401938136038513610b4557610b409482875193849283378101601281520301902055610b39610b31828b89612f29565b358854612ef7565b8755612f1a565b610ac4565b8c80fd5b8b80fd5b8a80fd5b608490602086519162461bcd60e51b8352820152602f60248201527f596f75206d7573742073657420617070726563696174696f6e20666f7220616c60448201526e6c207573657273206174206f6e636560881b6064820152fd5b606490602086519162461bcd60e51b8352820152601a60248201527f4172726179206c656e6774687320646f206e6f74206d617463680000000000006044820152fd5b8680fd5b8480fd5b50823461099a578160031936011261099a57602090600b549051908152f35b509190346103e157816003193601126103e1578035906001600160401b038211610c9c57610c4691369101612bd9565b91610c6260206024359481855193828580945193849201612c20565b81016010815203019020908154841015610c995750602092610c8391612e06565b905491519160018060a01b039160031b1c168152f35b80fd5b8380fd5b509190346103e157816003193601126103e15780356001600160401b038111610c9c5792610cd48392602095369101612bd9565b610cf385610ce0612cb8565b9281865193828580945193849201612c20565b600f908201908152030190206001600160a01b039091168252845220549051908152f35b50903461099a57610d2736612d2d565b3384526020928084526001928360ff88882054161515148015611075575b610d4e90613225565b6001600160a01b03818116808852838752888820549095919060ff1661103b57885190855191888181890194610d85818388612c20565b810160058152030190205416611000578754600160401b811015610fed57610dd2610db582858a94018c55612d6f565b819391549060031b9160018060a01b03809116831b921b19161790565b905585885260068752888820908551916001600160401b038311610fda579081610e0784610e018c9554612c43565b83612e65565b8293601f8111600114610f755780610e43958d91610f6a575b50600019600383901b1c191690861b1790555b8a51809381928951928391612c20565b81016005815203019020856001600160601b0360a01b8254161790558487528286528787209060ff198254161790558651868087830163acf36e5360e01b9384825230602482015260248152610e9881612b67565b5190855afa610ea56131c0565b50610eee575b505050610ee89085807f7c803c00251fe8138e27cfa8286be8d98625e5f6476ca6ca594f682362b711209697519586958652850152830190612c7d565b0390a180f35b86918291828a5189810192835230602482015260248152610f0e81612b67565b51925af1610f1a6131c0565b5015610f27578080610eab565b855162461bcd60e51b8152908101849052601760248201527f4661696c656420746f2063726561746520706172656e740000000000000000006044820152606490fd5b905089015138610e20565b85908c8a96601f198316858352878320925b818110610fc05750610e4398508311610fa7575b5050811b019055610e33565b8b015160001960f88460031b161c191690553880610f9b565b9882015183558c988f988b96909401939283019201610f87565b634e487b7160e01b8a526041865260248afd5b634e487b7160e01b895260418552602489fd5b885162461bcd60e51b815280850188905260156024820152742730b6b29034b99030b63932b0b23c903a30b5b2b760591b6044820152606490fd5b885162461bcd60e51b8152808501889052601460248201527313595b58995c88185b1c9958591e48185919195960621b6044820152606490fd5b506002546001600160a01b03163314610d45565b50823461099a578160031936011261099a576020906011549051908152f35b838234610c995780600319360112610c9957908051918290805491828552602080950180938380527f290decd9548b62a8d60345a988386fc84ba6bc95484008f6362f93160ef3e56390845b81811061114e575050508161110a910382612b9d565b83519485948186019282875251809352850193925b82811061112e57505050500390f35b83516001600160a01b03168552869550938101939281019260010161111f565b82546001600160a01b0316845292880192600192830192016110f4565b50903461099a57602036600319011261099a57611186612ca2565b9060015490600160401b8210156111fc5760018201806001558210156111e957507fb10e2d527612073b26eecdfd717e6a320cf44b4afac2b0732d9fcbe2b7fa0cf60180546001600160a01b0319166001600160a01b0390921691909117905580f35b634e487b7160e01b845260329052602483fd5b634e487b7160e01b845260419052602483fd5b5091346103e15760203660031901126103e15761122a612ca2565b600254926001600160a01b0392838516330361125757505016906001600160601b0360a01b161760025580f35b906020606492519162461bcd60e51b8352820152601f60248201527f4f6e6c79206f776e65722063616e206368616e676520746865206f776e6572006044820152fd5b509190346103e15760203660031901126103e15760209260ff918391906001600160a01b036112c7612ca2565b168252855220541690519015158152f35b509190346103e15760209182600319360112610c9c576001600160401b039282358481116114e95761130d9036908501612cce565b600a549093906001600160a01b0390811633036114a6578151858482378481878101600c81520301902054166114645751838282378281858101600c815203019020336001600160601b0360a01b825416179055600b5493600160401b85101561143f57611382600195868101600b55612db9565b96909661145257841161143f57506113a48361139e8754612c43565b87612e65565b8591601f84116001146113de575092829391839287946113d3575b50501b916000199060031b1c191617905580f35b0135925038806113bf565b9183601f1981168789528489209489905b88838310611425575050501061140b575b505050811b01905580f35b0135600019600384901b60f8161c19169055388080611400565b8686013588559096019593840193879350908101906113ef565b634e487b7160e01b875260419052602486fd5b634e487b7160e01b8852878252602488fd5b5162461bcd60e51b8152808501839052601860248201527f5573657220494420697320616c726561647920616464656400000000000000006044820152606490fd5b815162461bcd60e51b8152808701859052601c60248201527f4f6e6c792063726561746f722063616e20616464206d656d62657273000000006044820152606490fd5b8580fd5b50823461099a57602090816003193601126103e1576001600160a01b03611512612ca2565b1683526006825280832081519384918181549061152e82612c43565b928386526001928884821691826000146115ab57505060011461156d575b85886109118961155e848a0385612b9d565b51928284938452830190612c7d565b87945081939291528383205b828410611593575050508201018161155e6109118861154c565b8054848a018601528895508794909301928101611579565b60ff19168882015294151560051b8701909401945085935061155e9250610911915089905061154c565b50829034610c99576020366003190112610c99578235906001600160401b038211610c99575060209261160a91369101612bd9565b8261161d83519283815193849201612c20565b6005908201908152819003830190205490516001600160a01b039091168152f35b50602061166b8461164e36612cfb565b94919080935193849283378101600e815203019020918254612ef7565b905580f35b5091346103e15760209182600319360112610c9c578035600b54811015610bf35761169a90612db9565b91909161174b57508151938491818154906116b482612c43565b928386526001928884821691826000146117215750506001146116e35785886109118961155e848a0385612b9d565b87945081939291528383205b828410611709575050508201018161155e6109113861154c565b8054848a0186015288955087949093019281016116ef565b60ff19168882015294151560051b8701909401945085935061155e9250610911915038905061154c565b634e487b7160e01b8552849052602484fd5b50829034610c99576020366003190112610c99578235906001600160401b038211610c99575060209261179291369101612bd9565b826117a583519283815193849201612c20565b600c908201908152819003830190205490516001600160a01b039091168152f35b509190346103e157816003193601126103e15780356001600160401b038111610c9c576117f69036908301612cce565b9290611800612cb8565b8251938583863760ff85878101600d81526020978891030190205416611b0f5783519580848837600c8782019081528790038601909620546001600160a01b0396908716611b0a578451818582378681838101600c8152030190208784166001600160601b0360a01b8254161790555b86600a54163303611ab357878080808851858982378a81878101600e81520301902054818a51878b82378c81898101600e81520301902055818115611aaa575b8c891690f115611aa05786600a54163303611a485790879185519781868a3781890198888160109b8c81520301902091875192838a825491828152019187528a872090875b8c828210611a2f57505050508361190d910384612b9d565b845b8851828982378a818d8582019081520301902054811015611a0c57858a888b8b848861193b888c6131f0565b511692878a8c8b8985519782818a37828901988281600f9b8c8152030190208561196588876131f0565b511689528252868820549883885194859384378201908152030190209261198b916131f0565b5116835286528120558d5163a9059cbb60e01b81526001600160a01b039093168a8401908152602081019190915291938492839190829060400103925af18015611a0257906119e092916119e5575b50612f1a565b61190f565b6119fb908c8d3d10610298576102898183612b9d565b50386119da565b8a513d89823e3d90fd5b885186908b8185808d83378101600d815203019020600160ff1982541617905580f35b8354871685528f995090930192600192830192016118f5565b845162461bcd60e51b8152808301879052602c60248201527f4f6e6c792063726561746f722063616e207375626d697420616e20757365722060448201526b636c61696d20546f6b656e7360a01b6064820152608490fd5b84513d89823e3d90fd5b506108fc6118b0565b845162461bcd60e51b8152808301879052602b60248201527f4f6e6c792063726561746f722063616e207375626d697420616e20757365722060448201526a31b630b4b69022ba3432b960a91b6064820152608490fd5b611870565b835162461bcd60e51b8152908101859052601860248201527f557365722068617320616c726561647920636c61696d656400000000000000006044820152606490fd5b50829034610c99576020366003190112610c99578235906001600160401b038211610c9957506020611b8b8194611b9d93369101612bd9565b81845193828580945193849201612c20565b8101600e815203019020549051908152f35b50823461099a578160031936011261099a5780519082600854611bd181612c43565b808552916001918083169081156109725750600114611bfc575050506108ff82610911940383612b9d565b9450600885527ff3f7a9fe364faab93b216da50a3214154f22a0a2b415b23a84c8169e8b636ee35b828610611c41575050506108ff82602061091195820101946108ed565b80546020878701810191909152909501948101611c24565b50823461099a57611c6936612d2d565b936001600160a01b03918216929091338414908115611e5a575b508015611e51575b15611df35780519283865160209581611ca8889383858d01612c20565b81016005815203019020816001600160601b0360a01b825416179055808552600684527ffdcc9059d3426f73949b49e5d977553aa298184439da800d66f48959d9cc76b0611d06838720611d1385519283928784528784019061312a565b828103898401528a612c7d565b0390a18452600683528320918451916001600160401b038311611de05750611d4582611d3f8554612c43565b85612e65565b80601f8311600114611d7f5750839482939492611d74575b50508160011b916000199060031b1c191617905580f35b015190508480611d5d565b90601f198316958486528286209286905b888210611dc857505083600195969710611daf57505050811b01905580f35b015160001960f88460031b161c19169055848080611400565b80600185968294968601518155019501930190611d90565b634e487b7160e01b855260419052602484fd5b906020608492519162461bcd60e51b8352820152603260248201527f4e616d65206368616e67652072657175657374206e6f742073656e742066726f604482015271369036b2b6b132b9103737b91037bbb732b960711b6064820152fd5b50328314611c8b565b905060025416331486611c83565b50829034610c99576020366003190112610c99578235906001600160401b038211610c995750611eb56020611ea3819560ff94369101612bd9565b81855193828580945193849201612c20565b8101600d815203019020541690519015158152f35b50823461099a57611eda36612cfb565b92611ef360018060a09594951b03600a54163314612ea1565b805183838237602081858101601281520301902054601154908103908111611f425760115551611f3c939283926020918391819083378101601281520301902055601154612ef7565b60115580f35b634e487b7160e01b865260118752602486fd5b50823461099a578160031936011261099a5780516001805480835281855260208084019592939186907fb10e2d527612073b26eecdfd717e6a320cf44b4afac2b0732d9fcbe2b7fa0cf690855b818110611ff45750505082611fb8910383612b9d565b8451948186019282875251809352850195925b828110611fd85785870386f35b83516001600160a01b0316875295810195928101928401611fcb565b82546001600160a01b0316845292840192918701918701611fa2565b50903461099a57602092836003193601126103e1576001600160401b03918035838111610bf3576120449036908301612cce565b60025490949193906001600160a01b03163303612186575083116111fc575061206e600354612c43565b601f8111612132575b508293601f83116001146120b457509282938293926120a9575b50508160011b916000199060031b1c19161760035580f35b013590503880612091565b601f198316947fc2575a0e9e593c00f959f8c92f12db2869c3395a3b0502d05e2516446f71f85b929185905b87821061211a575050836001959610612100575b505050811b0160035580f35b0135600019600384901b60f8161c191690553880806120f4565b806001849682949587013581550195019201906120e0565b612176907fc2575a0e9e593c00f959f8c92f12db2869c3395a3b0502d05e2516446f71f85b601f850160051c81019187861061217c575b601f0160051c0190612e4e565b38612077565b9091508190612169565b5162461bcd60e51b8152808301879052601f60248201527f4f6e6c79206f776e65722063616e2073657420746865206d616e6966657374006044820152606490fd5b509190346103e15760603660031901126103e15780356001600160401b038111610c9c576121f99036908301612cce565b90612202612cb8565b84516323b872dd60e01b81523385820152306024820152604480359082018190526001600160a01b039092169560209392909184816064818c8c5af19081156123085789916122eb575b50156122b0579084918151838582378581858101600f815203019020888a52855261227b828a20918254612ef7565b905551938492833781016010815203019020805491600160401b831015611de0575081610db591600161166b94018155612e06565b815162461bcd60e51b81528087018590526015602482015274151bdad95b881d1c985b9cd9995c8819985a5b1959605a1b6044820152606490fd5b6123029150853d8711610298576102898183612b9d565b3861224c565b83513d8b823e3d90fd5b5082600319360112610c9957612326612ca2565b9260249180833581341515806126f6575b1561262a57505034956001915b835b600b54808210156126265760118054918215612614575061236961005984612db9565b54908b8202918083048d149015171561260457509061238791612f51565b8061239c575b5061239790612f1a565b612346565b841561249c578560ff6123b16100a685612db9565b54161561242957808080936123c586612db9565b506001600160a01b03906123d890613097565b54165af16123e46131c0565b50156123f557612397905b9061238d565b855162461bcd60e51b81526020818a0152600f818901526e151c985b9cd9995c8819985a5b1959608a1b6044820152606490fd5b5061243382612db9565b5090303b15610bef57878a8892612461835195869485946378bef78b60e01b8652850152604484019061312a565b908c830152038183305af1801561249257906123979291612483575b506123ef565b61248c90612b3e565b3861247d565b87513d88823e3d90fd5b60ff6124aa6100a684612db9565b54161561259a576124be906101c283612db9565b54895163a9059cbb60e01b815291166001600160a01b03168b8201908152602080820184905293919084908290819060400103818c868b165af1801561259057898861256661239798978f948f9698859998869961255893612573575b506125286102348d612db9565b541697519485938401976310b3879160e11b8952840160209093929193604081019460018060a01b031681520152565b03601f198101835282612b9d565b51925af15061247d6131c0565b61258990853d8711610298576102898183612b9d565b503861251b565b8a513d8b823e3d90fd5b6125a382612db9565b5090303b15610bef5760608a88926125d28b519586948594632615c3c760e01b8652850152606484019061312a565b6001600160a01b038916838e01526044830191909152038183305af180156124925790612397929161248357506123ef565b634e487b7160e01b88528a528887fd5b905061262191508a612f51565b612387565b8580f35b84516370a0823160e01b815230888201529197909250906001600160a01b038216906020818881855afa9081156126ec5790899186916126b8575b50101561234457845162461bcd60e51b81526020818901526021818801527f4e6f7420656e6f75676820746f6b656e7320696e2074686520636f6e747261636044820152601d60fa1b6064820152608490fd5b9150506020813d82116126e4575b816126d360209383612b9d565b81010312610bf35788905138612665565b3d91506126c6565b86513d87823e3d90fd5b506001600160a01b03881615612337565b5080923461099a57600319926060368501126103e1576001600160401b03938135858111610bf35761273c9036908401612cce565b9190956024359081116114e9576127a29560209461275f60609336908301612cce565b98909460018060a01b03998a600a5416966127938b519d8e9a8b998a986305d5dd4360e11b8a528901526064880191613204565b92858403016024860152613204565b604435604483015203925af19283156128085784936127c8575b50602093505191168152f35b9092506020813d8211612800575b816127e360209383612b9d565b81010312610c9c57518181168103610c9c576020935091386127bc565b3d91506127d6565b81513d86823e3d90fd5b50829034610c995760208060031936011261099a57612832939293612ca2565b9360018060a01b039361284a85600254163314613225565b84849616955b845480821015612a195786908861286684612d6f565b939054600394851b1c161461288557505061288090612f1a565b612850565b876128a89261289c610db5939a969798999a612d6f565b9054911b1c1692612d6f565b90555b84548015612a065760001901906128c182612d6f565b909182549160031b1b19169055845584845282528083209360ff1994858154169055600683527f982d6fac85d22cbbe833f9fe4278a909ca0f3b24ecc8b1f10fe63736e3c72313612924838620845191829185835286888401528683019061312a565b0390a180845260068352818420825190859681549161294283612c43565b926001928382169182156129ef5750506001146129bc575b50505083818760056000989952030190206001600160601b0360a01b815416905584526006825283209061298e8254612c43565b601f811161299d575b50505580f35b601f6129b5928487528620910160051c810190612e4e565b8380612997565b875285872091975086915b8883106129de57505050948501948381600061295a565b8054848401529186019181016129c7565b16855250505080151502810195508381600061295a565b634e487b7160e01b865260318352602486fd5b5050909192936128ab565b50823461099a578160031936011261099a5780519082600754612a4681612c43565b808552916001918083169081156109725750600114612a71575050506108ff82610911940383612b9d565b9450600785527fa66cc928b5edb82af9bd49922954155ab7b0942694bea4ce44661d9a8736c6885b828610612ab6575050506108ff82602061091195820101946108ed565b80546020878701810191909152909501948101612a99565b50829034610c99576020366003190112610c99578235906001600160401b038211610c9957506020611b8b8194612b0793369101612bd9565b81016012815203019020549051908152f35b90503461099a578160031936011261099a57600a546001600160a01b03168152602090f35b6001600160401b038111612b5157604052565b634e487b7160e01b600052604160045260246000fd5b606081019081106001600160401b03821117612b5157604052565b608081019081106001600160401b03821117612b5157604052565b90601f801991011681019081106001600160401b03821117612b5157604052565b6001600160401b038111612b5157601f01601f191660200190565b81601f8201121561019b57803590612bf082612bbe565b92612bfe6040519485612b9d565b8284526020838301011161019b57816000926020809301838601378301015290565b60005b838110612c335750506000910152565b8181015183820152602001612c23565b90600182811c92168015612c73575b6020831014612c5d57565b634e487b7160e01b600052602260045260246000fd5b91607f1691612c52565b90602091612c9681518092818552858086019101612c20565b601f01601f1916010190565b600435906001600160a01b038216820361019b57565b602435906001600160a01b038216820361019b57565b9181601f8401121561019b578235916001600160401b03831161019b576020838186019501011161019b57565b604060031982011261019b57600435906001600160401b03821161019b57612d2591600401612cce565b909160243590565b90604060031983011261019b576004356001600160a01b038116810361019b5791602435906001600160401b03821161019b57612d6c91600401612bd9565b90565b906000918254811015612da5578280527f290decd9548b62a8d60345a988386fc84ba6bc95484008f6362f93160ef3e563019190565b634e487b7160e01b83526032600452602483fd5b600b54811015612df057600b6000527f0175b7a638427703f0dbe7bb9bbf987a2551717b34e79f33b5b1008d1fa01db90190600090565b634e487b7160e01b600052603260045260246000fd5b8054821015612df05760005260206000200190600090565b9181601f8401121561019b578235916001600160401b03831161019b576020808501948460051b01011161019b57565b818110612e59575050565b60008155600101612e4e565b9190601f8111612e7457505050565b612e9f926000526020600020906020601f840160051c8301931061217c57601f0160051c0190612e4e565b565b15612ea857565b60405162461bcd60e51b815260206004820152602160248201527f4f6e6c792063726561746f722063616e2073657420617070726563696174696f6044820152603760f91b6064820152608490fd5b91908201809211612f0457565b634e487b7160e01b600052601160045260246000fd5b6000198114612f045760010190565b9190811015612df05760051b0190565b9081602091031261019b5751801515810361019b5790565b8115612f5b570490565b634e487b7160e01b600052601260045260246000fd5b604051908160008254612f8381612c43565b93600191808316908115612fe85750600114612fab575b505060209250601281520301902090565b90915060005260209081600020906000915b858310612fd4575050505060209181013880612f9a565b805487840152869450918301918101612fbd565b92505050602093915060ff191682528015150281013880612f9a565b60405190816000825461301681612c43565b9360019180831690811561307b575060011461303e575b505060209250600d81520301902090565b90915060005260209081600020906000915b85831061306757505050506020918101388061302d565b805487840152869450918301918101613050565b92505050602093915060ff19168252801515028101388061302d565b6040519081600082546130a981612c43565b9360019180831690811561310e57506001146130d1575b505060209250600c81520301902090565b90915060005260209081600020906000915b8583106130fa5750505050602091810138806130c0565b8054878401528694509183019181016130e3565b92505050602093915060ff1916825280151502810138806130c0565b906000929180549161313b83612c43565b91828252600193848116908160001461319d575060011461315d575b50505050565b90919394506000526020928360002092846000945b838610613189575050505001019038808080613157565b805485870183015294019385908201613172565b9294505050602093945060ff191683830152151560051b01019038808080613157565b3d156131eb573d906131d182612bbe565b916131df6040519384612b9d565b82523d6000602084013e565b606090565b8051821015612df05760209160051b010190565b908060209392818452848401376000828201840152601f01601f1916010190565b1561322c57565b60405162461bcd60e51b815260206004820152602960248201527f52657175657374207375626d69747465642062792061206e6f6e2d6d656d626560448201526872206164647265737360b81b6064820152608490fdfea2646970667358221220a9e1911fb2a9fdd3718d372e76a47fb760351c7c70f977a5f1980f05e1cf62e264736f6c63430008140033",
  "linkReferences": {},
  "deployedLinkReferences": {}
}