{
  "_format": "hh-sol-artifact-1",
  "contractName": "Managed",
  "sourceName": "contracts/Managed.sol",
  "abi": [
    {
      "inputs": [
        {
          "internalType": "address",
          "name": "_creator",
          "type": "address"
        },
        {
          "internalType": "string",
          "name": "_name",
          "type": "string"
        }
      ],
      "stateMutability": "nonpayable",
      "type": "constructor"
    },
    {
      "anonymous": false,
      "inputs": [
        {
          "indexed": false,
          "internalType": "address",
          "name": "member",
          "type": "address"
        },
        {
          "indexed": false,
          "internalType": "string",
          "name": "name",
          "type": "string"
        }
      ],
      "name": "AddedMember",
      "type": "event"
    },
    {
      "anonymous": false,
      "inputs": [
        {
          "indexed": false,
          "internalType": "string",
          "name": "namefrom",
          "type": "string"
        },
        {
          "indexed": false,
          "internalType": "string",
          "name": "nameto",
          "type": "string"
        }
      ],
      "name": "ChangedName",
      "type": "event"
    },
    {
      "anonymous": false,
      "inputs": [
        {
          "indexed": false,
          "internalType": "address",
          "name": "holon",
          "type": "address"
        },
        {
          "indexed": false,
          "internalType": "string",
          "name": "token",
          "type": "string"
        },
        {
          "indexed": false,
          "internalType": "uint256",
          "name": "amount",
          "type": "uint256"
        }
      ],
      "name": "HolonRewarded",
      "type": "event"
    },
    {
      "anonymous": false,
      "inputs": [
        {
          "indexed": true,
          "internalType": "address",
          "name": "from",
          "type": "address"
        },
        {
          "indexed": true,
          "internalType": "address",
          "name": "to",
          "type": "address"
        },
        {
          "indexed": false,
          "internalType": "uint256",
          "name": "amount",
          "type": "uint256"
        },
        {
          "indexed": false,
          "internalType": "bool",
          "name": "isContract",
          "type": "bool"
        },
        {
          "indexed": false,
          "internalType": "string",
          "name": "rewardType",
          "type": "string"
        }
      ],
      "name": "MemberRewarded",
      "type": "event"
    },
    {
      "anonymous": false,
      "inputs": [
        {
          "indexed": false,
          "internalType": "address",
          "name": "member",
          "type": "address"
        },
        {
          "indexed": false,
          "internalType": "string",
          "name": "name",
          "type": "string"
        }
      ],
      "name": "RemovedMember",
      "type": "event"
    },
    {
      "anonymous": false,
      "inputs": [
        {
          "indexed": true,
          "internalType": "address",
          "name": "contractAddress",
          "type": "address"
        },
        {
          "indexed": false,
          "internalType": "uint256",
          "name": "amount",
          "type": "uint256"
        },
        {
          "indexed": false,
          "internalType": "uint256",
          "name": "totalMembers",
          "type": "uint256"
        },
        {
          "indexed": false,
          "internalType": "string",
          "name": "rewardType",
          "type": "string"
        }
      ],
      "name": "RewardDistributed",
      "type": "event"
    },
    {
      "anonymous": false,
      "inputs": [
        {
          "indexed": true,
          "internalType": "address",
          "name": "member",
          "type": "address"
        },
        {
          "indexed": false,
          "internalType": "address",
          "name": "token",
          "type": "address"
        },
        {
          "indexed": false,
          "internalType": "uint256",
          "name": "amount",
          "type": "uint256"
        }
      ],
      "name": "RewardFailed",
      "type": "event"
    },
    {
      "stateMutability": "payable",
      "type": "fallback"
    },
    {
      "inputs": [
        {
          "internalType": "string",
          "name": "_userId",
          "type": "string"
        }
      ],
      "name": "addMember",
      "outputs": [],
      "stateMutability": "nonpayable",
      "type": "function"
    },
    {
      "inputs": [
        {
          "internalType": "address",
          "name": "_memberaddress",
          "type": "address"
        },
        {
          "internalType": "string",
          "name": "_membername",
          "type": "string"
        }
      ],
      "name": "addMember",
      "outputs": [],
      "stateMutability": "nonpayable",
      "type": "function"
    },
    {
      "inputs": [
        {
          "internalType": "string[]",
          "name": "_userIds",
          "type": "string[]"
        }
      ],
      "name": "addMembers",
      "outputs": [],
      "stateMutability": "nonpayable",
      "type": "function"
    },
    {
      "inputs": [
        {
          "internalType": "address",
          "name": "_parentaddress",
          "type": "address"
        }
      ],
      "name": "addParent",
      "outputs": [],
      "stateMutability": "nonpayable",
      "type": "function"
    },
    {
      "inputs": [
        {
          "internalType": "string",
          "name": "",
          "type": "string"
        }
      ],
      "name": "appreciation",
      "outputs": [
        {
          "internalType": "uint256",
          "name": "",
          "type": "uint256"
        }
      ],
      "stateMutability": "view",
      "type": "function"
    },
    {
      "inputs": [
        {
          "internalType": "address",
          "name": "_address",
          "type": "address"
        },
        {
          "internalType": "string",
          "name": "_name",
          "type": "string"
        }
      ],
      "name": "changeName",
      "outputs": [],
      "stateMutability": "nonpayable",
      "type": "function"
    },
    {
      "inputs": [
        {
          "internalType": "address",
          "name": "_address",
          "type": "address"
        }
      ],
      "name": "changeOwner",
      "outputs": [],
      "stateMutability": "nonpayable",
      "type": "function"
    },
    {
      "inputs": [
        {
          "internalType": "string",
          "name": "_userId",
          "type": "string"
        },
        {
          "internalType": "address",
          "name": "_beneficiary",
          "type": "address"
        }
      ],
      "name": "claim",
      "outputs": [],
      "stateMutability": "nonpayable",
      "type": "function"
    },
    {
      "inputs": [],
      "name": "creator",
      "outputs": [
        {
          "internalType": "address",
          "name": "",
          "type": "address"
        }
      ],
      "stateMutability": "view",
      "type": "function"
    },
    {
      "inputs": [
        {
          "internalType": "string",
          "name": "_userId",
          "type": "string"
        },
        {
          "internalType": "uint256",
          "name": "amount",
          "type": "uint256"
        }
      ],
      "name": "depositEtherForUser",
      "outputs": [],
      "stateMutability": "payable",
      "type": "function"
    },
    {
      "inputs": [
        {
          "internalType": "string",
          "name": "_userId",
          "type": "string"
        },
        {
          "internalType": "address",
          "name": "_tokenAddress",
          "type": "address"
        },
        {
          "internalType": "uint256",
          "name": "_amount",
          "type": "uint256"
        }
      ],
      "name": "depositTokenForUser",
      "outputs": [],
      "stateMutability": "nonpayable",
      "type": "function"
    },
    {
      "inputs": [
        {
          "internalType": "string",
          "name": "",
          "type": "string"
        }
      ],
      "name": "etherBalance",
      "outputs": [
        {
          "internalType": "uint256",
          "name": "",
          "type": "uint256"
        }
      ],
      "stateMutability": "view",
      "type": "function"
    },
    {
      "inputs": [],
      "name": "flavor",
      "outputs": [
        {
          "internalType": "string",
          "name": "",
          "type": "string"
        }
      ],
      "stateMutability": "view",
      "type": "function"
    },
    {
      "inputs": [],
      "name": "getSize",
      "outputs": [
        {
          "internalType": "uint256",
          "name": "",
          "type": "uint256"
        }
      ],
      "stateMutability": "view",
      "type": "function"
    },
    {
      "inputs": [
        {
          "internalType": "string",
          "name": "_userId",
          "type": "string"
        }
      ],
      "name": "getTokensOf",
      "outputs": [
        {
          "internalType": "address[]",
          "name": "",
          "type": "address[]"
        }
      ],
      "stateMutability": "view",
      "type": "function"
    },
    {
      "inputs": [
        {
          "internalType": "string",
          "name": "",
          "type": "string"
        }
      ],
      "name": "hasClaimed",
      "outputs": [
        {
          "internalType": "bool",
          "name": "",
          "type": "bool"
        }
      ],
      "stateMutability": "view",
      "type": "function"
    },
    {
      "inputs": [
        {
          "internalType": "string",
          "name": "",
          "type": "string"
        }
      ],
      "name": "isManagedMember",
      "outputs": [
        {
          "internalType": "bool",
          "name": "",
          "type": "bool"
        }
      ],
      "stateMutability": "view",
      "type": "function"
    },
    {
      "inputs": [
        {
          "internalType": "address",
          "name": "",
          "type": "address"
        }
      ],
      "name": "isMember",
      "outputs": [
        {
          "internalType": "bool",
          "name": "",
          "type": "bool"
        }
      ],
      "stateMutability": "view",
      "type": "function"
    },
    {
      "inputs": [],
      "name": "listMembers",
      "outputs": [
        {
          "internalType": "address payable[]",
          "name": "",
          "type": "address[]"
        }
      ],
      "stateMutability": "view",
      "type": "function"
    },
    {
      "inputs": [],
      "name": "listParents",
      "outputs": [
        {
          "internalType": "address[]",
          "name": "",
          "type": "address[]"
        }
      ],
      "stateMutability": "view",
      "type": "function"
    },
    {
      "inputs": [],
      "name": "manifest",
      "outputs": [
        {
          "internalType": "string",
          "name": "",
          "type": "string"
        }
      ],
      "stateMutability": "view",
      "type": "function"
    },
    {
      "inputs": [],
      "name": "name",
      "outputs": [
        {
          "internalType": "string",
          "name": "",
          "type": "string"
        }
      ],
      "stateMutability": "view",
      "type": "function"
    },
    {
      "inputs": [
        {
          "internalType": "string",
          "name": "_flavor",
          "type": "string"
        },
        {
          "internalType": "string",
          "name": "_name",
          "type": "string"
        },
        {
          "internalType": "uint256",
          "name": "_parameter",
          "type": "uint256"
        }
      ],
      "name": "newHolon",
      "outputs": [
        {
          "internalType": "address",
          "name": "",
          "type": "address"
        }
      ],
      "stateMutability": "nonpayable",
      "type": "function"
    },
    {
      "inputs": [
        {
          "internalType": "address",
          "name": "_memberaddress",
          "type": "address"
        }
      ],
      "name": "removeMember",
      "outputs": [],
      "stateMutability": "nonpayable",
      "type": "function"
    },
    {
      "inputs": [
        {
          "internalType": "address",
          "name": "_tokenaddress",
          "type": "address"
        },
        {
          "internalType": "uint256",
          "name": "_tokenamount",
          "type": "uint256"
        }
      ],
      "name": "reward",
      "outputs": [],
      "stateMutability": "payable",
      "type": "function"
    },
    {
      "inputs": [
        {
          "internalType": "string[]",
          "name": "_userIds",
          "type": "string[]"
        },
        {
          "internalType": "uint256[]",
          "name": "_appreciationAmounts",
          "type": "uint256[]"
        }
      ],
      "name": "setAppreciation",
      "outputs": [],
      "stateMutability": "nonpayable",
      "type": "function"
    },
    {
      "inputs": [
        {
          "internalType": "string",
          "name": "_IPFSHash",
          "type": "string"
        }
      ],
      "name": "setManifest",
      "outputs": [],
      "stateMutability": "nonpayable",
      "type": "function"
    },
    {
      "inputs": [
        {
          "internalType": "string",
          "name": "_userId",
          "type": "string"
        },
        {
          "internalType": "uint256",
          "name": "_appreciationAmount",
          "type": "uint256"
        }
      ],
      "name": "setUserAppreciation",
      "outputs": [],
      "stateMutability": "nonpayable",
      "type": "function"
    },
    {
      "inputs": [
        {
          "internalType": "string",
          "name": "",
          "type": "string"
        }
      ],
      "name": "toAddress",
      "outputs": [
        {
          "internalType": "address",
          "name": "",
          "type": "address"
        }
      ],
      "stateMutability": "view",
      "type": "function"
    },
    {
      "inputs": [
        {
          "internalType": "address",
          "name": "",
          "type": "address"
        }
      ],
      "name": "toName",
      "outputs": [
        {
          "internalType": "string",
          "name": "",
          "type": "string"
        }
      ],
      "stateMutability": "view",
      "type": "function"
    },
    {
      "inputs": [
        {
          "internalType": "string",
          "name": "",
          "type": "string"
        },
        {
          "internalType": "address",
          "name": "",
          "type": "address"
        }
      ],
      "name": "tokenBalance",
      "outputs": [
        {
          "internalType": "uint256",
          "name": "",
          "type": "uint256"
        }
      ],
      "stateMutability": "view",
      "type": "function"
    },
    {
      "inputs": [
        {
          "internalType": "string",
          "name": "",
          "type": "string"
        },
        {
          "internalType": "uint256",
          "name": "",
          "type": "uint256"
        }
      ],
      "name": "tokensOf",
      "outputs": [
        {
          "internalType": "address",
          "name": "",
          "type": "address"
        }
      ],
      "stateMutability": "view",
      "type": "function"
    },
    {
      "inputs": [
        {
          "internalType": "address",
          "name": "",
          "type": "address"
        }
      ],
      "name": "totalDeposited",
      "outputs": [
        {
          "internalType": "uint256",
          "name": "",
          "type": "uint256"
        }
      ],
      "stateMutability": "view",
      "type": "function"
    },
    {
      "inputs": [],
      "name": "totalappreciation",
      "outputs": [
        {
          "internalType": "uint256",
          "name": "",
          "type": "uint256"
        }
      ],
      "stateMutability": "view",
      "type": "function"
    },
    {
      "inputs": [
        {
          "internalType": "string",
          "name": "",
          "type": "string"
        }
      ],
      "name": "userIdToAddress",
      "outputs": [
        {
          "internalType": "address",
          "name": "",
          "type": "address"
        }
      ],
      "stateMutability": "view",
      "type": "function"
    },
    {
      "inputs": [
        {
          "internalType": "uint256",
          "name": "",
          "type": "uint256"
        }
      ],
      "name": "userIds",
      "outputs": [
        {
          "internalType": "string",
          "name": "",
          "type": "string"
        }
      ],
      "stateMutability": "view",
      "type": "function"
    },
    {
      "inputs": [],
      "name": "version",
      "outputs": [
        {
          "internalType": "string",
          "name": "",
          "type": "string"
        }
      ],
      "stateMutability": "view",
      "type": "function"
    },
    {
      "stateMutability": "payable",
      "type": "receive"
    }
  ],
  "bytecode": "0x608060405234620002515762003759803803806200001d8162000256565b9283398101604082820312620002515781516001600160a01b0381169290839003620002515760208181015190916001600160401b03919082821162000251570191601f848185011215620002515783518381116200022657601f19946200008b8284018716850162000256565b968288528483830101116200025157839060005b8381106200023c5750506000918701015260018060a01b0319943286600254161760025580519384116200022657600754926001938481811c911680156200021b575b828210146200020557838111620001b9575b50809285116001146200014e57508394509083929160009462000142575b50501b916000199060031b1c1916176007555b600a541617600a5560006013556040516134dc90816200027d8239f35b01519250388062000112565b929484908116600760005284600020946000905b888383106200019e575050501062000184575b505050811b0160075562000125565b015160001960f88460031b161c1916905538808062000175565b85870151885590960195948501948793509081019062000162565b6007600052816000208480880160051c820192848910620001fb575b0160051c019085905b828110620001ee575050620000f4565b60008155018590620001de565b92508192620001d5565b634e487b7160e01b600052602260045260246000fd5b90607f1690620000e2565b634e487b7160e01b600052604160045260246000fd5b8181018301518982018401528592016200009f565b600080fd5b6040519190601f01601f191682016001600160401b03811183821017620002265760405256fe608060408181526004918236101561002f575b50505036156100265761002434612e54565b005b61002434612e54565b600092833560e01c91826302d05d3f146124a95750816305f182ae1461245f57816306fdde03146123b55781630b1ca49a146121a4578382630babba86146120995750816321670f2214611a815781632615c3c71461197357816328c317d7146118e357816329b84d091461172a5781633113a2ae1461169f57816332a1e16414611644578163363454ee146115f557816345ca25ed146114b15781634635fd68146113e957816353055481146113b157816354fd4d501461130757816357a32534146112ab57816360a1da8314610e1857816378bef78b14610dda5781637e4115ba14610d72578163804d747014610c9b57816381bc3f8c14610bb3578163918f968714610b78578163a230c52414610b3b578163a6f9dae114610aab578163acf36e5314610a07578163b6afd2ca14610944578163b766f86f14610925578163c127c2471461067c578163c21be6ae14610614578163ca224313146105c4578163cc18494814610563578163d7def8e7146104ff578163de8fa431146104e0578163f15596631461036c57508063f59e4f65146102c35763f5baf0d7146101d85780610012565b346102bf57816003193601126102bf57805190826003546101f8816125d8565b80855291600191808316908115610297575060011461023a575b5050506102248261023694038361252d565b51918291602083526020830190612612565b0390f35b9450600385527fc2575a0e9e593c00f959f8c92f12db2869c3395a3b0502d05e2516446f71f85b5b82861061027f575050506102248260206102369582010194610212565b80546020878701810191909152909501948101610262565b61023697508693506020925061022494915060ff191682840152151560051b82010194610212565b5080fd5b50346102bf57816003193601126102bf57805190826009546102e4816125d8565b80855291600191808316908115610297575060011461030f575050506102248261023694038361252d565b9450600985527f6e1540171b6c0c960b71a7020d9f60077f6af931a8bbf590da0223dacf75c7af5b828610610354575050506102248260206102369582010194610212565b80546020878701810191909152909501948101610337565b8383346102bf57806003193601126102bf576001600160401b039280358481116104dc5761039d9036908301612838565b916024359485116104dc57366023860112156104dc5784820135916103c183612821565b956103ce8351978861252d565b83875260209360248589019160051b830101913683116104d8576024869101915b8383106104c8575050505061040f60018060a01b03600a54163314612b2d565b83518651036104875750835b8351811015610483578061043261047e9288612b19565b51610454856104418489612b19565b51818751938285809451938492016125b5565b81016014815203019020556104698188612b19565b516104776013918254612b83565b9055612af4565b61041b565b8480f35b82606492519162461bcd60e51b8352820152601a60248201527f4172726179206c656e6774687320646f206e6f74206d617463680000000000006044820152fd5b82358152918101918691016103ef565b8780fd5b8380fd5b5050346102bf57816003193601126102bf57602090600b549051908152f35b828434610560576020366003190112610560578235906001600160401b038211610560575061054b6020610539819560ff94369101612569565b818551938285809451938492016125b5565b8101600e815203019020541690519015158152f35b80fd5b5050346102bf5760209161058d610579366126be565b9490818551938285809451938492016125b5565b8101601181520301902090815484101561056057506020926105ae916127c8565b905491519160018060a01b039160031b1c168152f35b5050346102bf5780602092836105f06105dc366127e0565b9290818651938285809451938492016125b5565b6010908201908152030190206001600160a01b039091168252845220549051908152f35b828434610560576020366003190112610560578235906001600160401b038211610560575060209261064891369101612569565b8261065b835192838151938492016125b5565b600c908201908152819003830190205490516001600160a01b039091168152f35b839150346102bf5761068d366126ef565b338452602092808452600160ff87872054161515148015610911575b6106b290613428565b6001600160a01b03838116808752828652878720549094919060ff166108d7578751908451918781818801946106e98183886125b5565b81016005815203019020541661089c578654600160401b81101561088957610761918661073c61071f8460018c96018d55612731565b819391549060031b9160018060a01b03809116831b921b19161790565b905586895260068252610751868b8b2061293c565b89518093819288519283916125b5565b81016005815203019020846001600160601b0360a01b825416179055838652818552868620600160ff198254161790558651868087830163acf36e5360e01b93848252306024820152602481526107b781612512565b5190855afa6107c4612b90565b5061080d575b5050506108079085807f7c803c00251fe8138e27cfa8286be8d98625e5f6476ca6ca594f682362b711209697519586958652850152830190612612565b0390a180f35b86918291828a518981019283523060248201526024815261082d81612512565b51925af1610839612b90565b50156108465780806107ca565b855162461bcd60e51b8152908101849052601760248201527f4661696c656420746f2063726561746520706172656e740000000000000000006044820152606490fd5b634e487b7160e01b885260418452602488fd5b875162461bcd60e51b815280840187905260156024820152742730b6b29034b99030b63932b0b23c903a30b5b2b760591b6044820152606490fd5b875162461bcd60e51b8152808401879052601460248201527313595b58995c88185b1c9958591e48185919195960621b6044820152606490fd5b506002546001600160a01b031633146106a9565b5050346102bf57816003193601126102bf576020906013549051908152f35b828434610560578060031936011261056057908051918290805491828552602080950180938380527f290decd9548b62a8d60345a988386fc84ba6bc95484008f6362f93160ef3e56390845b8181106109ea57505050816109a691038261252d565b83519485948186019282875251809352850193925b8281106109ca57505050500390f35b83516001600160a01b0316855286955093810193928101926001016109bb565b82546001600160a01b031684529288019260019283019201610990565b8390346102bf5760203660031901126102bf57610a22612637565b9060015490600160401b821015610a98576001820180600155821015610a8557507fb10e2d527612073b26eecdfd717e6a320cf44b4afac2b0732d9fcbe2b7fa0cf60180546001600160a01b0319166001600160a01b0390921691909117905580f35b634e487b7160e01b845260329052602483fd5b634e487b7160e01b845260419052602483fd5b91905034610b37576020366003190112610b3757610ac7612637565b600254926001600160a01b03928385163303610af457505016906001600160601b0360a01b161760025580f35b906020606492519162461bcd60e51b8352820152601f60248201527f4f6e6c79206f776e65722063616e206368616e676520746865206f776e6572006044820152fd5b8280fd5b905034610b37576020366003190112610b375760209260ff918391906001600160a01b03610b67612637565b168252855220541690519015158152f35b8390346102bf5760203660031901126102bf5780356001600160401b038111610b3757610bb091610bab91369101612569565b612a7c565b80f35b5050346102bf5760209081600319360112610b37576001600160a01b03610bd8612637565b16835260068252808320815193849181815490610bf4826125d8565b92838652600192888482169182600014610c71575050600114610c33575b858861023689610c24848a038561252d565b51928284938452830190612612565b87945081939291528383205b828410610c595750505082010181610c2461023638610c12565b8054848a018601528895508794909301928101610c3f565b60ff19168882015294151560051b87019094019450859350610c2492506102369150389050610c12565b839150346102bf5760209081600319360112610b375780356001600160401b0381116104dc57610ccd91369101612838565b92610ce360018060a01b03600a541633146128d9565b825b8451811015610d6e5780610cfc610d609287612b19565b518351908051918660ff81840194610d158185886125b5565b8301928281600e95868152030190205416610d6557610d5b93610d429288518094819387519283916125b5565b820190815203019020805460ff19166001179055612a35565b612af4565b610ce5565b50505050612af4565b8380f35b828434610560576020366003190112610560578235906001600160401b0382116105605750602092610da691369101612569565b82610db9835192838151938492016125b5565b6005908201908152819003830190205490516001600160a01b039091168152f35b836020610e13610e018287610dee366126be565b95909151938285809451938492016125b5565b8101600f815203019020918254612b83565b905580f35b91905034610b3757610e29366127e0565b919081519281519060ff602095868181870195610e478183896125b5565b8101600d8152030190205416611268578351958351610e678189866125b5565b600c9088019081528790038601909620546001600160a01b039690871661126357845186818651610e998183896125b5565b8101600c8152030190208783166001600160601b0360a01b8254161790555b86600a5416330361120c57845186818651610ed48183896125b5565b8101600f81520301902054878316156111c957808991611172575b50855187818751610f0181838a6125b5565b8101600f8152030190205586600a5416330361111a578451968451610f27818a876125b5565b880197878160119a8b815203019020865180828a8294549384815201908d528a8d20928d5b8c82821061110257505050610f639250038261252d565b895b875189818951610f7681838c6125b5565b81018d815203019020548110156110d4578a8984610f948486612b19565b51168a8981518c51610fa78183856125b5565b81019085816010938481520301902089610fc1898b612b19565b5116875285528c838720549384610fe9575b5050505050505050610fe490612af4565b610f65565b9261100592879261107a979695519485938492519283916125b5565b82019081520301902088611019888a612b19565b511686528452848d8120558761102f8789612b19565b51168552601284528c8520611045828254612bc0565b90558c5163a9059cbb60e01b81526001600160a01b038b168a8201908152602081019290925294859384928391604090910190565b03925af180156110ca5790610fe4929161109d575b8c919281898d938c8e610fd3565b6110bc908b3d8d116110c3575b6110b4818361252d565b810190612bcd565b503861108f565b503d6110aa565b89513d8e823e3d90fd5b875187518c91908b9082906110ea81838d6125b5565b8101600d815203019020600160ff1982541617905580f35b85548816845260019586019587955093019201610f4c565b845162461bcd60e51b8152908101869052602c60248201527f4f6e6c792063726561746f722063616e207375626d697420616e20757365722060448201526b636c61696d20546f6b656e7360a01b6064820152608490fd5b81808092865af1611181612b90565b501561118e578738610eef565b845162461bcd60e51b8152908101869052601560248201527410db185a5b5a5b99c8115d1a195c8819985a5b1959605a1b6044820152606490fd5b855162461bcd60e51b8152808301889052601b60248201527f496e76616c69642062656e6566696369617279206164647265737300000000006044820152606490fd5b845162461bcd60e51b8152908101869052602b60248201527f4f6e6c792063726561746f722063616e207375626d697420616e20757365722060448201526a31b630b4b69022ba3432b960a91b6064820152608490fd5b610eb8565b835162461bcd60e51b8152808701869052601860248201527f557365722068617320616c726561647920636c61696d656400000000000000006044820152606490fd5b828434610560576020366003190112610560578235906001600160401b038211610560575060206112e381946112f593369101612569565b818451938285809451938492016125b5565b8101600f815203019020549051908152f35b5050346102bf57816003193601126102bf5780519082600854611329816125d8565b808552916001918083169081156102975750600114611354575050506102248261023694038361252d565b9450600885527ff3f7a9fe364faab93b216da50a3214154f22a0a2b415b23a84c8169e8b636ee35b828610611399575050506102248260206102369582010194610212565b8054602087870181019190915290950194810161137c565b5050346102bf5760203660031901126102bf5760209181906001600160a01b036113d9612637565b1681526012845220549051908152f35b91905034610b3757602091826003193601126104dc578035600b548110156114ad576114149061277b565b91909161149b575081519384918181549061142e826125d8565b92838652600192888482169182600014610c7157505060011461145d57858861023689610c24848a038561252d565b87945081939291528383205b8284106114835750505082010181610c2461023638610c12565b8054848a018601528895508794909301928101611469565b634e487b7160e01b8552849052602484fd5b8480fd5b839150346102bf576114c2366126ef565b916001600160a01b03918216913383149081156115e7575b5080156115de575b15611580575092610bb09293815160208185516115028183858a016125b5565b81016005815203019020816001600160601b0360a01b82541617905580855260066020527ffdcc9059d3426f73949b49e5d977553aa298184439da800d66f48959d9cc76b061156183872061156f855192839287845287840190612dbe565b828103602084015287612612565b0390a184526006602052832061293c565b608490602086519162461bcd60e51b8352820152603260248201527f4e616d65206368616e67652072657175657374206e6f742073656e742066726f604482015271369036b2b6b132b9103737b91037bbb732b960711b6064820152fd5b503282146114e2565b9050600254163314866114da565b828434610560576020366003190112610560578235906001600160401b038211610560575061162f6020610539819560ff94369101612569565b8101600d815203019020541690519015158152f35b5050346102bf576020611699916116868261165e366126be565b94859461167660018060a01b03600a54163314612b2d565b51938285809451938492016125b5565b8101601481520301902055601354612b83565b60135580f35b8284346105605780600319360112610560578151918291600180548086526020809601958284527fb10e2d527612073b26eecdfd717e6a320cf44b4afac2b0732d9fcbe2b7fa0cf693905b82821061170c576102368787611702828c038361252d565b519182918261267a565b84546001600160a01b031688529687019693830193908301906116ea565b839150346102bf5760209283600319360112610b37576001600160401b039180358381116114ad5761175f903690830161264d565b60025490949193906001600160a01b031633036118a157508311610a9857506117896003546125d8565b601f811161184d575b508293601f83116001146117cf57509282938293926117c4575b50508160011b916000199060031b1c19161760035580f35b0135905083806117ac565b601f198316947fc2575a0e9e593c00f959f8c92f12db2869c3395a3b0502d05e2516446f71f85b929185905b87821061183557505083600195961061181b575b505050811b0160035580f35b0135600019600384901b60f8161c1916905583808061180f565b806001849682949587013581550195019201906117fb565b611891907fc2575a0e9e593c00f959f8c92f12db2869c3395a3b0502d05e2516446f71f85b601f850160051c810191878610611897575b601f0160051c0190612925565b84611792565b9091508190611884565b5162461bcd60e51b8152808301879052601f60248201527f4f6e6c79206f776e65722063616e2073657420746865206d616e6966657374006044820152606490fd5b91905034610b3757602091826003193601126104dc578035906001600160401b0382116114ad576112e3849161191b93369101612569565b810160118152030190209281518093808654928381520195835280832092905b828210611953576102368686611702828b038361252d565b83546001600160a01b03168752958601956001938401939091019061193b565b8383346102bf5760603660031901126102bf5782356001600160401b038111610b37576119a39036908501612569565b6024356001600160a01b0381169291908390036104dc5760443592611a2a8351835160209482868094818401946119db8183886125b5565b81016010815203019020858a5283528651838183516119fb8183886125b5565b81016010815203019020858a528352868920611a18898254612b83565b905586519384928392519283916125b5565b81016011815203019020805490600160401b821015611a6e579180611a5f61071f846012966001610e139a99970181556127c8565b90558652528320918254612b83565b634e487b7160e01b875260418852602487fd5b839150826003193601126102bf57611a97612637565b60249291829084358234151580612088575b15611fa257505034946001925b805b600b5480821015611f0f57601354908115611eff5750611ae0611ada8361277b565b50612c05565b54898102908082048b1490151715611eec5790611afc91612be5565b80611b11575b50611b0c90612af4565b611ab8565b611b32908a8487611b218661277b565b506001600160a01b03958691612c98565b5416948c863b1515948c600014611ca857505050505060ff611b5c611b568661277b565b50612d2b565b541615611bf3578480808085875af1611b73612b90565b5015611bbe5790611b0c9392918c51918252602082015260038c606080918401528201526208aa8960eb1b608082015260008051602061348783398151915260a03092a35b90611b02565b508a5162461bcd60e51b8152602081880152600f818701526e151c985b9cd9995c8819985a5b1959608a1b6044820152606490fd5b909150611bff8361277b565b50303b156114ad5784611c2c918d805193849283926378bef78b60e01b84528c8401526044830190612dbe565b868a830152038183305af18015611c9e5791611b0c9493918693611c8f575b508c519182526020820152600a8c60608091840152820152690a6a89ea48a88be8aa8960b31b608082015260008051602061348783398151915260a03092a3611bb8565b611c98906124ce565b8d611c4b565b8c513d87823e3d90fd5b60ff611cb6611b568b61277b565b541615611e20575163a9059cbb60e01b81526001600160a01b038816938101938452602080850188905294909385938593918490036040019284929091165af18015611e1657888f611d538e611d4589938d978897611df9575b50516310b3879160e11b8982019081526001600160a01b03909316958101958652602086019490945290938391604090910190565b03601f19810183528261252d565b519082885af1611d61612b90565b5015611dab5790611b0c949392918d5192835282015260058c6060809184015282015264045524332360dc1b608082015260008051602061348783398151915260a03092a3611bb8565b8c5162461bcd60e51b8152808901919091526022818801527f556e61626c6520746f2063616c6c20746865207265776172642066756e63746960448201526137b760f11b6064820152608490fd5b611e0f908a3d8c116110c3576110b4818361252d565b5038611d10565b8e513d89823e3d90fd5b5050929394505050611e318461277b565b50303b15611ee8579085611e658994938f8d90519485938493632615c3c760e01b85526060809a8601526064850190612dbe565b91168b830152876044830152038183305af18015611ede5792808e611b0c979694600c948a97611ecf575b50815195865260208601528401528201526b053544f5245445f45524332360a41b608082015260008051602061348783398151915260a03092a3611bb8565b611ed8906124ce565b38611e90565b8d513d88823e3d90fd5b8580fd5b5050634e487b7160e01b82525060118352fd5b611f0a915089612be5565b611afc565b600b5483907fd83308e9158842b2115ec5e6f6395db42fff24e4b5506ef42fe33854fafad6558b60608e8b15611f7f578051611f4a816124f7565b600381526208aa8960eb1b6020820152945b8151938452602084015282015280611f7930946060830190612612565b0390a280f35b8051611f8a816124f7565b6005815264045524332360dc1b602082015294611f5c565b87516370a0823160e01b8152308482015291966001600160a01b038616965090939091602090818185818b5afa90811561207e57908991849161204b575b50888452601283528a842054611ff591612bc0565b106120005750611ab6565b836021846084938c519362461bcd60e51b85528401528201527f4e6f7420656e6f75676820746f6b656e7320696e2074686520636f6e747261636044820152601d60fa1b6064820152fd5b809250838092503d8311612077575b612064818361252d565b81010312610b3757518890611ff5611fe0565b503d61205a565b8a513d85823e3d90fd5b506001600160a01b03851615611aa9565b915091346102bf5760031992606036850112610b37576001600160401b039381358581116114ad576120ce903690840161264d565b919095602435908111611ee857612134956020946120f16060933690830161264d565b98909460018060a01b03998a600a5416966121258b519d8e9a8b998a986305d5dd4360e11b8a5289015260648801916128b8565b928584030160248601526128b8565b604435604483015203925af192831561219a57849361215a575b50602093505191168152f35b9092506020813d8211612192575b816121756020938361252d565b810103126104dc575181811681036104dc5760209350913861214e565b3d9150612168565b81513d86823e3d90fd5b828434610560576020806003193601126102bf576121c3939293612637565b9360018060a01b03936121db85600254163314613428565b84849616955b8454808210156123aa578690886121f784612731565b939054600394851b1c161461221657505061221190612af4565b6121e1565b876122399261222d61071f939a969798999a612731565b9054911b1c1692612731565b90555b8454801561239757600019019061225282612731565b909182549160031b1b19169055845584845282528083209360ff1994858154169055600683527f982d6fac85d22cbbe833f9fe4278a909ca0f3b24ecc8b1f10fe63736e3c723136122b58386208451918291858352868884015286830190612dbe565b0390a18084526006835281842082519085968154916122d3836125d8565b9260019283821691821561238057505060011461234d575b50505083818760056000989952030190206001600160601b0360a01b815416905584526006825283209061231f82546125d8565b601f811161232e575b50505580f35b601f612346928487528620910160051c810190612925565b8380612328565b875285872091975086915b88831061236f5750505094850194838160006122eb565b805484840152918601918101612358565b1685525050508015150281019550838160006122eb565b634e487b7160e01b865260318352602486fd5b50509091929361223c565b5050346102bf57816003193601126102bf57805190826007546123d7816125d8565b808552916001918083169081156102975750600114612402575050506102248261023694038361252d565b9450600785527fa66cc928b5edb82af9bd49922954155ab7b0942694bea4ce44661d9a8736c6885b828610612447575050506102248260206102369582010194610212565b8054602087870181019190915290950194810161242a565b828434610560576020366003190112610560578235906001600160401b038211610560575060206112e3819461249793369101612569565b81016014815203019020549051908152f35b8490346102bf57816003193601126102bf57600a546001600160a01b03168152602090f35b6001600160401b0381116124e157604052565b634e487b7160e01b600052604160045260246000fd5b604081019081106001600160401b038211176124e157604052565b606081019081106001600160401b038211176124e157604052565b90601f801991011681019081106001600160401b038211176124e157604052565b6001600160401b0381116124e157601f01601f191660200190565b81601f820112156125b0578035906125808261254e565b9261258e604051948561252d565b828452602083830101116125b057816000926020809301838601378301015290565b600080fd5b60005b8381106125c85750506000910152565b81810151838201526020016125b8565b90600182811c92168015612608575b60208310146125f257565b634e487b7160e01b600052602260045260246000fd5b91607f16916125e7565b9060209161262b815180928185528580860191016125b5565b601f01601f1916010190565b600435906001600160a01b03821682036125b057565b9181601f840112156125b0578235916001600160401b0383116125b057602083818601950101116125b057565b6020908160408183019282815285518094520193019160005b8281106126a1575050505090565b83516001600160a01b031685529381019392810192600101612693565b60406003198201126125b057600435906001600160401b0382116125b0576126e891600401612569565b9060243590565b9060406003198301126125b0576004356001600160a01b03811681036125b05791602435906001600160401b0382116125b05761272e91600401612569565b90565b906000918254811015612767578280527f290decd9548b62a8d60345a988386fc84ba6bc95484008f6362f93160ef3e563019190565b634e487b7160e01b83526032600452602483fd5b600b548110156127b257600b6000527f0175b7a638427703f0dbe7bb9bbf987a2551717b34e79f33b5b1008d1fa01db90190600090565b634e487b7160e01b600052603260045260246000fd5b80548210156127b25760005260206000200190600090565b60406003198201126125b057600435906001600160401b0382116125b05761280a91600401612569565b906024356001600160a01b03811681036125b05790565b6001600160401b0381116124e15760051b60200190565b9080601f830112156125b05781359061285082612821565b9261285e604051948561252d565b828452602092838086019160051b830101928084116125b057848301915b84831061288c5750505050505090565b82356001600160401b0381116125b05786916128ad84848094890101612569565b81520192019161287c565b908060209392818452848401376000828201840152601f01601f1916010190565b156128e057565b60405162461bcd60e51b815260206004820152601c60248201527f4f6e6c792063726561746f722063616e20616464206d656d62657273000000006044820152606490fd5b818110612930575050565b60008155600101612925565b91909182516001600160401b0381116124e15761295982546125d8565b601f8111612a03575b50602080601f831160011461299f575081929394600092612994575b50508160011b916000199060031b1c1916179055565b01519050388061297e565b90601f198316958460005282600020926000905b8882106129eb575050836001959697106129d2575b505050811b019055565b015160001960f88460031b161c191690553880806129c8565b806001859682949686015181550195019301906129b3565b612a2f90836000526020600020601f840160051c8101916020851061189757601f0160051c0190612925565b38612962565b600b54600160401b8110156124e157806001612a549201600b5561277b565b919091612a6657612a649161293c565b565b634e487b7160e01b600052600060045260246000fd5b612a9160018060a01b03600a541633146128d9565b6040519060ff81519260208181850195612aac8183896125b5565b8101600e8152030190205416612af057612ad66020612a64936040518093819286519283916125b5565b8101600e815203019020600160ff19825416179055612a35565b5050565b6000198114612b035760010190565b634e487b7160e01b600052601160045260246000fd5b80518210156127b25760209160051b010190565b15612b3457565b60405162461bcd60e51b815260206004820152602160248201527f4f6e6c792063726561746f722063616e2073657420617070726563696174696f6044820152603760f91b6064820152608490fd5b91908201809211612b0357565b3d15612bbb573d90612ba18261254e565b91612baf604051938461252d565b82523d6000602084013e565b606090565b91908203918211612b0357565b908160209103126125b0575180151581036125b05790565b8115612bef570490565b634e487b7160e01b600052601260045260246000fd5b604051908160008254612c17816125d8565b93600191808316908115612c7c5750600114612c3f575b505060209250601481520301902090565b90915060005260209081600020906000915b858310612c68575050505060209181013880612c2e565b805487840152869450918301918101612c51565b92505050602093915060ff191682528015150281013880612c2e565b604051908160008254612caa816125d8565b93600191808316908115612d0f5750600114612cd2575b505060209250600c81520301902090565b90915060005260209081600020906000915b858310612cfb575050505060209181013880612cc1565b805487840152869450918301918101612ce4565b92505050602093915060ff191682528015150281013880612cc1565b604051908160008254612d3d816125d8565b93600191808316908115612da25750600114612d65575b505060209250600d81520301902090565b90915060005260209081600020906000915b858310612d8e575050505060209181013880612d54565b805487840152869450918301918101612d77565b92505050602093915060ff191682528015150281013880612d54565b9060009291805491612dcf836125d8565b918282526001938481169081600014612e315750600114612df1575b50505050565b90919394506000526020928360002092846000945b838610612e1d575050505001019038808080612deb565b805485870183015294019385908201612e06565b9294505050602093945060ff191683830152151560051b01019038808080612deb565b906000809234151580613420575b1561334157505034916001925b60005b600b54808210156132a9576013549081156132985750612e94611ada8361277b565b549083820291808304851490151715612b0357612eb091612be5565b905b81612ec7575b612ec29150612af4565b612e72565b612ee591612ed48261277b565b506001600160a01b03938491612c98565b541690813b15159388600014613058575060ff612f04611b568561277b565b541615612f9b57600080808084865af1612f1c612b90565b5015612f64576003612ec29460409081519384526020840152606080918401528201526208aa8960eb1b608082015260008051602061348783398151915260a03092a3612eb8565b60405162461bcd60e51b815260206004820152600f60248201526e151c985b9cd9995c8819985a5b1959608a1b6044820152606490fd5b91929050612fa88361277b565b5090303b156125b057612fd960006040938451809381926378bef78b60e01b83528760048401526044830190612dbe565b876024830152038183305af1801561304d5792612ec2959492600a9260009561303e575b508151938452602084015260608091840152820152690a6a89ea48a88be8aa8960b31b608082015260008051602061348783398151915260a03092a3612eb8565b613047906124ce565b38612ffd565b83513d6000823e3d90fd5b9091929360ff61306a611b568761277b565b5416156131df576040805163a9059cbb60e01b81526001600160a01b0386166004808301919091526024820186905293919291602091908290829060449082906000908f165af180156131d4576131b7575b508251938185016310b3879160e11b8152602460008188015260449188838901528288526080978881018181106001600160401b038211176131a357885251600091829190828d5af161310d612b90565b50156131595750505082612ec2979695949260059264045524332360dc1b95519687528601526060809186015284015282015260008051602061348783398151915260a03092a3612eb8565b9060227f556e61626c6520746f2063616c6c20746865207265776172642066756e6374699260849588519562461bcd60e51b87528601528401528201526137b760f11b6064820152fd5b83604187634e487b7160e01b600052526000fd5b6131cd90823d84116110c3576110b4818361252d565b50386130bc565b84513d6000823e3d90fd5b919250506131ec8361277b565b5090303b156125b0576040908151632615c3c760e01b81526000818061321e6060978860048401526064830190612dbe565b836024830152886044830152038183305af1801561304d5793612ec2969593600c938293600097613289575b50815195865260208601528401528201526b053544f5245445f45524332360a41b608082015260008051602061348783398151915260a03092a3612eb8565b613292906124ce565b3861324a565b6132a3915083612be5565b90612eb2565b5050600b5492937fd83308e9158842b2115ec5e6f6395db42fff24e4b5506ef42fe33854fafad65592501561331d576040516132e4816124f7565b600381526208aa8960eb1b6020820152925b6040519182526020820152606060408201528061331830946060830190612612565b0390a2565b604051613329816124f7565b6005815264045524332360dc1b6020820152926132f6565b6040516370a0823160e01b815230600482015291935083916020908181602481875afa801561341557839187916133e2575b5086805260128352604087205461338991612bc0565b106133945750612e6f565b6084906040519062461bcd60e51b82526004820152602160248201527f4e6f7420656e6f75676820746f6b656e7320696e2074686520636f6e747261636044820152601d60fa1b6064820152fd5b809250838092503d831161340e575b6133fb818361252d565b81010312611ee857518290613389613373565b503d6133f1565b6040513d88823e3d90fd5b506001612e62565b1561342f57565b60405162461bcd60e51b815260206004820152602960248201527f52657175657374207375626d69747465642062792061206e6f6e2d6d656d626560448201526872206164647265737360b81b6064820152608490fdfe7d6a6b7452c2fec7981096e354fb3311f3f3b800ff27def1017b22cbff275190a2646970667358221220bee251031f1fd7937cb594fae3d96fa49a45a8d894b6aa64597cd57282ef6cfa64736f6c63430008140033",
  "linkReferences": {},
  "deployedLinkReferences": {}
}