{
  "_format": "hh-sol-artifact-1",
  "contractName": "Splitter",
  "sourceName": "contracts/Splitter.sol",
  "abi": [
    {
      "inputs": [
        {
          "internalType": "address",
          "name": "_creator",
          "type": "address"
        },
        {
          "internalType": "string",
          "name": "_name",
          "type": "string"
        },
        {
          "internalType": "uint256",
          "name": "_parameter",
          "type": "uint256"
        }
      ],
      "stateMutability": "nonpayable",
      "type": "constructor"
    },
    {
      "anonymous": false,
      "inputs": [
        {
          "indexed": false,
          "internalType": "address",
          "name": "member",
          "type": "address"
        },
        {
          "indexed": false,
          "internalType": "string",
          "name": "name",
          "type": "string"
        }
      ],
      "name": "AddedMember",
      "type": "event"
    },
    {
      "anonymous": false,
      "inputs": [
        {
          "indexed": false,
          "internalType": "string",
          "name": "namefrom",
          "type": "string"
        },
        {
          "indexed": false,
          "internalType": "string",
          "name": "nameto",
          "type": "string"
        }
      ],
      "name": "ChangedName",
      "type": "event"
    },
    {
      "anonymous": false,
      "inputs": [
        {
          "indexed": false,
          "internalType": "address",
          "name": "holon",
          "type": "address"
        },
        {
          "indexed": false,
          "internalType": "string",
          "name": "token",
          "type": "string"
        },
        {
          "indexed": false,
          "internalType": "uint256",
          "name": "amount",
          "type": "uint256"
        }
      ],
      "name": "HolonRewarded",
      "type": "event"
    },
    {
      "anonymous": false,
      "inputs": [
        {
          "indexed": false,
          "internalType": "address",
          "name": "member",
          "type": "address"
        },
        {
          "indexed": false,
          "internalType": "string",
          "name": "name",
          "type": "string"
        }
      ],
      "name": "RemovedMember",
      "type": "event"
    },
    {
      "anonymous": false,
      "inputs": [
        {
          "indexed": true,
          "internalType": "address",
          "name": "member",
          "type": "address"
        },
        {
          "indexed": false,
          "internalType": "address",
          "name": "token",
          "type": "address"
        },
        {
          "indexed": false,
          "internalType": "uint256",
          "name": "amount",
          "type": "uint256"
        }
      ],
      "name": "RewardFailed",
      "type": "event"
    },
    {
      "stateMutability": "payable",
      "type": "fallback"
    },
    {
      "inputs": [
        {
          "internalType": "address",
          "name": "_memberaddress",
          "type": "address"
        },
        {
          "internalType": "string",
          "name": "_membername",
          "type": "string"
        }
      ],
      "name": "addMember",
      "outputs": [],
      "stateMutability": "nonpayable",
      "type": "function"
    },
    {
      "inputs": [
        {
          "internalType": "address",
          "name": "_parentaddress",
          "type": "address"
        }
      ],
      "name": "addParent",
      "outputs": [],
      "stateMutability": "nonpayable",
      "type": "function"
    },
    {
      "inputs": [
        {
          "internalType": "address",
          "name": "_address",
          "type": "address"
        },
        {
          "internalType": "string",
          "name": "_name",
          "type": "string"
        }
      ],
      "name": "changeName",
      "outputs": [],
      "stateMutability": "nonpayable",
      "type": "function"
    },
    {
      "inputs": [
        {
          "internalType": "address",
          "name": "_address",
          "type": "address"
        }
      ],
      "name": "changeOwner",
      "outputs": [],
      "stateMutability": "nonpayable",
      "type": "function"
    },
    {
      "inputs": [],
      "name": "creator",
      "outputs": [
        {
          "internalType": "address",
          "name": "",
          "type": "address"
        }
      ],
      "stateMutability": "view",
      "type": "function"
    },
    {
      "inputs": [],
      "name": "flavor",
      "outputs": [
        {
          "internalType": "string",
          "name": "",
          "type": "string"
        }
      ],
      "stateMutability": "view",
      "type": "function"
    },
    {
      "inputs": [],
      "name": "getSize",
      "outputs": [
        {
          "internalType": "uint256",
          "name": "",
          "type": "uint256"
        }
      ],
      "stateMutability": "view",
      "type": "function"
    },
    {
      "inputs": [
        {
          "internalType": "address",
          "name": "",
          "type": "address"
        }
      ],
      "name": "isMember",
      "outputs": [
        {
          "internalType": "bool",
          "name": "",
          "type": "bool"
        }
      ],
      "stateMutability": "view",
      "type": "function"
    },
    {
      "inputs": [],
      "name": "listMembers",
      "outputs": [
        {
          "internalType": "address payable[]",
          "name": "",
          "type": "address[]"
        }
      ],
      "stateMutability": "view",
      "type": "function"
    },
    {
      "inputs": [],
      "name": "listParents",
      "outputs": [
        {
          "internalType": "address[]",
          "name": "",
          "type": "address[]"
        }
      ],
      "stateMutability": "view",
      "type": "function"
    },
    {
      "inputs": [],
      "name": "manifest",
      "outputs": [
        {
          "internalType": "string",
          "name": "",
          "type": "string"
        }
      ],
      "stateMutability": "view",
      "type": "function"
    },
    {
      "inputs": [],
      "name": "name",
      "outputs": [
        {
          "internalType": "string",
          "name": "",
          "type": "string"
        }
      ],
      "stateMutability": "view",
      "type": "function"
    },
    {
      "inputs": [
        {
          "internalType": "string",
          "name": "_flavor",
          "type": "string"
        },
        {
          "internalType": "string",
          "name": "_name",
          "type": "string"
        },
        {
          "internalType": "uint256",
          "name": "_parameter",
          "type": "uint256"
        }
      ],
      "name": "newHolon",
      "outputs": [
        {
          "internalType": "address",
          "name": "",
          "type": "address"
        }
      ],
      "stateMutability": "nonpayable",
      "type": "function"
    },
    {
      "inputs": [
        {
          "internalType": "address",
          "name": "",
          "type": "address"
        }
      ],
      "name": "percentages",
      "outputs": [
        {
          "internalType": "uint256",
          "name": "",
          "type": "uint256"
        }
      ],
      "stateMutability": "view",
      "type": "function"
    },
    {
      "inputs": [
        {
          "internalType": "address",
          "name": "_memberaddress",
          "type": "address"
        }
      ],
      "name": "removeMember",
      "outputs": [],
      "stateMutability": "nonpayable",
      "type": "function"
    },
    {
      "inputs": [
        {
          "internalType": "address",
          "name": "_tokenaddress",
          "type": "address"
        },
        {
          "internalType": "uint256",
          "name": "_tokenamount",
          "type": "uint256"
        }
      ],
      "name": "reward",
      "outputs": [],
      "stateMutability": "payable",
      "type": "function"
    },
    {
      "inputs": [
        {
          "internalType": "string",
          "name": "_IPFSHash",
          "type": "string"
        }
      ],
      "name": "setManifest",
      "outputs": [],
      "stateMutability": "nonpayable",
      "type": "function"
    },
    {
      "inputs": [
        {
          "internalType": "address[]",
          "name": "members",
          "type": "address[]"
        },
        {
          "internalType": "uint256[]",
          "name": "percentage",
          "type": "uint256[]"
        }
      ],
      "name": "setSplit",
      "outputs": [],
      "stateMutability": "nonpayable",
      "type": "function"
    },
    {
      "inputs": [
        {
          "internalType": "string",
          "name": "",
          "type": "string"
        }
      ],
      "name": "toAddress",
      "outputs": [
        {
          "internalType": "address",
          "name": "",
          "type": "address"
        }
      ],
      "stateMutability": "view",
      "type": "function"
    },
    {
      "inputs": [
        {
          "internalType": "address",
          "name": "",
          "type": "address"
        }
      ],
      "name": "toName",
      "outputs": [
        {
          "internalType": "string",
          "name": "",
          "type": "string"
        }
      ],
      "stateMutability": "view",
      "type": "function"
    },
    {
      "inputs": [],
      "name": "version",
      "outputs": [
        {
          "internalType": "string",
          "name": "",
          "type": "string"
        }
      ],
      "stateMutability": "view",
      "type": "function"
    },
    {
      "stateMutability": "payable",
      "type": "receive"
    }
  ],
  "bytecode": "0x6080604052346200026757620023c0803803806200001d816200026c565b928339810190606081830312620002675780516001600160a01b038116929083900362000267576020828101516001600160401b039391929184821162000267570192601f91808386011215620002675784518281116200023c57601f19956200008d828601881687016200026c565b928284528683830101116200026757859060005b838110620002525750506000918301015260018060a01b0319943286600254161760025581519283116200023c578291620000de60075462000292565b858111620001fe575b50859185841160011462000193575060009262000187575b50508160011b916000199060031b1c1916176007555b8383600a541617600a556200012c60095462000292565b9080821162000163575b50505060106729b83634ba3a32b960c11b0160095560025416176002556040516120d79081620002e98239f35b6200017e926009600052600020910160051c810190620002cf565b38808062000136565b015190503880620000ff565b909216916007600052856000209260005b87828210620001e7575050908460019594939210620001cd575b505050811b0160075562000115565b015160001960f88460031b161c19169055388080620001be565b6001859682939686015181550195019301620001a4565b6200022b906007600052876000208780870160051c8201928a881062000232575b0160051c0190620002cf565b38620000e7565b925081926200021f565b634e487b7160e01b600052604160045260246000fd5b818101830151858201840152879201620000a1565b600080fd5b6040519190601f01601f191682016001600160401b038111838210176200023c57604052565b90600182811c92168015620002c4575b6020831014620002ae57565b634e487b7160e01b600052602260045260246000fd5b91607f1691620002a2565b818110620002db575050565b60008155600101620002cf56fe608060408181526004918236101561002f575b50505036156100265761002434611da0565b005b61002434611da0565b600092833560e01c91826302d05d3f146119585750816306fdde03146118ae5781630b1ca49a1461169d578382630babba861461158e5750816321670f221461124a57816329b84d091461108d5781633113a2ae14610fd257816345ca25ed14610dc257816354fd4d5014610d185781637e4115ba14610cb057816381bc3f8c14610bc85781639d592c6614610b90578163a230c52414610b53578163a6f9dae114610ac3578163ac246ee7146107b5578163acf36e5314610711578163b6afd2ca1461064b578163c127c247146102d857508063de8fa431146102bc578063f59e4f65146102135763f5baf0d7146101285780610012565b3461020f578160031936011261020f57805190826003546101488161197d565b808552916001918083169081156101e7575060011461018a575b50505061017482610186940383611a03565b51918291602083526020830190611a47565b0390f35b9450600385527fc2575a0e9e593c00f959f8c92f12db2869c3395a3b0502d05e2516446f71f85b5b8286106101cf575050506101748260206101869582010194610162565b805460208787018101919091529095019481016101b2565b61018697508693506020925061017494915060ff191682840152151560051b82010194610162565b5080fd5b503461020f578160031936011261020f57805190826009546102348161197d565b808552916001918083169081156101e7575060011461025f5750505061017482610186940383611a03565b9450600985527f6e1540171b6c0c960b71a7020d9f60077f6af931a8bbf590da0223dacf75c7af5b8286106102a4575050506101748260206101869582010194610162565b80546020878701810191909152909501948101610287565b503461020f578160031936011261020f57602091549051908152f35b8391503461020f576102e936611b16565b3384526020928084526001928360ff88882054161515148015610637575b61031090611b90565b6001600160a01b03818116808852838752888820549095919060ff166105fd57885190855191888181890194610347818388611a24565b8101600581520301902054166105c2578754600160401b8110156105af5761039461037782858a94018c55611bee565b819391549060031b9160018060a01b03809116831b921b19161790565b905585885260068752888820908551916001600160401b03831161059c5790816103c9846103c38c955461197d565b83611c4f565b8293601f81116001146105375780610405958d9161052c575b50600019600383901b1c191690861b1790555b8a51809381928951928391611a24565b81016005815203019020856001600160601b0360a01b8254161790558487528286528787209060ff198254161790558651868087830163acf36e5360e01b938482523060248201526024815261045a816119e8565b5190855afa610467611c8b565b506104b0575b5050506104aa9085807f7c803c00251fe8138e27cfa8286be8d98625e5f6476ca6ca594f682362b711209697519586958652850152830190611a47565b0390a180f35b86918291828a51898101928352306024820152602481526104d0816119e8565b51925af16104dc611c8b565b50156104e957808061046d565b855162461bcd60e51b8152908101849052601760248201527f4661696c656420746f2063726561746520706172656e740000000000000000006044820152606490fd5b90508901518e6103e2565b85908c8a96601f198316858352878320925b818110610582575061040598508311610569575b5050811b0190556103f5565b8b015160001960f88460031b161c191690558e8061055d565b9882015183558c988f988b96909401939283019201610549565b634e487b7160e01b8a526041865260248afd5b634e487b7160e01b895260418552602489fd5b885162461bcd60e51b815280850188905260156024820152742730b6b29034b99030b63932b0b23c903a30b5b2b760591b6044820152606490fd5b885162461bcd60e51b8152808501889052601460248201527313595b58995c88185b1c9958591e48185919195960621b6044820152606490fd5b506002546001600160a01b03163314610307565b82843461070e578060031936011261070e57908051918290805491828552602080950180938380527f290decd9548b62a8d60345a988386fc84ba6bc95484008f6362f93160ef3e56390845b8181106106f157505050816106ad910382611a03565b83519485948186019282875251809352850193925b8281106106d157505050500390f35b83516001600160a01b0316855286955093810193928101926001016106c2565b82546001600160a01b031684529288019260019283019201610697565b80fd5b83903461020f57602036600319011261020f5761072c611a6c565b9060015490600160401b8210156107a257600182018060015582101561078f57507fb10e2d527612073b26eecdfd717e6a320cf44b4afac2b0732d9fcbe2b7fa0cf60180546001600160a01b0319166001600160a01b0390921691909117905580f35b634e487b7160e01b845260329052602483fd5b634e487b7160e01b845260419052602483fd5b83833461020f578060031936011261020f578235916001600160401b039384841161020f573660238501121561020f5783810135946107f386611b58565b6107ff85519182611a03565b8681526020958682016024809960051b83010191368311610a98578901905b828210610aa0575050508635918211610a9c5736602383011215610a9c57818301359161084a83611b58565b9261085787519485611a03565b808452888885019160051b83010191368311610a985789899101915b838310610a885750506002546001600160a01b039250821633039050610a385781518554036109d057815183510361097e57849585965b84518810156108e9576108bd8886611d76565b5181018091116108d7576108d19097611cbb565b966108aa565b634e487b7160e01b8752601186528987fd5b8694868b60648c940361093c575050855b855181101561093857806109116109339284611d76565b518661091c83611bee565b90549060031b1c168952600b855285892055611cbb565b6108fa565b8680f35b845162461bcd60e51b8152918201849052601e908201527f546f74616c2070657263656e746167652073686f756c642062652031303000006044820152606490fd5b855162461bcd60e51b81528085018890526027818a01527f4d656d6265727320616e642070657263656e74616765732073686f756c6420626044820152661948195c5d585b60ca1b6064820152608490fd5b855162461bcd60e51b81528085018890526039818a01527f4d656d626572732061727261792073686f756c6420626520657175616c20746f60448201527f207468652066756c6c206c697374206f66206d656d62657273000000000000006064820152608490fd5b855162461bcd60e51b81528085018890526025818a01527f4f6e6c792073706c6974746572206f776e65722063616e2073657420746865206044820152641cdc1b1a5d60da1b6064820152608490fd5b8235815291810191899101610873565b8680fd5b8380fd5b81356001600160a01b0381168103610abf57815290880190880161081e565b8780fd5b91905034610b4f576020366003190112610b4f57610adf611a6c565b600254926001600160a01b03928385163303610b0c57505016906001600160601b0360a01b161760025580f35b906020606492519162461bcd60e51b8352820152601f60248201527f4f6e6c79206f776e65722063616e206368616e676520746865206f776e6572006044820152fd5b8280fd5b905034610b4f576020366003190112610b4f5760209260ff918391906001600160a01b03610b7f611a6c565b168252855220541690519015158152f35b50503461020f57602036600319011261020f5760209181906001600160a01b03610bb8611a6c565b168152600b845220549051908152f35b50503461020f5760209081600319360112610b4f576001600160a01b03610bed611a6c565b16835260068252808320815193849181815490610c098261197d565b92838652600192888482169182600014610c86575050600114610c48575b858861018689610c39848a0385611a03565b51928284938452830190611a47565b87945081939291528383205b828410610c6e5750505082010181610c3961018638610c27565b8054848a018601528895508794909301928101610c54565b60ff19168882015294151560051b87019094019450859350610c3992506101869150389050610c27565b82843461070e57602036600319011261070e578235906001600160401b03821161070e5750602092610ce491369101611acf565b82610cf783519283815193849201611a24565b6005908201908152819003830190205490516001600160a01b039091168152f35b50503461020f578160031936011261020f5780519082600854610d3a8161197d565b808552916001918083169081156101e75750600114610d655750505061017482610186940383611a03565b9450600885527ff3f7a9fe364faab93b216da50a3214154f22a0a2b415b23a84c8169e8b636ee35b828610610daa575050506101748260206101869582010194610162565b80546020878701810191909152909501948101610d8d565b83833461020f57610dd236611b16565b936001600160a01b03918216929091338414908115610fc4575b508015610fbb575b15610f5d5780519283865160209581610e11889383858d01611a24565b81016005815203019020816001600160601b0360a01b825416179055808552600684527ffdcc9059d3426f73949b49e5d977553aa298184439da800d66f48959d9cc76b0610e6f838720610e7c855192839287845287840190611ce0565b828103898401528a611a47565b0390a18452600683528320918451916001600160401b038311610f4a5750610eae82610ea8855461197d565b85611c4f565b80601f8311600114610ee85750839482939492610edd575b50508160011b916000199060031b1c191617905580f35b015190508480610ec6565b90601f198316958486528286209286905b888210610f3257505083600195969710610f19575b505050811b01905580f35b015160001960f88460031b161c19169055848080610f0e565b80600185968294968601518155019501930190610ef9565b634e487b7160e01b855260419052602484fd5b906020608492519162461bcd60e51b8352820152603260248201527f4e616d65206368616e67652072657175657374206e6f742073656e742066726f604482015271369036b2b6b132b9103737b91037bbb732b960711b6064820152fd5b50328314610df4565b905060025416331486610dec565b50503461020f578160031936011261020f5780516001805480835281855260208084019592939186907fb10e2d527612073b26eecdfd717e6a320cf44b4afac2b0732d9fcbe2b7fa0cf690855b8181106110715750505082611035910383611a03565b8451948186019282875251809352850195925b8281106110555785870386f35b83516001600160a01b0316875295810195928101928401611048565b82546001600160a01b031684529284019291870191870161101f565b8391503461020f5760209283600319360112610b4f576001600160401b03918035838111611246576110c29036908301611a87565b60025490949193906001600160a01b03163303611204575083116107a257506110ec60035461197d565b601f81116111b0575b508293601f83116001146111325750928293829392611127575b50508160011b916000199060031b1c19161760035580f35b01359050838061110f565b601f198316947fc2575a0e9e593c00f959f8c92f12db2869c3395a3b0502d05e2516446f71f85b929185905b87821061119857505083600195961061117e575b505050811b0160035580f35b0135600019600384901b60f8161c19169055838080611172565b8060018496829495870135815501950192019061115e565b6111f4907fc2575a0e9e593c00f959f8c92f12db2869c3395a3b0502d05e2516446f71f85b601f850160051c8101918786106111fa575b601f0160051c0190611c38565b846110f5565b90915081906111e7565b5162461bcd60e51b8152808301879052601f60248201527f4f6e6c79206f776e65722063616e2073657420746865206d616e6966657374006044820152606490fd5b8480fd5b905081600319360112610b4f5761125f611a6c565b9160249084908235823415158061157d575b156114b3575050349560015b815b82548110156114af5761129181611bee565b9054600391821b1c6001600160a01b039081168552600b6020908152868620548c8102939080159085048e14171561149d578690606480950490816112e5575b5050505050506112e090611cbb565b61127f565b87156113565782939491839283926112fc8a611bee565b9054911b1c165af161130c611c8b565b50156113245750506112e0905b9038808581806112d1565b855162461bcd60e51b8152808a0191909152600f818901526e151c985b9cd9995c8819985a5b1959608a1b6044820152fd5b8492508c8361136489611bee565b905490841b1c168b519163a9059cbb60e01b8352820152828d82015284818d818d60449a8b93165af1801561149357928f918c938f918b908e97611449575b509187879893926113b5899694611bee565b9054911b1c16955192898401956310b3879160e11b87521690830152888201528781526113e1816119b7565b51925af16113ed611c8b565b50156113ff575050506112e090611319565b6084927f556e61626c6520746f2063616c6c20746865207265776172642066756e6374698b9360228c6137b760f11b958c519762461bcd60e51b8952880152860152840152820152fd5b94505093505092508481813d831161148c575b6114668183611a03565b81010312611488575180151503611484578d89928d8c938a386113a3565b8880fd5b8980fd5b503d61145c565b8b513d8c823e3d90fd5b634e487b7160e01b875260118b528987fd5b8280f35b82516370a0823160e01b8152308782015291976001600160a01b0388169450916020818781885afa90811561157357908991849161153f575b50101561127d57825162461bcd60e51b81526020818801526021818701527f4e6f7420656e6f75676820746f6b656e7320696e2074686520636f6e747261636044820152601d60fa1b6064820152608490fd5b9150506020813d821161156b575b8161155a60209383611a03565b81010312610b4f57889051386114ec565b3d915061154d565b84513d85823e3d90fd5b506001600160a01b03871615611271565b9150913461020f5760031992606036850112610b4f576001600160401b03938135858111611246576115c39036908401611a87565b91909560243590811161169957611629956020946115e660609336908301611a87565b98909460018060a01b03998a600a54169661161a8b519d8e9a8b998a986305d5dd4360e11b8a528901526064880191611b6f565b92858403016024860152611b6f565b604435604483015203925af192831561168f57849361164f575b50602093505191168152f35b9092506020813d8211611687575b8161166a60209383611a03565b81010312610a9c57518181168103610a9c57602093509138611643565b3d915061165d565b81513d86823e3d90fd5b8580fd5b82843461070e5760208060031936011261020f576116bc939293611a6c565b9360018060a01b03936116d485600254163314611b90565b84849616955b8454808210156118a3578690886116f084611bee565b939054600394851b1c161461170f57505061170a90611cbb565b6116da565b8761173292611726610377939a969798999a611bee565b9054911b1c1692611bee565b90555b8454801561189057600019019061174b82611bee565b909182549160031b1b19169055845584845282528083209360ff1994858154169055600683527f982d6fac85d22cbbe833f9fe4278a909ca0f3b24ecc8b1f10fe63736e3c723136117ae8386208451918291858352868884015286830190611ce0565b0390a18084526006835281842082519085968154916117cc8361197d565b92600192838216918215611879575050600114611846575b50505083818760056000989952030190206001600160601b0360a01b8154169055845260068252832090611818825461197d565b601f8111611827575b50505580f35b601f61183f928487528620910160051c810190611c38565b8380611821565b875285872091975086915b8883106118685750505094850194838160006117e4565b805484840152918601918101611851565b1685525050508015150281019550838160006117e4565b634e487b7160e01b865260318352602486fd5b505090919293611735565b50503461020f578160031936011261020f57805190826007546118d08161197d565b808552916001918083169081156101e757506001146118fb5750505061017482610186940383611a03565b9450600785527fa66cc928b5edb82af9bd49922954155ab7b0942694bea4ce44661d9a8736c6885b828610611940575050506101748260206101869582010194610162565b80546020878701810191909152909501948101611923565b84903461020f578160031936011261020f57600a546001600160a01b03168152602090f35b90600182811c921680156119ad575b602083101461199757565b634e487b7160e01b600052602260045260246000fd5b91607f169161198c565b608081019081106001600160401b038211176119d257604052565b634e487b7160e01b600052604160045260246000fd5b606081019081106001600160401b038211176119d257604052565b90601f801991011681019081106001600160401b038211176119d257604052565b60005b838110611a375750506000910152565b8181015183820152602001611a27565b90602091611a6081518092818552858086019101611a24565b601f01601f1916010190565b600435906001600160a01b0382168203611a8257565b600080fd5b9181601f84011215611a82578235916001600160401b038311611a825760208381860195010111611a8257565b6001600160401b0381116119d257601f01601f191660200190565b81601f82011215611a8257803590611ae682611ab4565b92611af46040519485611a03565b82845260208383010111611a8257816000926020809301838601378301015290565b906040600319830112611a82576004356001600160a01b0381168103611a825791602435906001600160401b038211611a8257611b5591600401611acf565b90565b6001600160401b0381116119d25760051b60200190565b908060209392818452848401376000828201840152601f01601f1916010190565b15611b9757565b60405162461bcd60e51b815260206004820152602960248201527f52657175657374207375626d69747465642062792061206e6f6e2d6d656d626560448201526872206164647265737360b81b6064820152608490fd5b906000918254811015611c24578280527f290decd9548b62a8d60345a988386fc84ba6bc95484008f6362f93160ef3e563019190565b634e487b7160e01b83526032600452602483fd5b818110611c43575050565b60008155600101611c38565b9190601f8111611c5e57505050565b611c89926000526020600020906020601f840160051c830193106111fa57601f0160051c0190611c38565b565b3d15611cb6573d90611c9c82611ab4565b91611caa6040519384611a03565b82523d6000602084013e565b606090565b6000198114611cca5760010190565b634e487b7160e01b600052601160045260246000fd5b9060009291805491611cf18361197d565b918282526001938481169081600014611d535750600114611d13575b50505050565b90919394506000526020928360002092846000945b838610611d3f575050505001019038808080611d0d565b805485870183015294019385908201611d28565b9294505050602093945060ff191683830152151560051b01019038808080611d0d565b8051821015611d8a5760209160051b010190565b634e487b7160e01b600052603260045260246000fd5b906000918234151580612099575b15611fd357505034916001905b60005b600054811015611fcc57611dd181611bee565b60018060a01b03809254600392831b1c16600052602090600b8252604090816000205493898502948086048b1490151715611cca5760648095049182611e26575b505050505050611e2190611cbb565b611dbe565b8815611e97576000809381938293611e3d8b611bee565b9054911b1c165af1611e4d611c8b565b5015611e6657505050611e21905b903880808080611e12565b519062461bcd60e51b82526004820152600f60248201526e151c985b9cd9995c8819985a5b1959608a1b6044820152fd5b91949390928380611ea789611bee565b905490861b1c169682519463a9059cbb60e01b865260049889870152602495828782015285818d81600060449c8d93165af18015611fc157611f8a575b50906000928392611ef48c611bee565b9054911b1c1690828551878101926310b3879160e11b8452828a8301528a820152898152611f21816119b7565b51925af1611f2d611c8b565b5015611f4257505050505050611e2190611e5b565b5162461bcd60e51b8152948501526022908401527f556e61626c6520746f2063616c6c20746865207265776172642066756e637469908301526137b760f11b90820152608490fd5b8581819493943d8311611fba575b611fa28183611a03565b81010312611a82575180151503611a82579038611ee4565b503d611f98565b85513d6000823e3d90fd5b5050509050565b809193506040516370a0823160e01b8152306004820152602081602481865afa90811561208e57908591849161205a575b501015611dbb5760405162461bcd60e51b815260206004820152602160248201527f4e6f7420656e6f75676820746f6b656e7320696e2074686520636f6e747261636044820152601d60fa1b6064820152608490fd5b9150506020813d8211612086575b8161207560209383611a03565b81010312610b4f5784905138612004565b3d9150612068565b6040513d85823e3d90fd5b506001611dae56fea2646970667358221220138c0ea09babbd3442d0afcd39ab3707934f9af7f54c09f4f8318a38c88a215f64736f6c63430008140033",
  "linkReferences": {},
  "deployedLinkReferences": {}
}