{
  "_format": "hh-sol-artifact-1",
  "contractName": "Crown",
  "sourceName": "contracts/Crown.sol",
  "abi": [
    {
      "inputs": [],
      "stateMutability": "nonpayable",
      "type": "constructor"
    },
    {
      "anonymous": false,
      "inputs": [
        {
          "indexed": false,
          "internalType": "address",
          "name": "member",
          "type": "address"
        },
        {
          "indexed": false,
          "internalType": "string",
          "name": "name",
          "type": "string"
        }
      ],
      "name": "AddedMember",
      "type": "event"
    },
    {
      "anonymous": false,
      "inputs": [
        {
          "indexed": false,
          "internalType": "string",
          "name": "namefrom",
          "type": "string"
        },
        {
          "indexed": false,
          "internalType": "string",
          "name": "nameto",
          "type": "string"
        }
      ],
      "name": "ChangedName",
      "type": "event"
    },
    {
      "anonymous": false,
      "inputs": [
        {
          "indexed": false,
          "internalType": "address",
          "name": "member",
          "type": "address"
        },
        {
          "indexed": false,
          "internalType": "string",
          "name": "name",
          "type": "string"
        }
      ],
      "name": "RemovedMember",
      "type": "event"
    },
    {
      "inputs": [
        {
          "internalType": "address",
          "name": "_memberaddress",
          "type": "address"
        },
        {
          "internalType": "string",
          "name": "_membername",
          "type": "string"
        }
      ],
      "name": "addMember",
      "outputs": [],
      "stateMutability": "nonpayable",
      "type": "function"
    },
    {
      "inputs": [
        {
          "internalType": "address",
          "name": "_parentaddress",
          "type": "address"
        }
      ],
      "name": "addParent",
      "outputs": [],
      "stateMutability": "nonpayable",
      "type": "function"
    },
    {
      "inputs": [
        {
          "internalType": "address",
          "name": "_address",
          "type": "address"
        },
        {
          "internalType": "string",
          "name": "_name",
          "type": "string"
        }
      ],
      "name": "changeName",
      "outputs": [],
      "stateMutability": "nonpayable",
      "type": "function"
    },
    {
      "inputs": [
        {
          "internalType": "address",
          "name": "_address",
          "type": "address"
        }
      ],
      "name": "changeOwner",
      "outputs": [],
      "stateMutability": "nonpayable",
      "type": "function"
    },
    {
      "inputs": [],
      "name": "enablePassTheCrown",
      "outputs": [],
      "stateMutability": "nonpayable",
      "type": "function"
    },
    {
      "inputs": [],
      "name": "getSize",
      "outputs": [
        {
          "internalType": "uint256",
          "name": "",
          "type": "uint256"
        }
      ],
      "stateMutability": "view",
      "type": "function"
    },
    {
      "inputs": [
        {
          "internalType": "address",
          "name": "",
          "type": "address"
        }
      ],
      "name": "isMember",
      "outputs": [
        {
          "internalType": "bool",
          "name": "",
          "type": "bool"
        }
      ],
      "stateMutability": "view",
      "type": "function"
    },
    {
      "inputs": [],
      "name": "listMembers",
      "outputs": [
        {
          "internalType": "address payable[]",
          "name": "",
          "type": "address[]"
        }
      ],
      "stateMutability": "view",
      "type": "function"
    },
    {
      "inputs": [],
      "name": "listParents",
      "outputs": [
        {
          "internalType": "address[]",
          "name": "",
          "type": "address[]"
        }
      ],
      "stateMutability": "view",
      "type": "function"
    },
    {
      "inputs": [],
      "name": "manifest",
      "outputs": [
        {
          "internalType": "string",
          "name": "",
          "type": "string"
        }
      ],
      "stateMutability": "view",
      "type": "function"
    },
    {
      "inputs": [
        {
          "internalType": "address",
          "name": "_memberaddress",
          "type": "address"
        }
      ],
      "name": "removeMember",
      "outputs": [],
      "stateMutability": "nonpayable",
      "type": "function"
    },
    {
      "inputs": [
        {
          "internalType": "string",
          "name": "_IPFSHash",
          "type": "string"
        }
      ],
      "name": "setManifest",
      "outputs": [],
      "stateMutability": "nonpayable",
      "type": "function"
    },
    {
      "inputs": [
        {
          "internalType": "string",
          "name": "",
          "type": "string"
        }
      ],
      "name": "toAddress",
      "outputs": [
        {
          "internalType": "address",
          "name": "",
          "type": "address"
        }
      ],
      "stateMutability": "view",
      "type": "function"
    },
    {
      "inputs": [
        {
          "internalType": "address",
          "name": "",
          "type": "address"
        }
      ],
      "name": "toName",
      "outputs": [
        {
          "internalType": "string",
          "name": "",
          "type": "string"
        }
      ],
      "stateMutability": "view",
      "type": "function"
    }
  ],
  "bytecode": "0x608080604052346100325760018060a01b0319328160025416176002553290600754161760075561130d90816100388239f35b600080fdfe6040608081526004908136101561001557600080fd5b600091823560e01c9081630b1ca49a14610d5657816329b84d0914610b815781633113a2ae14610ac657816345ca25ed146108b55781637e4115ba1461084c57816381bc3f8c146107ff578163a230c524146107c2578163a6f9dae114610736578163acf36e5314610692578163b6afd2ca146105cc578163c127c24714610258578163d90a8d54146101c457508063de8fa431146101a85763f5baf0d7146100bd57600080fd5b346101a457816003193601126101a457805190826003546100dd816110b7565b8085529160019180831690811561017c575060011461011f575b5050506101098261011b940383610fcc565b51918291602083526020830190611187565b0390f35b9450600385527fc2575a0e9e593c00f959f8c92f12db2869c3395a3b0502d05e2516446f71f85b5b8286106101645750505061010982602061011b95820101946100f7565b80546020878701810191909152909501948101610147565b61011b97508693506020925061010994915060ff191682840152151560051b820101946100f7565b5080fd5b50346101a457816003193601126101a457602091549051908152f35b905034610254578260031936011261025457600754916001600160a01b03831633036101ff57505060ff60a01b1916600160a01b1760075580f35b906020608492519162461bcd60e51b8352820152602960248201527f4f6e6c7920746865206c6561642063616e20656e61626c65202770617373207460448201526868652063726f776e2760b81b6064820152fd5b8280fd5b839150346101a45761026936611051565b3384526020928084526001928360ff888820541615151480156105b8575b610290906111ac565b6001600160a01b03818116808852838752888820549095919060ff1661057e578851908551918881818901946102c7818388611094565b810160058152030190205416610543578754600160401b811015610530576103146102f782858a94018c5561120a565b819391549060031b9160018060a01b03809116831b921b19161790565b9055858852600687528888209085519167ffffffffffffffff831161051d57908161034a846103448c95546110b7565b8361126b565b8293601f81116001146104b85780610386958d916104ad575b50600019600383901b1c191690861b1790555b8a51809381928951928391611094565b81016005815203019020856001600160601b0360a01b8254161790558487528286528787209060ff198254161790558651868087830163acf36e5360e01b93848252306024820152602481526103db81610f9a565b5190855afa6103e86112a7565b50610431575b50505061042b9085807f7c803c00251fe8138e27cfa8286be8d98625e5f6476ca6ca594f682362b711209697519586958652850152830190611187565b0390a180f35b86918291828a518981019283523060248201526024815261045181610f9a565b51925af161045d6112a7565b501561046a5780806103ee565b855162461bcd60e51b8152908101849052601760248201527f4661696c656420746f2063726561746520706172656e740000000000000000006044820152606490fd5b90508901518e610363565b85908c8a96601f198316858352878320925b8181106105035750610386985083116104ea575b5050811b019055610376565b8b015160001960f88460031b161c191690558e806104de565b9882015183558c988f988b969094019392830192016104ca565b634e487b7160e01b8a526041865260248afd5b634e487b7160e01b895260418552602489fd5b885162461bcd60e51b815280850188905260156024820152742730b6b29034b99030b63932b0b23c903a30b5b2b760591b6044820152606490fd5b885162461bcd60e51b8152808501889052601460248201527313595b58995c88185b1c9958591e48185919195960621b6044820152606490fd5b506002546001600160a01b03163314610287565b82843461068f578060031936011261068f57908051918290805491828552602080950180938380527f290decd9548b62a8d60345a988386fc84ba6bc95484008f6362f93160ef3e56390845b818110610672575050508161062e910382610fcc565b83519485948186019282875251809352850193925b82811061065257505050500390f35b83516001600160a01b031685528695509381019392810192600101610643565b82546001600160a01b031684529288019260019283019201610618565b80fd5b8390346101a45760203660031901126101a4576106ad610f7f565b9060015490600160401b82101561072357600182018060015582101561071057507fb10e2d527612073b26eecdfd717e6a320cf44b4afac2b0732d9fcbe2b7fa0cf60180546001600160a01b0319166001600160a01b0390921691909117905580f35b634e487b7160e01b845260329052602483fd5b634e487b7160e01b845260419052602483fd5b9190503461025457602036600319011261025457610752610f7f565b600254926001600160a01b0392838516330361077f57505016906001600160601b0360a01b161760025580f35b906020606492519162461bcd60e51b8352820152601f60248201527f4f6e6c79206f776e65722063616e206368616e676520746865206f776e6572006044820152fd5b9050346102545760203660031901126102545760209260ff918391906001600160a01b036107ee610f7f565b168252855220541690519015158152f35b5050346101a45760203660031901126101a45761011b9161084591906101099082906001600160a01b03610831610f7f565b1681526006602052208251938480926110f1565b0383610fcc565b82843461068f57602036600319011261068f5782359067ffffffffffffffff821161068f57506020926108819136910161100a565b8261089483519283815193849201611094565b6005908201908152819003830190205490516001600160a01b039091168152f35b8383346101a4576108c536611051565b936001600160a01b03918216929091338414908115610ab8575b508015610aaf575b15610a515780519283865160209581610904889383858d01611094565b81016005815203019020816001600160601b0360a01b825416179055808552600684527ffdcc9059d3426f73949b49e5d977553aa298184439da800d66f48959d9cc76b061096283872061096f8551928392878452878401906110f1565b828103898401528a611187565b0390a184526006835283209184519167ffffffffffffffff8311610a3e57506109a28261099c85546110b7565b8561126b565b80601f83116001146109dc57508394829394926109d1575b50508160011b916000199060031b1c191617905580f35b0151905084806109ba565b90601f198316958486528286209286905b888210610a2657505083600195969710610a0d575b505050811b01905580f35b015160001960f88460031b161c19169055848080610a02565b806001859682949686015181550195019301906109ed565b634e487b7160e01b855260419052602484fd5b906020608492519162461bcd60e51b8352820152603260248201527f4e616d65206368616e67652072657175657374206e6f742073656e742066726f604482015271369036b2b6b132b9103737b91037bbb732b960711b6064820152fd5b503283146108e7565b9050600254163314866108df565b5050346101a457816003193601126101a45780516001805480835281855260208084019592939186907fb10e2d527612073b26eecdfd717e6a320cf44b4afac2b0732d9fcbe2b7fa0cf690855b818110610b655750505082610b29910383610fcc565b8451948186019282875251809352850195925b828110610b495785870386f35b83516001600160a01b0316875295810195928101928401610b3c565b82546001600160a01b0316845292840192918701918701610b13565b839150346101a4576020928360031936011261025457813567ffffffffffffffff92838211610d525736602383011215610d525781810135938411610d525760249236848685010111610d4e576002546001600160a01b03163303610d0d575050610bed6003546110b7565b601f8111610cb9575b508394601f8411600114610c365750938394839493610c29575b5050508160011b916000199060031b1c19161760035580f35b0101359050838080610c10565b601f198416957fc2575a0e9e593c00f959f8c92f12db2869c3395a3b0502d05e2516446f71f85b939186905b888210610c9f575050846001969710610c83575b50505050811b0160035580f35b60001960f88660031b161c199201013516905583808080610c76565b806001849786839596890101358155019601920190610c62565b610cfd907fc2575a0e9e593c00f959f8c92f12db2869c3395a3b0502d05e2516446f71f85b601f860160051c810191888710610d03575b601f0160051c0190611254565b85610bf6565b9091508190610cf0565b5162461bcd60e51b8152908101869052601f818401527f4f6e6c79206f776e65722063616e2073657420746865206d616e6966657374006044820152606490fd5b8580fd5b8480fd5b839150346101a457602092836003193601126102545792610d75610f7f565b9060018060a01b0394610d8d866002541633146111ac565b85859316925b855480821015610f7357879085610da98461120a565b939054600394851b1c1614610dde5750506000198114610dcb57600101610d93565b634e487b7160e01b865260118552602486fd5b88610e0292610df66102f7939b96989b99979961120a565b9054911b1c169261120a565b90555b84548015610f60576000190190610e1b8261120a565b909182549160031b1b19169055845584845282528083209360ff1994858154169055600683527f982d6fac85d22cbbe833f9fe4278a909ca0f3b24ecc8b1f10fe63736e3c72313610e7e83862084519182918583528688840152868301906110f1565b0390a1808452600683528184208251908596815491610e9c836110b7565b92600192838216918215610f49575050600114610f16575b50505083818760056000989952030190206001600160601b0360a01b8154169055845260068252832090610ee882546110b7565b601f8111610ef7575b50505580f35b601f610f0f928487528620910160051c810190611254565b8380610ef1565b875285872091975086915b888310610f38575050509485019483816000610eb4565b805484840152918601918101610f21565b168552505050801515028101955083816000610eb4565b634e487b7160e01b865260318352602486fd5b50509194929092610e05565b600435906001600160a01b0382168203610f9557565b600080fd5b6060810190811067ffffffffffffffff821117610fb657604052565b634e487b7160e01b600052604160045260246000fd5b90601f8019910116810190811067ffffffffffffffff821117610fb657604052565b67ffffffffffffffff8111610fb657601f01601f191660200190565b81601f82011215610f955780359061102182610fee565b9261102f6040519485610fcc565b82845260208383010111610f9557816000926020809301838601378301015290565b906040600319830112610f95576004356001600160a01b0381168103610f9557916024359067ffffffffffffffff8211610f95576110919160040161100a565b90565b60005b8381106110a75750506000910152565b8181015183820152602001611097565b90600182811c921680156110e7575b60208310146110d157565b634e487b7160e01b600052602260045260246000fd5b91607f16916110c6565b9060009291805491611102836110b7565b9182825260019384811690816000146111645750600114611124575b50505050565b90919394506000526020928360002092846000945b83861061115057505050500101903880808061111e565b805485870183015294019385908201611139565b9294505050602093945060ff191683830152151560051b0101903880808061111e565b906020916111a081518092818552858086019101611094565b601f01601f1916010190565b156111b357565b60405162461bcd60e51b815260206004820152602960248201527f52657175657374207375626d69747465642062792061206e6f6e2d6d656d626560448201526872206164647265737360b81b6064820152608490fd5b906000918254811015611240578280527f290decd9548b62a8d60345a988386fc84ba6bc95484008f6362f93160ef3e563019190565b634e487b7160e01b83526032600452602483fd5b81811061125f575050565b60008155600101611254565b9190601f811161127a57505050565b6112a5926000526020600020906020601f840160051c83019310610d0357601f0160051c0190611254565b565b3d156112d2573d906112b882610fee565b916112c66040519384610fcc565b82523d6000602084013e565b60609056fea2646970667358221220ba28e87609e6ffc7bcbacd0b2f2e2317dc7ba2597a7eae453c5487f88d89354364736f6c63430008140033",
  "linkReferences": {},
  "deployedLinkReferences": {}
}