{"abi":[{"type":"fallback","stateMutability":"payable"},{"type":"receive","stateMutability":"payable"},{"type":"function","name":"addMember","inputs":[{"name":"_memberaddress","type":"address","internalType":"address"},{"name":"_membername","type":"string","internalType":"string"}],"outputs":[],"stateMutability":"nonpayable"},{"type":"function","name":"addParent","inputs":[{"name":"_parentaddress","type":"address","internalType":"address"}],"outputs":[],"stateMutability":"nonpayable"},{"type":"function","name":"changeName","inputs":[{"name":"_address","type":"address","internalType":"address"},{"name":"_name","type":"string","internalType":"string"}],"outputs":[],"stateMutability":"nonpayable"},{"type":"function","name":"changeOwner","inputs":[{"name":"_address","type":"address","internalType":"address"}],"outputs":[],"stateMutability":"nonpayable"},{"type":"function","name":"creator","inputs":[],"outputs":[{"name":"","type":"address","internalType":"address"}],"stateMutability":"view"},{"type":"function","name":"flavor","inputs":[],"outputs":[{"name":"","type":"string","internalType":"string"}],"stateMutability":"view"},{"type":"function","name":"getSize","inputs":[],"outputs":[{"name":"","type":"uint256","internalType":"uint256"}],"stateMutability":"view"},{"type":"function","name":"isMember","inputs":[{"name":"","type":"address","internalType":"address"}],"outputs":[{"name":"","type":"bool","internalType":"bool"}],"stateMutability":"view"},{"type":"function","name":"listMembers","inputs":[],"outputs":[{"name":"","type":"address[]","internalType":"address payable[]"}],"stateMutability":"view"},{"type":"function","name":"listParents","inputs":[],"outputs":[{"name":"","type":"address[]","internalType":"address[]"}],"stateMutability":"view"},{"type":"function","name":"manifest","inputs":[],"outputs":[{"name":"","type":"string","internalType":"string"}],"stateMutability":"view"},{"type":"function","name":"name","inputs":[],"outputs":[{"name":"","type":"string","internalType":"string"}],"stateMutability":"view"},{"type":"function","name":"newHolon","inputs":[{"name":"_flavor","type":"string","internalType":"string"},{"name":"_name","type":"string","internalType":"string"},{"name":"_parameter","type":"uint256","internalType":"uint256"}],"outputs":[{"name":"","type":"address","internalType":"address"}],"stateMutability":"nonpayable"},{"type":"function","name":"removeMember","inputs":[{"name":"_memberaddress","type":"address","internalType":"address"}],"outputs":[],"stateMutability":"nonpayable"},{"type":"function","name":"reward","inputs":[{"name":"_tokenAddress","type":"address","internalType":"address"},{"name":"_tokenAmount","type":"uint256","internalType":"uint256"}],"outputs":[],"stateMutability":"payable"},{"type":"function","name":"setManifest","inputs":[{"name":"_IPFSHash","type":"string","internalType":"string"}],"outputs":[],"stateMutability":"nonpayable"},{"type":"function","name":"toAddress","inputs":[{"name":"","type":"string","internalType":"string"}],"outputs":[{"name":"","type":"address","internalType":"address"}],"stateMutability":"view"},{"type":"function","name":"toName","inputs":[{"name":"","type":"address","internalType":"address"}],"outputs":[{"name":"","type":"string","internalType":"string"}],"stateMutability":"view"},{"type":"function","name":"version","inputs":[],"outputs":[{"name":"","type":"string","internalType":"string"}],"stateMutability":"view"},{"type":"event","name":"AddedMember","inputs":[{"name":"member","type":"address","indexed":false,"internalType":"address"},{"name":"name","type":"string","indexed":false,"internalType":"string"}],"anonymous":false},{"type":"event","name":"ChangedName","inputs":[{"name":"namefrom","type":"string","indexed":false,"internalType":"string"},{"name":"nameto","type":"string","indexed":false,"internalType":"string"}],"anonymous":false},{"type":"event","name":"MemberRewarded","inputs":[{"name":"from","type":"address","indexed":true,"internalType":"address"},{"name":"to","type":"address","indexed":true,"internalType":"address"},{"name":"amount","type":"uint256","indexed":false,"internalType":"uint256"},{"name":"isContract","type":"bool","indexed":false,"internalType":"bool"},{"name":"rewardType","type":"string","indexed":false,"internalType":"string"}],"anonymous":false},{"type":"event","name":"RemovedMember","inputs":[{"name":"member","type":"address","indexed":false,"internalType":"address"},{"name":"name","type":"string","indexed":false,"internalType":"string"}],"anonymous":false},{"type":"event","name":"RewardDistributed","inputs":[{"name":"contractAddress","type":"address","indexed":true,"internalType":"address"},{"name":"amount","type":"uint256","indexed":false,"internalType":"uint256"},{"name":"totalMembers","type":"uint256","indexed":false,"internalType":"uint256"},{"name":"rewardType","type":"string","indexed":false,"internalType":"string"}],"anonymous":false}],"bytecode":{"object":"0x608060405234801561000f575f80fd5b50600280546001600160a01b03191632179055611cbd8061002f5f395ff3fe608060405260043610610117575f3560e01c80637e4115ba1161009f578063b6afd2ca11610063578063b6afd2ca14610379578063c127c2471461038d578063de8fa431146103ac578063f59e4f65146103c8578063f5baf0d7146103dc57610128565b80637e4115ba1461025357806381bc3f8c14610293578063a230c524146102b2578063a6f9dae1146102f0578063acf36e531461030f57610128565b806321670f22116100e657806321670f22146101cd57806329b84d09146101e05780633113a2ae146101ff57806345ca25ed1461022057806354fd4d501461023f57610128565b806302d05d3f1461013257806306fdde031461016e5780630b1ca49a1461018f5780630babba86146101ae57610128565b36610128576101265f346103f0565b005b6101265f346103f0565b34801561013d575f80fd5b50600a54610151906001600160a01b031681565b6040516001600160a01b0390911681526020015b60405180910390f35b348015610179575f80fd5b50610182610576565b60405161016591906113d0565b34801561019a575f80fd5b506101266101a9366004611400565b610602565b3480156101b9575f80fd5b506101516101c8366004611460565b6107dd565b6101266101db3660046114ce565b6103f0565b3480156101eb575f80fd5b506101266101fa3660046114f8565b610862565b34801561020a575f80fd5b506102136108ce565b6040516101659190611537565b34801561022b575f80fd5b5061012661023a366004611620565b61092e565b34801561024a575f80fd5b50610182610a6a565b34801561025e575f80fd5b5061015161026d36600461166d565b80516020818301810180516005825292820191909301209152546001600160a01b031681565b34801561029e575f80fd5b506101826102ad366004611400565b610a77565b3480156102bd575f80fd5b506102e06102cc366004611400565b60046020525f908152604090205460ff1681565b6040519015158152602001610165565b3480156102fb575f80fd5b5061012661030a366004611400565b610a8f565b34801561031a575f80fd5b50610126610329366004611400565b6001805480820182555f919091527fb10e2d527612073b26eecdfd717e6a320cf44b4afac2b0732d9fcbe2b7fa0cf60180546001600160a01b0319166001600160a01b0392909216919091179055565b348015610384575f80fd5b50610213610b0b565b348015610398575f80fd5b506101266103a7366004611620565b610b68565b3480156103b7575f80fd5b505f54604051908152602001610165565b3480156103d3575f80fd5b50610182610ee3565b3480156103e7575f80fd5b50610182610ef0565b5f5461043a5760405162461bcd60e51b8152602060048201526014602482015273139bc81b595b58995c9cc81d1bc81c995dd85c9960621b60448201526064015b60405180910390fd5b5f81116104985760405162461bcd60e51b815260206004820152602660248201527f546f6b656e20616d6f756e74206d7573742062652067726561746572207468616044820152656e207a65726f60d01b6064820152608401610431565b5f341180156104ae57506001600160a01b038216155b15610507573481146104fa5760405162461bcd60e51b815260206004820152601560248201527408ae8d0cae440c2dadeeadce840dad2e6dac2e8c6d605b1b6044820152606401610431565b61050381610efd565b5050565b6001600160a01b03821661056c5760405162461bcd60e51b815260206004820152602660248201527f496e76616c696420746f6b656e206164647265737320666f72204552433230206044820152651c995dd85c9960d21b6064820152608401610431565b61050382826110cc565b60078054610583906116a7565b80601f01602080910402602001604051908101604052809291908181526020018280546105af906116a7565b80156105fa5780601f106105d1576101008083540402835291602001916105fa565b820191905f5260205f20905b8154815290600101906020018083116105dd57829003601f168201915b505050505081565b6002546001600160a01b0316331461062c5760405162461bcd60e51b8152600401610431906116df565b5f5b5f548110156106d857816001600160a01b03165f828154811061065357610653611728565b5f918252602090912001546001600160a01b0316036106d0575f8054610677611728565b5f91825260208220015481546001600160a01b039091169190839081106106a0576106a0611728565b905f5260205f20015f6101000a8154816001600160a01b0302191690836001600160a01b031602179055506106d8565b60010161062e565b505f8054806106e9576106e961173c565b5f828152602080822083015f1990810180546001600160a01b03191690559092019092556001600160a01b0383168252600481526040808320805460ff1916905560069091529081902090517f982d6fac85d22cbbe833f9fe4278a909ca0f3b24ecc8b1f10fe63736e3c7231391610763918491906117c9565b60405180910390a16001600160a01b0381165f908152600660205260408082209051600591610791916117ec565b908152604080516020928190038301812080546001600160a01b0319166001600160a01b0395861617905582810182525f808252938516845260069092529091209061050390826118a9565b600a546040516305d5dd4360e11b81525f916001600160a01b0316908190630babba8690610817908a908a908a908a908a90600401611991565b6020604051808303815f875af1158015610833573d5f803e3d5ffd5b505050506040513d601f19601f8201168201806040525081019061085791906119ca565b979650505050505050565b6002546001600160a01b031633146108bc5760405162461bcd60e51b815260206004820152601f60248201527f4f6e6c79206f776e65722063616e2073657420746865206d616e6966657374006044820152606401610431565b60036108c98284836119e5565b505050565b6060600180548060200260200160405190810160405280929190818152602001828054801561092457602002820191905f5260205f20905b81546001600160a01b03168152600190910190602001808311610906575b5050505050905090565b6001600160a01b03821633148061094f57506002546001600160a01b031633145b8061096257506001600160a01b03821632145b6109c95760405162461bcd60e51b815260206004820152603260248201527f4e616d65206368616e67652072657175657374206e6f742073656e742066726f604482015271369036b2b6b132b9103737b91037bbb732b960711b6064820152608401610431565b816005826040516109da9190611a9f565b908152604080516020928190038301812080546001600160a01b0319166001600160a01b039586161790559285165f908152600690925290207ffdcc9059d3426f73949b49e5d977553aa298184439da800d66f48959d9cc76b091610a4191908490611aba565b60405180910390a16001600160a01b0382165f9081526006602052604090206108c982826118a9565b60088054610583906116a7565b60066020525f908152604090208054610583906116a7565b6002546001600160a01b03163314610ae95760405162461bcd60e51b815260206004820152601f60248201527f4f6e6c79206f776e65722063616e206368616e676520746865206f776e6572006044820152606401610431565b600280546001600160a01b0319166001600160a01b0392909216919091179055565b60605f80548060200260200160405190810160405280929190818152602001828054801561092457602002820191905f5260205f209081546001600160a01b03168152600190910190602001808311610906575050505050905090565b335f9081526004602052604090205460ff16151560011480610b9457506002546001600160a01b031633145b610bb05760405162461bcd60e51b8152600401610431906116df565b6001600160a01b0382165f9081526004602052604090205460ff1615610c0f5760405162461bcd60e51b815260206004820152601460248201527313595b58995c88185b1c9958591e48185919195960621b6044820152606401610431565b5f6001600160a01b0316600582604051610c299190611a9f565b908152604051908190036020019020546001600160a01b031614610c875760405162461bcd60e51b81526020600482015260156024820152742730b6b29034b99030b63932b0b23c903a30b5b2b760591b6044820152606401610431565b5f80546001810182557f290decd9548b62a8d60345a988386fc84ba6bc95484008f6362f93160ef3e5630180546001600160a01b0319166001600160a01b0385169081179091558152600660205260409020610ce382826118a9565b5081600582604051610cf59190611a9f565b908152604080516020928190038301812080546001600160a01b0319166001600160a01b039586161790559285165f8181526004909352908220805460ff1916600117905530602484015290916060919060440160408051601f198184030181529181526020820180516001600160e01b031663acf36e5360e01b17905251610d7e9190611a9f565b5f60405180830381855afa9150503d805f8114610db6576040519150601f19603f3d011682016040523d82523d5f602084013e610dbb565b606091505b5090925090508115610ea4576040513060248201526001600160a01b0385169060440160408051601f198184030181529181526020820180516001600160e01b031663acf36e5360e01b17905251610e139190611a9f565b5f604051808303815f865af19150503d805f8114610e4c576040519150601f19603f3d011682016040523d82523d5f602084013e610e51565b606091505b50508092505081610ea45760405162461bcd60e51b815260206004820152601760248201527f4661696c656420746f2063726561746520706172656e740000000000000000006044820152606401610431565b7f7c803c00251fe8138e27cfa8286be8d98625e5f6476ca6ca594f682362b711208484604051610ed5929190611ae7565b60405180910390a150505050565b60098054610583906116a7565b60038054610583906116a7565b5f8054610f0a9083611b0a565b90505f8111610f2b5760405162461bcd60e51b815260040161043190611b29565b5f805b5f54811015611083575f808281548110610f4a57610f4a611728565b5f91825260208220015481546001600160a01b039091169250823b15159190819085908110610f7b57610f7b611728565b5f9182526020822001546040516001600160a01b039091169188919081818185875af1925050503d805f8114610fcc576040519150601f19603f3d011682016040523d82523d5f602084013e610fd1565b606091505b505090508061101a5760405162461bcd60e51b8152602060048201526015602482015274115d1a195c881d1c985b9cd9995c8819985a5b1959605a1b6044820152606401610431565b826001600160a01b0316306001600160a01b03167f7d6a6b7452c2fec7981096e354fb3311f3f3b800ff27def1017b22cbff275190888560405161105f929190611b6d565b60405180910390a38461107181611b9d565b95505060019093019250610f2e915050565b50306001600160a01b03167fd83308e9158842b2115ec5e6f6395db42fff24e4b5506ef42fe33854fafad65584836040516110bf929190611bc1565b60405180910390a2505050565b6040516370a0823160e01b8152306004820152829082906001600160a01b038316906370a0823190602401602060405180830381865afa158015611112573d5f803e3d5ffd5b505050506040513d601f19601f820116820180604052508101906111369190611bef565b101561118e5760405162461bcd60e51b815260206004820152602160248201527f4e6f7420656e6f75676820746f6b656e7320696e2074686520636f6e747261636044820152601d60fa1b6064820152608401610431565b5f805461119b9084611b0a565b90505f81116111bc5760405162461bcd60e51b815260040161043190611b29565b5f805b5f54811015611338575f8082815481106111db576111db611728565b5f91825260208220015481546001600160a01b039182169350833b1515929188169163a9059cbb918690811061121357611213611728565b5f9182526020909120015460405160e083901b6001600160e01b03191681526001600160a01b039091166004820152602481018890526044016020604051808303815f875af1158015611268573d5f803e3d5ffd5b505050506040513d601f19601f8201168201806040525081019061128c9190611c06565b6112d05760405162461bcd60e51b8152602060048201526015602482015274115490cc8c081d1c985b9cd9995c8819985a5b1959605a1b6044820152606401610431565b816001600160a01b0316306001600160a01b03167f7d6a6b7452c2fec7981096e354fb3311f3f3b800ff27def1017b22cbff2751908784604051611315929190611c25565b60405180910390a38361132781611b9d565b945050600190920191506111bf9050565b50306001600160a01b03167fd83308e9158842b2115ec5e6f6395db42fff24e4b5506ef42fe33854fafad6558583604051611374929190611c57565b60405180910390a25050505050565b5f5b8381101561139d578181015183820152602001611385565b50505f910152565b5f81518084526113bc816020860160208601611383565b601f01601f19169290920160200192915050565b602081525f6113e260208301846113a5565b9392505050565b6001600160a01b03811681146113fd575f80fd5b50565b5f60208284031215611410575f80fd5b81356113e2816113e9565b5f8083601f84011261142b575f80fd5b50813567ffffffffffffffff811115611442575f80fd5b602083019150836020828501011115611459575f80fd5b9250929050565b5f805f805f60608688031215611474575f80fd5b853567ffffffffffffffff8082111561148b575f80fd5b61149789838a0161141b565b909750955060208801359150808211156114af575f80fd5b506114bc8882890161141b565b96999598509660400135949350505050565b5f80604083850312156114df575f80fd5b82356114ea816113e9565b946020939093013593505050565b5f8060208385031215611509575f80fd5b823567ffffffffffffffff81111561151f575f80fd5b61152b8582860161141b565b90969095509350505050565b602080825282518282018190525f9190848201906040850190845b818110156115775783516001600160a01b031683529284019291840191600101611552565b50909695505050505050565b634e487b7160e01b5f52604160045260245ffd5b5f82601f8301126115a6575f80fd5b813567ffffffffffffffff808211156115c1576115c1611583565b604051601f8301601f19908116603f011681019082821181831017156115e9576115e9611583565b81604052838152866020858801011115611601575f80fd5b836020870160208301375f602085830101528094505050505092915050565b5f8060408385031215611631575f80fd5b823561163c816113e9565b9150602083013567ffffffffffffffff811115611657575f80fd5b61166385828601611597565b9150509250929050565b5f6020828403121561167d575f80fd5b813567ffffffffffffffff811115611693575f80fd5b61169f84828501611597565b949350505050565b600181811c908216806116bb57607f821691505b6020821081036116d957634e487b7160e01b5f52602260045260245ffd5b50919050565b60208082526029908201527f52657175657374207375626d69747465642062792061206e6f6e2d6d656d626560408201526872206164647265737360b81b606082015260800190565b634e487b7160e01b5f52603260045260245ffd5b634e487b7160e01b5f52603160045260245ffd5b5f815461175c816116a7565b8085526020600183811680156117795760018114611793576117be565b60ff1985168884015283151560051b8801830195506117be565b865f52825f205f5b858110156117b65781548a820186015290830190840161179b565b890184019650505b505050505092915050565b6001600160a01b03831681526040602082018190525f9061169f90830184611750565b5f8083546117f9816116a7565b60018281168015611811576001811461182657611852565b60ff1984168752821515830287019450611852565b875f526020805f205f5b858110156118495781548a820152908401908201611830565b50505082870194505b50929695505050505050565b601f8211156108c957805f5260205f20601f840160051c810160208510156118835750805b601f840160051c820191505b818110156118a2575f815560010161188f565b5050505050565b815167ffffffffffffffff8111156118c3576118c3611583565b6118d7816118d184546116a7565b8461185e565b602080601f83116001811461190a575f84156118f35750858301515b5f19600386901b1c1916600185901b178555611961565b5f85815260208120601f198616915b8281101561193857888601518255948401946001909101908401611919565b508582101561195557878501515f19600388901b60f8161c191681555b505060018460011b0185555b505050505050565b81835281816020850137505f828201602090810191909152601f909101601f19169091010190565b606081525f6119a4606083018789611969565b82810360208401526119b7818688611969565b9150508260408301529695505050505050565b5f602082840312156119da575f80fd5b81516113e2816113e9565b67ffffffffffffffff8311156119fd576119fd611583565b611a1183611a0b83546116a7565b8361185e565b5f601f841160018114611a42575f8515611a2b5750838201355b5f19600387901b1c1916600186901b1783556118a2565b5f83815260208120601f198716915b82811015611a715786850135825560209485019460019092019101611a51565b5086821015611a8d575f1960f88860031b161c19848701351681555b505060018560011b0183555050505050565b5f8251611ab0818460208701611383565b9190910192915050565b604081525f611acc6040830185611750565b8281036020840152611ade81856113a5565b95945050505050565b6001600160a01b03831681526040602082018190525f9061169f908301846113a5565b5f82611b2457634e487b7160e01b5f52601260045260245ffd5b500490565b60208082526024908201527f496e73756666696369656e7420616d6f756e7420666f722064697374726962756040820152633a34b7b760e11b606082015260800190565b8281528115156020820152606060408201525f61169f60608301600381526208aa8960eb1b602082015260400190565b5f60018201611bba57634e487b7160e01b5f52601160045260245ffd5b5060010190565b828152816020820152606060408201525f61169f60608301600381526208aa8960eb1b602082015260400190565b5f60208284031215611bff575f80fd5b5051919050565b5f60208284031215611c16575f80fd5b815180151581146113e2575f80fd5b8281528115156020820152606060408201525f61169f606083016005815264045524332360dc1b602082015260400190565b828152816020820152606060408201525f61169f606083016005815264045524332360dc1b60208201526040019056fea2646970667358221220716d3aaeb2899633878b6e0b638dc3958f9f6c46b73ccee6ff56530c6494673a64736f6c63430008170033","linkReferences":{}},"methodIdentifiers":{"addMember(address,string)":"c127c247","addParent(address)":"acf36e53","changeName(address,string)":"45ca25ed","changeOwner(address)":"a6f9dae1","creator()":"02d05d3f","flavor()":"f59e4f65","getSize()":"de8fa431","isMember(address)":"a230c524","listMembers()":"b6afd2ca","listParents()":"3113a2ae","manifest()":"f5baf0d7","name()":"06fdde03","newHolon(string,string,uint256)":"0babba86","removeMember(address)":"0b1ca49a","reward(address,uint256)":"21670f22","setManifest(string)":"29b84d09","toAddress(string)":"7e4115ba","toName(address)":"81bc3f8c","version()":"54fd4d50"},"id":30}