{"abi":[{"type":"constructor","inputs":[{"name":"_creator","type":"address","internalType":"address"},{"name":"_name","type":"string","internalType":"string"}],"stateMutability":"nonpayable"},{"type":"fallback","stateMutability":"payable"},{"type":"receive","stateMutability":"payable"},{"type":"function","name":"addMember","inputs":[{"name":"_userId","type":"string","internalType":"string"}],"outputs":[],"stateMutability":"nonpayable"},{"type":"function","name":"addMember","inputs":[{"name":"_memberaddress","type":"address","internalType":"address"},{"name":"_membername","type":"string","internalType":"string"}],"outputs":[],"stateMutability":"nonpayable"},{"type":"function","name":"addMembers","inputs":[{"name":"_userIds","type":"string[]","internalType":"string[]"}],"outputs":[],"stateMutability":"nonpayable"},{"type":"function","name":"addParent","inputs":[{"name":"_parentaddress","type":"address","internalType":"address"}],"outputs":[],"stateMutability":"nonpayable"},{"type":"function","name":"appreciation","inputs":[{"name":"","type":"string","internalType":"string"}],"outputs":[{"name":"","type":"uint256","internalType":"uint256"}],"stateMutability":"view"},{"type":"function","name":"changeName","inputs":[{"name":"_address","type":"address","internalType":"address"},{"name":"_name","type":"string","internalType":"string"}],"outputs":[],"stateMutability":"nonpayable"},{"type":"function","name":"changeOwner","inputs":[{"name":"_address","type":"address","internalType":"address"}],"outputs":[],"stateMutability":"nonpayable"},{"type":"function","name":"claim","inputs":[{"name":"_userId","type":"string","internalType":"string"},{"name":"_beneficiary","type":"address","internalType":"address"}],"outputs":[],"stateMutability":"nonpayable"},{"type":"function","name":"creator","inputs":[],"outputs":[{"name":"","type":"address","internalType":"address"}],"stateMutability":"view"},{"type":"function","name":"depositEtherForUser","inputs":[{"name":"_userId","type":"string","internalType":"string"},{"name":"amount","type":"uint256","internalType":"uint256"}],"outputs":[],"stateMutability":"payable"},{"type":"function","name":"depositTokenForUser","inputs":[{"name":"_userId","type":"string","internalType":"string"},{"name":"_tokenAddress","type":"address","internalType":"address"},{"name":"_amount","type":"uint256","internalType":"uint256"}],"outputs":[],"stateMutability":"nonpayable"},{"type":"function","name":"etherBalance","inputs":[{"name":"","type":"string","internalType":"string"}],"outputs":[{"name":"","type":"uint256","internalType":"uint256"}],"stateMutability":"view"},{"type":"function","name":"flavor","inputs":[],"outputs":[{"name":"","type":"string","internalType":"string"}],"stateMutability":"view"},{"type":"function","name":"getSize","inputs":[],"outputs":[{"name":"","type":"uint256","internalType":"uint256"}],"stateMutability":"view"},{"type":"function","name":"getTokensOf","inputs":[{"name":"_userId","type":"string","internalType":"string"}],"outputs":[{"name":"","type":"address[]","internalType":"address[]"}],"stateMutability":"view"},{"type":"function","name":"hasClaimed","inputs":[{"name":"","type":"string","internalType":"string"}],"outputs":[{"name":"","type":"bool","internalType":"bool"}],"stateMutability":"view"},{"type":"function","name":"isManagedMember","inputs":[{"name":"","type":"string","internalType":"string"}],"outputs":[{"name":"","type":"bool","internalType":"bool"}],"stateMutability":"view"},{"type":"function","name":"isMember","inputs":[{"name":"","type":"address","internalType":"address"}],"outputs":[{"name":"","type":"bool","internalType":"bool"}],"stateMutability":"view"},{"type":"function","name":"listMembers","inputs":[],"outputs":[{"name":"","type":"address[]","internalType":"address payable[]"}],"stateMutability":"view"},{"type":"function","name":"listParents","inputs":[],"outputs":[{"name":"","type":"address[]","internalType":"address[]"}],"stateMutability":"view"},{"type":"function","name":"manifest","inputs":[],"outputs":[{"name":"","type":"string","internalType":"string"}],"stateMutability":"view"},{"type":"function","name":"name","inputs":[],"outputs":[{"name":"","type":"string","internalType":"string"}],"stateMutability":"view"},{"type":"function","name":"newHolon","inputs":[{"name":"_flavor","type":"string","internalType":"string"},{"name":"_name","type":"string","internalType":"string"},{"name":"_parameter","type":"uint256","internalType":"uint256"}],"outputs":[{"name":"","type":"address","internalType":"address"}],"stateMutability":"nonpayable"},{"type":"function","name":"removeMember","inputs":[{"name":"_memberaddress","type":"address","internalType":"address"}],"outputs":[],"stateMutability":"nonpayable"},{"type":"function","name":"reward","inputs":[{"name":"_tokenaddress","type":"address","internalType":"address"},{"name":"_tokenamount","type":"uint256","internalType":"uint256"}],"outputs":[],"stateMutability":"payable"},{"type":"function","name":"setAppreciation","inputs":[{"name":"_userIds","type":"string[]","internalType":"string[]"},{"name":"_appreciationAmounts","type":"uint256[]","internalType":"uint256[]"}],"outputs":[],"stateMutability":"nonpayable"},{"type":"function","name":"setManifest","inputs":[{"name":"_IPFSHash","type":"string","internalType":"string"}],"outputs":[],"stateMutability":"nonpayable"},{"type":"function","name":"setUserAppreciation","inputs":[{"name":"_userId","type":"string","internalType":"string"},{"name":"_appreciationAmount","type":"uint256","internalType":"uint256"}],"outputs":[],"stateMutability":"nonpayable"},{"type":"function","name":"toAddress","inputs":[{"name":"","type":"string","internalType":"string"}],"outputs":[{"name":"","type":"address","internalType":"address"}],"stateMutability":"view"},{"type":"function","name":"toName","inputs":[{"name":"","type":"address","internalType":"address"}],"outputs":[{"name":"","type":"string","internalType":"string"}],"stateMutability":"view"},{"type":"function","name":"tokenBalance","inputs":[{"name":"","type":"string","internalType":"string"},{"name":"","type":"address","internalType":"address"}],"outputs":[{"name":"","type":"uint256","internalType":"uint256"}],"stateMutability":"view"},{"type":"function","name":"tokensOf","inputs":[{"name":"","type":"string","internalType":"string"},{"name":"","type":"uint256","internalType":"uint256"}],"outputs":[{"name":"","type":"address","internalType":"address"}],"stateMutability":"view"},{"type":"function","name":"totalDeposited","inputs":[{"name":"","type":"address","internalType":"address"}],"outputs":[{"name":"","type":"uint256","internalType":"uint256"}],"stateMutability":"view"},{"type":"function","name":"totalappreciation","inputs":[],"outputs":[{"name":"","type":"uint256","internalType":"uint256"}],"stateMutability":"view"},{"type":"function","name":"userIdToAddress","inputs":[{"name":"","type":"string","internalType":"string"}],"outputs":[{"name":"","type":"address","internalType":"address"}],"stateMutability":"view"},{"type":"function","name":"userIds","inputs":[{"name":"","type":"uint256","internalType":"uint256"}],"outputs":[{"name":"","type":"string","internalType":"string"}],"stateMutability":"view"},{"type":"function","name":"version","inputs":[],"outputs":[{"name":"","type":"string","internalType":"string"}],"stateMutability":"view"},{"type":"event","name":"AddedMember","inputs":[{"name":"member","type":"address","indexed":false,"internalType":"address"},{"name":"name","type":"string","indexed":false,"internalType":"string"}],"anonymous":false},{"type":"event","name":"ChangedName","inputs":[{"name":"namefrom","type":"string","indexed":false,"internalType":"string"},{"name":"nameto","type":"string","indexed":false,"internalType":"string"}],"anonymous":false},{"type":"event","name":"HolonRewarded","inputs":[{"name":"holon","type":"address","indexed":false,"internalType":"address"},{"name":"token","type":"string","indexed":false,"internalType":"string"},{"name":"amount","type":"uint256","indexed":false,"internalType":"uint256"}],"anonymous":false},{"type":"event","name":"MemberRewarded","inputs":[{"name":"from","type":"address","indexed":true,"internalType":"address"},{"name":"to","type":"address","indexed":true,"internalType":"address"},{"name":"amount","type":"uint256","indexed":false,"internalType":"uint256"},{"name":"isContract","type":"bool","indexed":false,"internalType":"bool"},{"name":"rewardType","type":"string","indexed":false,"internalType":"string"}],"anonymous":false},{"type":"event","name":"RemovedMember","inputs":[{"name":"member","type":"address","indexed":false,"internalType":"address"},{"name":"name","type":"string","indexed":false,"internalType":"string"}],"anonymous":false},{"type":"event","name":"RewardDistributed","inputs":[{"name":"contractAddress","type":"address","indexed":true,"internalType":"address"},{"name":"amount","type":"uint256","indexed":false,"internalType":"uint256"},{"name":"totalMembers","type":"uint256","indexed":false,"internalType":"uint256"},{"name":"rewardType","type":"string","indexed":false,"internalType":"string"}],"anonymous":false},{"type":"event","name":"RewardFailed","inputs":[{"name":"member","type":"address","indexed":true,"internalType":"address"},{"name":"token","type":"address","indexed":false,"internalType":"address"},{"name":"amount","type":"uint256","indexed":false,"internalType":"uint256"}],"anonymous":false}],"bytecode":{"object":"0x608060405234801562000010575f80fd5b506040516200328638038062003286833981016040819052620000339162000093565b600280546001600160a01b0319163217905560076200005382826200020b565b5050600a80546001600160a01b0319166001600160a01b03929092169190911790555f601355620002d7565b634e487b7160e01b5f52604160045260245ffd5b5f8060408385031215620000a5575f80fd5b82516001600160a01b0381168114620000bc575f80fd5b602084810151919350906001600160401b0380821115620000db575f80fd5b818601915086601f830112620000ef575f80fd5b8151818111156200010457620001046200007f565b604051601f8201601f19908116603f011681019083821181831017156200012f576200012f6200007f565b81604052828152898684870101111562000147575f80fd5b5f93505b828410156200016a57848401860151818501870152928501926200014b565b5f8684830101528096505050505050509250929050565b600181811c908216806200019657607f821691505b602082108103620001b557634e487b7160e01b5f52602260045260245ffd5b50919050565b601f8211156200020657805f5260205f20601f840160051c81016020851015620001e25750805b601f840160051c820191505b8181101562000203575f8155600101620001ee565b50505b505050565b81516001600160401b038111156200022757620002276200007f565b6200023f8162000238845462000181565b84620001bb565b602080601f83116001811462000275575f84156200025d5750858301515b5f19600386901b1c1916600185901b178555620002cf565b5f85815260208120601f198616915b82811015620002a55788860151825594840194600190910190840162000284565b5085821015620002c357878501515f19600388901b60f8161c191681555b505060018460011b0185555b505050505050565b612fa180620002e55f395ff3fe60806040526004361061021d575f3560e01c806378bef78b11610122578063b766f86f116100aa578063d7def8e71161006e578063d7def8e714610739578063de8fa43114610773578063f155966314610787578063f59e4f65146107a6578063f5baf0d7146107ba5761022e565b8063b766f86f14610660578063c127c24714610675578063c21be6ae14610694578063ca224313146106d4578063cc1849481461071a5761022e565b8063918f9687116100f1578063918f968714610576578063a230c52414610595578063a6f9dae1146105c3578063acf36e53146105e2578063b6afd2ca1461064c5761022e565b806378bef78b146104e55780637e4115ba146104f8578063804d74701461053857806381bc3f8c146105575761022e565b80633113a2ae116101a55780634635fd68116101745780634635fd6814610431578063530554811461045057806354fd4d501461047b57806357a325341461048f57806360a1da83146104c65761022e565b80633113a2ae1461039557806332a1e164146103a9578063363454ee146103c857806345ca25ed146104125761022e565b80630babba86116101ec5780630babba86146102f957806321670f22146103185780632615c3c71461032b57806328c317d71461034a57806329b84d09146103765761022e565b806302d05d3f1461023857806305f182ae1461027457806306fdde03146102b95780630b1ca49a146102da5761022e565b3661022e5761022c5f346107ce565b005b61022c5f346107ce565b348015610243575f80fd5b50600a54610257906001600160a01b031681565b6040516001600160a01b0390911681526020015b60405180910390f35b34801561027f575f80fd5b506102ab61028e366004612483565b805160208183018101805160148252928201919093012091525481565b60405190815260200161026b565b3480156102c4575f80fd5b506102cd610f09565b60405161026b9190612509565b3480156102e5575f80fd5b5061022c6102f4366004612539565b610f95565b348015610304575f80fd5b50610257610313366004612598565b611174565b61022c610326366004612605565b6107ce565b348015610336575f80fd5b5061022c61034536600461262f565b6111f9565b348015610355575f80fd5b50610369610364366004612483565b6112f9565b60405161026b9190612684565b348015610381575f80fd5b5061022c6103903660046126d0565b611371565b3480156103a0575f80fd5b506103696113dd565b3480156103b4575f80fd5b5061022c6103c336600461270e565b61143d565b3480156103d3575f80fd5b506104026103e2366004612483565b8051602081830181018051600d8252928201919093012091525460ff1681565b604051901515815260200161026b565b34801561041d575f80fd5b5061022c61042c36600461274f565b6114a4565b34801561043c575f80fd5b506102cd61044b36600461279b565b6115e0565b34801561045b575f80fd5b506102ab61046a366004612539565b60126020525f908152604090205481565b348015610486575f80fd5b506102cd611607565b34801561049a575f80fd5b506102ab6104a9366004612483565b8051602081830181018051600f8252928201919093012091525481565b3480156104d1575f80fd5b5061022c6104e03660046127b2565b611614565b61022c6104f336600461270e565b611747565b348015610503575f80fd5b50610257610512366004612483565b80516020818301810180516005825292820191909301209152546001600160a01b031681565b348015610543575f80fd5b5061022c6105523660046128ac565b611774565b348015610562575f80fd5b506102cd610571366004612539565b61189c565b348015610581575f80fd5b5061022c610590366004612483565b6118b4565b3480156105a0575f80fd5b506104026105af366004612539565b60046020525f908152604090205460ff1681565b3480156105ce575f80fd5b5061022c6105dd366004612539565b6119a6565b3480156105ed575f80fd5b5061022c6105fc366004612539565b6001805480820182555f919091527fb10e2d527612073b26eecdfd717e6a320cf44b4afac2b0732d9fcbe2b7fa0cf60180546001600160a01b0319166001600160a01b0392909216919091179055565b348015610657575f80fd5b50610369611a22565b34801561066b575f80fd5b506102ab60135481565b348015610680575f80fd5b5061022c61068f36600461274f565b611a7f565b34801561069f575f80fd5b506102576106ae366004612483565b8051602081830181018051600c825292820191909301209152546001600160a01b031681565b3480156106df575f80fd5b506102ab6106ee3660046127b2565b81516020818401810180516010825292820194820194909420919093529091525f908152604090205481565b348015610725575f80fd5b5061025761073436600461270e565b611dfa565b348015610744575f80fd5b50610402610753366004612483565b8051602081830181018051600e8252928201919093012091525460ff1681565b34801561077e575f80fd5b50600b546102ab565b348015610792575f80fd5b5061022c6107a13660046128dd565b611e3f565b3480156107b1575f80fd5b506102cd611f51565b3480156107c5575f80fd5b506102cd611f5e565b5f805f341180156107e657506001600160a01b038416155b156107f757349250600191506108d8565b506001600160a01b0383165f81815260126020526040908190205490516370a0823160e01b815230600482015285928592916370a0823190602401602060405180830381865afa15801561084d573d5f803e3d5ffd5b505050506040513d601f19601f820116820180604052508101906108719190612991565b61087b91906129bc565b10156108d85760405162461bcd60e51b815260206004820152602160248201527f4e6f7420656e6f75676820746f6b656e7320696e2074686520636f6e747261636044820152601d60fa1b60648201526084015b60405180910390fd5b5f805b600b54811015610e7c576013541561094557601354856014600b8481548110610906576109066129d5565b905f5260205f200160405161091b9190612a21565b9081526020016040518091039020546109349190612a93565b61093e9190612aaa565b9150610955565b600b546109529086612aaa565b91505b8115610e74575f600c600b8381548110610971576109716129d5565b905f5260205f20016040516109869190612a21565b908152604051908190036020019020546001600160a01b03169050803b15158515610bab57600d600b84815481106109c0576109c06129d5565b905f5260205f20016040516109d59190612a21565b9081526040519081900360200190205460ff1615610ae4575f826001600160a01b0316856040515f6040518083038185875af1925050503d805f8114610a36576040519150601f19603f3d011682016040523d82523d5f602084013e610a3b565b606091505b5050905080610a7e5760405162461bcd60e51b815260206004820152600f60248201526e151c985b9cd9995c8819985a5b1959608a1b60448201526064016108cf565b826001600160a01b0316306001600160a01b03165f80516020612f4c8339815191528785604051610ad6929190918252151560208201526060604082018190526003908201526208aa8960eb1b608082015260a00190565b60405180910390a350610e71565b306001600160a01b03166378bef78b600b8581548110610b0657610b066129d5565b905f5260205f2001866040518363ffffffff1660e01b8152600401610b2c929190612b42565b5f604051808303815f87803b158015610b43575f80fd5b505af1158015610b55573d5f803e3d5ffd5b50506040805187815284151560208201526060818301819052600a90820152690a6a89ea48a88be8aa8960b31b608082015290515f93503092505f80516020612f4c8339815191529181900360a00190a3610e71565b600d600b8481548110610bc057610bc06129d5565b905f5260205f2001604051610bd59190612a21565b9081526040519081900360200190205460ff1615610daa5760405163a9059cbb60e01b81526001600160a01b0383811660048301526024820186905286169063a9059cbb906044016020604051808303815f875af1158015610c39573d5f803e3d5ffd5b505050506040513d601f19601f82011682018060405250810190610c5d9190612b63565b506040516001600160a01b038981166024830152604482018690525f919084169060640160408051601f198184030181529181526020820180516001600160e01b03166310b3879160e11b17905251610cb69190612b82565b5f604051808303815f865af19150503d805f8114610cef576040519150601f19603f3d011682016040523d82523d5f602084013e610cf4565b606091505b5050905080610d505760405162461bcd60e51b815260206004820152602260248201527f556e61626c6520746f2063616c6c20746865207265776172642066756e63746960448201526137b760f11b60648201526084016108cf565b826001600160a01b0316306001600160a01b03165f80516020612f4c8339815191528785604051610ad69291909182521515602082015260606040820181905260059082015264045524332360dc1b608082015260a00190565b306001600160a01b0316632615c3c7600b8581548110610dcc57610dcc6129d5565b905f5260205f20018a876040518463ffffffff1660e01b8152600401610df493929190612b9d565b5f604051808303815f87803b158015610e0b575f80fd5b505af1158015610e1d573d5f803e3d5ffd5b50506040805187815284151560208201526060818301819052600c908201526b053544f5245445f45524332360a41b608082015290515f93503092505f80516020612f4c8339815191529181900360a00190a35b50505b6001016108db565b50600b5430907fd83308e9158842b2115ec5e6f6395db42fff24e4b5506ef42fe33854fafad65590869086610ece5760405180604001604052806005815260200164045524332360dc1b815250610eeb565b6040518060400160405280600381526020016208aa8960eb1b8152505b604051610efa93929190612bca565b60405180910390a25050505050565b60078054610f16906129e9565b80601f0160208091040260200160405190810160405280929190818152602001828054610f42906129e9565b8015610f8d5780601f10610f6457610100808354040283529160200191610f8d565b820191905f5260205f20905b815481529060010190602001808311610f7057829003601f168201915b505050505081565b6002546001600160a01b03163314610fbf5760405162461bcd60e51b81526004016108cf90612bf1565b5f5b5f5481101561106b57816001600160a01b03165f8281548110610fe657610fe66129d5565b5f918252602090912001546001600160a01b031603611063575f805461100a6129d5565b5f91825260208220015481546001600160a01b03909116919083908110611033576110336129d5565b905f5260205f20015f6101000a8154816001600160a01b0302191690836001600160a01b0316021790555061106b565b600101610fc1565b505f80548061107c5761107c612c3a565b5f828152602080822083015f1990810180546001600160a01b03191690559092019092556001600160a01b0383168252600481526040808320805460ff1916905560069091529081902090517f982d6fac85d22cbbe833f9fe4278a909ca0f3b24ecc8b1f10fe63736e3c72313916110f691849190612c4e565b60405180910390a16001600160a01b0381165f90815260066020526040808220905160059161112491612a21565b908152604080516020928190038301812080546001600160a01b0319166001600160a01b0395861617905582810182525f80825293851684526006909252909120906111709082612cbc565b5050565b600a546040516305d5dd4360e11b81525f916001600160a01b0316908190630babba86906111ae908a908a908a908a908a90600401612da3565b6020604051808303815f875af11580156111ca573d5f803e3d5ffd5b505050506040513d601f19601f820116820180604052508101906111ee9190612ddc565b979650505050505050565b5f8290505f60108560405161120e9190612b82565b9081526040805191829003602090810183206001600160a01b0388165f9081529152205491508390601090611244908890612b82565b90815260200160405180910390205f866001600160a01b03166001600160a01b031681526020019081526020015f205f8282546112819190612df7565b9091555050604051601190611297908790612b82565b908152604080516020928190038301902080546001810182555f9182528382200180546001600160a01b0319166001600160a01b03891690811790915581526012909252812080548592906112ed908490612df7565b90915550505050505050565b606060118260405161130b9190612b82565b908152604080519182900360209081018320805480830285018301909352828452919083018282801561136557602002820191905f5260205f20905b81546001600160a01b03168152600190910190602001808311611347575b50505050509050919050565b6002546001600160a01b031633146113cb5760405162461bcd60e51b815260206004820152601f60248201527f4f6e6c79206f776e65722063616e2073657420746865206d616e69666573740060448201526064016108cf565b60036113d8828483612e0a565b505050565b6060600180548060200260200160405190810160405280929190818152602001828054801561143357602002820191905f5260205f20905b81546001600160a01b03168152600190910190602001808311611415575b5050505050905090565b600a546001600160a01b031633146114675760405162461bcd60e51b81526004016108cf90612ec3565b806014836040516114789190612b82565b9081526020016040518091039020819055508060135f82825461149b9190612df7565b90915550505050565b6001600160a01b0382163314806114c557506002546001600160a01b031633145b806114d857506001600160a01b03821632145b61153f5760405162461bcd60e51b815260206004820152603260248201527f4e616d65206368616e67652072657175657374206e6f742073656e742066726f604482015271369036b2b6b132b9103737b91037bbb732b960711b60648201526084016108cf565b816005826040516115509190612b82565b908152604080516020928190038301812080546001600160a01b0319166001600160a01b039586161790559285165f908152600690925290207ffdcc9059d3426f73949b49e5d977553aa298184439da800d66f48959d9cc76b0916115b791908490612f04565b60405180910390a16001600160a01b0382165f9081526006602052604090206113d88282612cbc565b600b81815481106115ef575f80fd5b905f5260205f20015f915090508054610f16906129e9565b60088054610f16906129e9565b600d826040516116249190612b82565b9081526040519081900360200190205460ff16156116845760405162461bcd60e51b815260206004820152601860248201527f557365722068617320616c726561647920636c61696d6564000000000000000060448201526064016108cf565b5f6001600160a01b0316600c8360405161169e9190612b82565b908152604051908190036020019020546001600160a01b0316036116fd5780600c836040516116cd9190612b82565b90815260405190819003602001902080546001600160a01b03929092166001600160a01b03199092169190911790555b6117078282611f6b565b611711828261211a565b6001600d836040516117239190612b82565b908152604051908190036020019020805491151560ff199092169190911790555050565b80600f836040516117589190612b82565b90815260200160405180910390205f82825461149b9190612df7565b600a546001600160a01b031633146117ce5760405162461bcd60e51b815260206004820152601c60248201527f4f6e6c792063726561746f722063616e20616464206d656d626572730000000060448201526064016108cf565b5f5b8151811015611170575f8282815181106117ec576117ec6129d5565b60200260200101519050600e816040516118069190612b82565b9081526040519081900360200190205460ff16156118245750611894565b6001600e826040516118369190612b82565b908152604051908190036020019020805491151560ff19909216919091179055600b80546001810182555f919091527f0175b7a638427703f0dbe7bb9bbf987a2551717b34e79f33b5b1008d1fa01db9016118918282612cbc565b50505b6001016117d0565b60066020525f908152604090208054610f16906129e9565b600a546001600160a01b0316331461190e5760405162461bcd60e51b815260206004820152601c60248201527f4f6e6c792063726561746f722063616e20616464206d656d626572730000000060448201526064016108cf565b600e8160405161191e9190612b82565b9081526040519081900360200190205460ff16156119395750565b6001600e8260405161194b9190612b82565b908152604051908190036020019020805491151560ff19909216919091179055600b80546001810182555f919091527f0175b7a638427703f0dbe7bb9bbf987a2551717b34e79f33b5b1008d1fa01db9016111708282612cbc565b6002546001600160a01b03163314611a005760405162461bcd60e51b815260206004820152601f60248201527f4f6e6c79206f776e65722063616e206368616e676520746865206f776e65720060448201526064016108cf565b600280546001600160a01b0319166001600160a01b0392909216919091179055565b60605f80548060200260200160405190810160405280929190818152602001828054801561143357602002820191905f5260205f209081546001600160a01b03168152600190910190602001808311611415575050505050905090565b335f9081526004602052604090205460ff16151560011480611aab57506002546001600160a01b031633145b611ac75760405162461bcd60e51b81526004016108cf90612bf1565b6001600160a01b0382165f9081526004602052604090205460ff1615611b265760405162461bcd60e51b815260206004820152601460248201527313595b58995c88185b1c9958591e48185919195960621b60448201526064016108cf565b5f6001600160a01b0316600582604051611b409190612b82565b908152604051908190036020019020546001600160a01b031614611b9e5760405162461bcd60e51b81526020600482015260156024820152742730b6b29034b99030b63932b0b23c903a30b5b2b760591b60448201526064016108cf565b5f80546001810182557f290decd9548b62a8d60345a988386fc84ba6bc95484008f6362f93160ef3e5630180546001600160a01b0319166001600160a01b0385169081179091558152600660205260409020611bfa8282612cbc565b5081600582604051611c0c9190612b82565b908152604080516020928190038301812080546001600160a01b0319166001600160a01b039586161790559285165f8181526004909352908220805460ff1916600117905530602484015290916060919060440160408051601f198184030181529181526020820180516001600160e01b031663acf36e5360e01b17905251611c959190612b82565b5f60405180830381855afa9150503d805f8114611ccd576040519150601f19603f3d011682016040523d82523d5f602084013e611cd2565b606091505b5090925090508115611dbb576040513060248201526001600160a01b0385169060440160408051601f198184030181529181526020820180516001600160e01b031663acf36e5360e01b17905251611d2a9190612b82565b5f604051808303815f865af19150503d805f8114611d63576040519150601f19603f3d011682016040523d82523d5f602084013e611d68565b606091505b50508092505081611dbb5760405162461bcd60e51b815260206004820152601760248201527f4661696c656420746f2063726561746520706172656e7400000000000000000060448201526064016108cf565b7f7c803c00251fe8138e27cfa8286be8d98625e5f6476ca6ca594f682362b711208484604051611dec929190612f28565b60405180910390a150505050565b81516020818401810180516011825292820191850191909120919052805482908110611e24575f80fd5b5f918252602090912001546001600160a01b03169150829050565b600a546001600160a01b03163314611e695760405162461bcd60e51b81526004016108cf90612ec3565b8051825114611eba5760405162461bcd60e51b815260206004820152601a60248201527f4172726179206c656e6774687320646f206e6f74206d6174636800000000000060448201526064016108cf565b5f5b82518110156113d857818181518110611ed757611ed76129d5565b60200260200101516014848381518110611ef357611ef36129d5565b6020026020010151604051611f089190612b82565b908152602001604051809103902081905550818181518110611f2c57611f2c6129d5565b602002602001015160135f828254611f449190612df7565b9091555050600101611ebc565b60098054610f16906129e9565b60038054610f16906129e9565b600a546001600160a01b03163314611fd95760405162461bcd60e51b815260206004820152602b60248201527f4f6e6c792063726561746f722063616e207375626d697420616e20757365722060448201526a31b630b4b69022ba3432b960a91b60648201526084016108cf565b5f600f83604051611fea9190612b82565b9081526040519081900360200190205490506001600160a01b0382166120525760405162461bcd60e51b815260206004820152601b60248201527f496e76616c69642062656e65666963696172792061646472657373000000000060448201526064016108cf565b80156120f4575f80836001600160a01b0316836040515f6040518083038185875af1925050503d805f81146120a2576040519150601f19603f3d011682016040523d82523d5f602084013e6120a7565b606091505b5091509150816120f15760405162461bcd60e51b815260206004820152601560248201527410db185a5b5a5b99c8115d1a195c8819985a5b1959605a1b60448201526064016108cf565b50505b5f600f846040516121059190612b82565b90815260405190819003602001902055505050565b600a546001600160a01b031633146121895760405162461bcd60e51b815260206004820152602c60248201527f4f6e6c792063726561746f722063616e207375626d697420616e20757365722060448201526b636c61696d20546f6b656e7360a01b60648201526084016108cf565b5f60118360405161219a9190612b82565b90815260408051918290036020908101832080548083028501830190935282845291908301828280156121f457602002820191905f5260205f20905b81546001600160a01b031681526001909101906020018083116121d6575b505050505090505f5b60118460405161220d9190612b82565b908152604051908190036020019020548110156123ce575f828281518110612237576122376129d5565b602002602001015190505f6010866040516122529190612b82565b90815260200160405180910390205f858581518110612273576122736129d5565b60200260200101516001600160a01b03166001600160a01b031681526020019081526020015f205490505f8111156123c4575f6010876040516122b69190612b82565b90815260200160405180910390205f8686815181106122d7576122d76129d5565b60200260200101516001600160a01b03166001600160a01b031681526020019081526020015f20819055508060125f868681518110612318576123186129d5565b60200260200101516001600160a01b03166001600160a01b031681526020019081526020015f205f82825461234d91906129bc565b909155505060405163a9059cbb60e01b81526001600160a01b0386811660048301526024820183905283169063a9059cbb906044016020604051808303815f875af115801561239e573d5f803e3d5ffd5b505050506040513d601f19601f820116820180604052508101906123c29190612b63565b505b50506001016121fd565b50505050565b634e487b7160e01b5f52604160045260245ffd5b604051601f8201601f191681016001600160401b0381118282101715612410576124106123d4565b604052919050565b5f82601f830112612427575f80fd5b81356001600160401b03811115612440576124406123d4565b612453601f8201601f19166020016123e8565b818152846020838601011115612467575f80fd5b816020850160208301375f918101602001919091529392505050565b5f60208284031215612493575f80fd5b81356001600160401b038111156124a8575f80fd5b6124b484828501612418565b949350505050565b5f5b838110156124d65781810151838201526020016124be565b50505f910152565b5f81518084526124f58160208601602086016124bc565b601f01601f19169290920160200192915050565b602081525f61251b60208301846124de565b9392505050565b6001600160a01b0381168114612536575f80fd5b50565b5f60208284031215612549575f80fd5b813561251b81612522565b5f8083601f840112612564575f80fd5b5081356001600160401b0381111561257a575f80fd5b602083019150836020828501011115612591575f80fd5b9250929050565b5f805f805f606086880312156125ac575f80fd5b85356001600160401b03808211156125c2575f80fd5b6125ce89838a01612554565b909750955060208801359150808211156125e6575f80fd5b506125f388828901612554565b96999598509660400135949350505050565b5f8060408385031215612616575f80fd5b823561262181612522565b946020939093013593505050565b5f805f60608486031215612641575f80fd5b83356001600160401b03811115612656575f80fd5b61266286828701612418565b935050602084013561267381612522565b929592945050506040919091013590565b602080825282518282018190525f9190848201906040850190845b818110156126c45783516001600160a01b03168352928401929184019160010161269f565b50909695505050505050565b5f80602083850312156126e1575f80fd5b82356001600160401b038111156126f6575f80fd5b61270285828601612554565b90969095509350505050565b5f806040838503121561271f575f80fd5b82356001600160401b03811115612734575f80fd5b61274085828601612418565b95602094909401359450505050565b5f8060408385031215612760575f80fd5b823561276b81612522565b915060208301356001600160401b03811115612785575f80fd5b61279185828601612418565b9150509250929050565b5f602082840312156127ab575f80fd5b5035919050565b5f80604083850312156127c3575f80fd5b82356001600160401b038111156127d8575f80fd5b6127e485828601612418565b92505060208301356127f581612522565b809150509250929050565b5f6001600160401b03821115612818576128186123d4565b5060051b60200190565b5f82601f830112612831575f80fd5b8135602061284661284183612800565b6123e8565b82815260059290921b84018101918181019086841115612864575f80fd5b8286015b848110156128a15780356001600160401b03811115612885575f80fd5b6128938986838b0101612418565b845250918301918301612868565b509695505050505050565b5f602082840312156128bc575f80fd5b81356001600160401b038111156128d1575f80fd5b6124b484828501612822565b5f80604083850312156128ee575f80fd5b82356001600160401b0380821115612904575f80fd5b61291086838701612822565b9350602091508185013581811115612926575f80fd5b85019050601f81018613612938575f80fd5b803561294661284182612800565b81815260059190911b82018301908381019088831115612964575f80fd5b928401925b8284101561298257833582529284019290840190612969565b80955050505050509250929050565b5f602082840312156129a1575f80fd5b5051919050565b634e487b7160e01b5f52601160045260245ffd5b818103818111156129cf576129cf6129a8565b92915050565b634e487b7160e01b5f52603260045260245ffd5b600181811c908216806129fd57607f821691505b602082108103612a1b57634e487b7160e01b5f52602260045260245ffd5b50919050565b5f808354612a2e816129e9565b60018281168015612a465760018114612a5b57612a87565b60ff1984168752821515830287019450612a87565b875f526020805f205f5b85811015612a7e5781548a820152908401908201612a65565b50505082870194505b50929695505050505050565b80820281158282048414176129cf576129cf6129a8565b5f82612ac457634e487b7160e01b5f52601260045260245ffd5b500490565b5f8154612ad5816129e9565b808552602060018381168015612af25760018114612b0c57612b37565b60ff1985168884015283151560051b880183019550612b37565b865f52825f205f5b85811015612b2f5781548a8201860152908301908401612b14565b890184019650505b505050505092915050565b604081525f612b546040830185612ac9565b90508260208301529392505050565b5f60208284031215612b73575f80fd5b8151801515811461251b575f80fd5b5f8251612b938184602087016124bc565b9190910192915050565b606081525f612baf6060830186612ac9565b6001600160a01b039490941660208301525060400152919050565b838152826020820152606060408201525f612be860608301846124de565b95945050505050565b60208082526029908201527f52657175657374207375626d69747465642062792061206e6f6e2d6d656d626560408201526872206164647265737360b81b606082015260800190565b634e487b7160e01b5f52603160045260245ffd5b6001600160a01b03831681526040602082018190525f906124b490830184612ac9565b601f8211156113d857805f5260205f20601f840160051c81016020851015612c965750805b601f840160051c820191505b81811015612cb5575f8155600101612ca2565b5050505050565b81516001600160401b03811115612cd557612cd56123d4565b612ce981612ce384546129e9565b84612c71565b602080601f831160018114612d1c575f8415612d055750858301515b5f19600386901b1c1916600185901b178555612d73565b5f85815260208120601f198616915b82811015612d4a57888601518255948401946001909101908401612d2b565b5085821015612d6757878501515f19600388901b60f8161c191681555b505060018460011b0185555b505050505050565b81835281816020850137505f828201602090810191909152601f909101601f19169091010190565b606081525f612db6606083018789612d7b565b8281036020840152612dc9818688612d7b565b9150508260408301529695505050505050565b5f60208284031215612dec575f80fd5b815161251b81612522565b808201808211156129cf576129cf6129a8565b6001600160401b03831115612e2157612e216123d4565b612e3583612e2f83546129e9565b83612c71565b5f601f841160018114612e66575f8515612e4f5750838201355b5f19600387901b1c1916600186901b178355612cb5565b5f83815260208120601f198716915b82811015612e955786850135825560209485019460019092019101612e75565b5086821015612eb1575f1960f88860031b161c19848701351681555b505060018560011b0183555050505050565b60208082526021908201527f4f6e6c792063726561746f722063616e2073657420617070726563696174696f6040820152603760f91b606082015260800190565b604081525f612f166040830185612ac9565b8281036020840152612be881856124de565b6001600160a01b03831681526040602082018190525f906124b4908301846124de56fe7d6a6b7452c2fec7981096e354fb3311f3f3b800ff27def1017b22cbff275190a2646970667358221220759f508a8ac4a98fb102dd9b67d0edcbb066633741af4233b29478171624eeed64736f6c63430008170033","linkReferences":{}},"methodIdentifiers":{"addMember(address,string)":"c127c247","addMember(string)":"918f9687","addMembers(string[])":"804d7470","addParent(address)":"acf36e53","appreciation(string)":"05f182ae","changeName(address,string)":"45ca25ed","changeOwner(address)":"a6f9dae1","claim(string,address)":"60a1da83","creator()":"02d05d3f","depositEtherForUser(string,uint256)":"78bef78b","depositTokenForUser(string,address,uint256)":"2615c3c7","etherBalance(string)":"57a32534","flavor()":"f59e4f65","getSize()":"de8fa431","getTokensOf(string)":"28c317d7","hasClaimed(string)":"363454ee","isManagedMember(string)":"d7def8e7","isMember(address)":"a230c524","listMembers()":"b6afd2ca","listParents()":"3113a2ae","manifest()":"f5baf0d7","name()":"06fdde03","newHolon(string,string,uint256)":"0babba86","removeMember(address)":"0b1ca49a","reward(address,uint256)":"21670f22","setAppreciation(string[],uint256[])":"f1559663","setManifest(string)":"29b84d09","setUserAppreciation(string,uint256)":"32a1e164","toAddress(string)":"7e4115ba","toName(address)":"81bc3f8c","tokenBalance(string,address)":"ca224313","tokensOf(string,uint256)":"cc184948","totalDeposited(address)":"53055481","totalappreciation()":"b766f86f","userIdToAddress(string)":"c21be6ae","userIds(uint256)":"4635fd68","version()":"54fd4d50"},"id":35}