{
  "_format": "hh-sol-artifact-1",
  "contractName": "Membrane",
  "sourceName": "contracts/Membrane.sol",
  "abi": [
    {
      "inputs": [],
      "stateMutability": "nonpayable",
      "type": "constructor"
    },
    {
      "anonymous": false,
      "inputs": [
        {
          "indexed": false,
          "internalType": "address",
          "name": "member",
          "type": "address"
        },
        {
          "indexed": false,
          "internalType": "string",
          "name": "name",
          "type": "string"
        }
      ],
      "name": "AddedMember",
      "type": "event"
    },
    {
      "anonymous": false,
      "inputs": [
        {
          "indexed": false,
          "internalType": "string",
          "name": "namefrom",
          "type": "string"
        },
        {
          "indexed": false,
          "internalType": "string",
          "name": "nameto",
          "type": "string"
        }
      ],
      "name": "ChangedName",
      "type": "event"
    },
    {
      "anonymous": false,
      "inputs": [
        {
          "indexed": false,
          "internalType": "address",
          "name": "member",
          "type": "address"
        },
        {
          "indexed": false,
          "internalType": "string",
          "name": "name",
          "type": "string"
        }
      ],
      "name": "RemovedMember",
      "type": "event"
    },
    {
      "inputs": [
        {
          "internalType": "address",
          "name": "_memberaddress",
          "type": "address"
        },
        {
          "internalType": "string",
          "name": "_membername",
          "type": "string"
        }
      ],
      "name": "addMember",
      "outputs": [],
      "stateMutability": "nonpayable",
      "type": "function"
    },
    {
      "inputs": [
        {
          "internalType": "address",
          "name": "_parentaddress",
          "type": "address"
        }
      ],
      "name": "addParent",
      "outputs": [],
      "stateMutability": "nonpayable",
      "type": "function"
    },
    {
      "inputs": [
        {
          "internalType": "address",
          "name": "_address",
          "type": "address"
        },
        {
          "internalType": "string",
          "name": "_name",
          "type": "string"
        }
      ],
      "name": "changeName",
      "outputs": [],
      "stateMutability": "nonpayable",
      "type": "function"
    },
    {
      "inputs": [
        {
          "internalType": "address",
          "name": "_address",
          "type": "address"
        }
      ],
      "name": "changeOwner",
      "outputs": [],
      "stateMutability": "nonpayable",
      "type": "function"
    },
    {
      "inputs": [],
      "name": "getSize",
      "outputs": [
        {
          "internalType": "uint256",
          "name": "",
          "type": "uint256"
        }
      ],
      "stateMutability": "view",
      "type": "function"
    },
    {
      "inputs": [
        {
          "internalType": "address",
          "name": "",
          "type": "address"
        }
      ],
      "name": "isMember",
      "outputs": [
        {
          "internalType": "bool",
          "name": "",
          "type": "bool"
        }
      ],
      "stateMutability": "view",
      "type": "function"
    },
    {
      "inputs": [],
      "name": "listMembers",
      "outputs": [
        {
          "internalType": "address payable[]",
          "name": "",
          "type": "address[]"
        }
      ],
      "stateMutability": "view",
      "type": "function"
    },
    {
      "inputs": [],
      "name": "listParents",
      "outputs": [
        {
          "internalType": "address[]",
          "name": "",
          "type": "address[]"
        }
      ],
      "stateMutability": "view",
      "type": "function"
    },
    {
      "inputs": [],
      "name": "manifest",
      "outputs": [
        {
          "internalType": "string",
          "name": "",
          "type": "string"
        }
      ],
      "stateMutability": "view",
      "type": "function"
    },
    {
      "inputs": [
        {
          "internalType": "address",
          "name": "_memberaddress",
          "type": "address"
        }
      ],
      "name": "removeMember",
      "outputs": [],
      "stateMutability": "nonpayable",
      "type": "function"
    },
    {
      "inputs": [
        {
          "internalType": "string",
          "name": "_IPFSHash",
          "type": "string"
        }
      ],
      "name": "setManifest",
      "outputs": [],
      "stateMutability": "nonpayable",
      "type": "function"
    },
    {
      "inputs": [
        {
          "internalType": "string",
          "name": "",
          "type": "string"
        }
      ],
      "name": "toAddress",
      "outputs": [
        {
          "internalType": "address",
          "name": "",
          "type": "address"
        }
      ],
      "stateMutability": "view",
      "type": "function"
    },
    {
      "inputs": [
        {
          "internalType": "address",
          "name": "",
          "type": "address"
        }
      ],
      "name": "toName",
      "outputs": [
        {
          "internalType": "string",
          "name": "",
          "type": "string"
        }
      ],
      "stateMutability": "view",
      "type": "function"
    }
  ],
  "bytecode": "0x6080806040523461002857600280546001600160a01b03191632179055611272908161002e8239f35b600080fdfe6040608081526004908136101561001557600080fd5b600091823560e01c9081630b1ca49a14610cbb57816329b84d0914610ae65781633113a2ae14610a2b57816345ca25ed1461081a5781637e4115ba146107b157816381bc3f8c14610764578163a230c52414610727578163a6f9dae114610697578163acf36e53146105f3578163b6afd2ca1461052d578163c127c247146101b957508063de8fa4311461019d5763f5baf0d7146100b257600080fd5b34610199578160031936011261019957805190826003546100d28161101c565b808552916001918083169081156101715750600114610114575b5050506100fe82610110940383610f31565b519182916020835260208301906110ec565b0390f35b9450600385527fc2575a0e9e593c00f959f8c92f12db2869c3395a3b0502d05e2516446f71f85b5b828610610159575050506100fe82602061011095820101946100ec565b8054602087870181019190915290950194810161013c565b6101109750869350602092506100fe94915060ff191682840152151560051b820101946100ec565b5080fd5b5034610199578160031936011261019957602091549051908152f35b83915034610199576101ca36610fb6565b3384526020928084526001928360ff88882054161515148015610519575b6101f190611111565b6001600160a01b03818116808852838752888820549095919060ff166104df57885190855191888181890194610228818388610ff9565b8101600581520301902054166104a4578754600160401b8110156104915761027561025882858a94018c5561116f565b819391549060031b9160018060a01b03809116831b921b19161790565b9055858852600687528888209085519167ffffffffffffffff831161047e5790816102ab846102a58c955461101c565b836111d0565b8293601f811160011461041957806102e7958d9161040e575b50600019600383901b1c191690861b1790555b8a51809381928951928391610ff9565b81016005815203019020856001600160601b0360a01b8254161790558487528286528787209060ff198254161790558651868087830163acf36e5360e01b938482523060248201526024815261033c81610eff565b5190855afa61034961120c565b50610392575b50505061038c9085807f7c803c00251fe8138e27cfa8286be8d98625e5f6476ca6ca594f682362b7112096975195869586528501528301906110ec565b0390a180f35b86918291828a51898101928352306024820152602481526103b281610eff565b51925af16103be61120c565b50156103cb57808061034f565b855162461bcd60e51b8152908101849052601760248201527f4661696c656420746f2063726561746520706172656e740000000000000000006044820152606490fd5b90508901518e6102c4565b85908c8a96601f198316858352878320925b81811061046457506102e79850831161044b575b5050811b0190556102d7565b8b015160001960f88460031b161c191690558e8061043f565b9882015183558c988f988b9690940193928301920161042b565b634e487b7160e01b8a526041865260248afd5b634e487b7160e01b895260418552602489fd5b885162461bcd60e51b815280850188905260156024820152742730b6b29034b99030b63932b0b23c903a30b5b2b760591b6044820152606490fd5b885162461bcd60e51b8152808501889052601460248201527313595b58995c88185b1c9958591e48185919195960621b6044820152606490fd5b506002546001600160a01b031633146101e8565b8284346105f057806003193601126105f057908051918290805491828552602080950180938380527f290decd9548b62a8d60345a988386fc84ba6bc95484008f6362f93160ef3e56390845b8181106105d3575050508161058f910382610f31565b83519485948186019282875251809352850193925b8281106105b357505050500390f35b83516001600160a01b0316855286955093810193928101926001016105a4565b82546001600160a01b031684529288019260019283019201610579565b80fd5b8390346101995760203660031901126101995761060e610ee4565b9060015490600160401b82101561068457600182018060015582101561067157507fb10e2d527612073b26eecdfd717e6a320cf44b4afac2b0732d9fcbe2b7fa0cf60180546001600160a01b0319166001600160a01b0390921691909117905580f35b634e487b7160e01b845260329052602483fd5b634e487b7160e01b845260419052602483fd5b91905034610723576020366003190112610723576106b3610ee4565b600254926001600160a01b039283851633036106e057505016906001600160601b0360a01b161760025580f35b906020606492519162461bcd60e51b8352820152601f60248201527f4f6e6c79206f776e65722063616e206368616e676520746865206f776e6572006044820152fd5b8280fd5b9050346107235760203660031901126107235760209260ff918391906001600160a01b03610753610ee4565b168252855220541690519015158152f35b50503461019957602036600319011261019957610110916107aa91906100fe9082906001600160a01b03610796610ee4565b168152600660205220825193848092611056565b0383610f31565b8284346105f05760203660031901126105f05782359067ffffffffffffffff82116105f057506020926107e691369101610f6f565b826107f983519283815193849201610ff9565b6005908201908152819003830190205490516001600160a01b039091168152f35b8383346101995761082a36610fb6565b936001600160a01b03918216929091338414908115610a1d575b508015610a14575b156109b65780519283865160209581610869889383858d01610ff9565b81016005815203019020816001600160601b0360a01b825416179055808552600684527ffdcc9059d3426f73949b49e5d977553aa298184439da800d66f48959d9cc76b06108c78387206108d4855192839287845287840190611056565b828103898401528a6110ec565b0390a184526006835283209184519167ffffffffffffffff83116109a3575061090782610901855461101c565b856111d0565b80601f83116001146109415750839482939492610936575b50508160011b916000199060031b1c191617905580f35b01519050848061091f565b90601f198316958486528286209286905b88821061098b57505083600195969710610972575b505050811b01905580f35b015160001960f88460031b161c19169055848080610967565b80600185968294968601518155019501930190610952565b634e487b7160e01b855260419052602484fd5b906020608492519162461bcd60e51b8352820152603260248201527f4e616d65206368616e67652072657175657374206e6f742073656e742066726f604482015271369036b2b6b132b9103737b91037bbb732b960711b6064820152fd5b5032831461084c565b905060025416331486610844565b50503461019957816003193601126101995780516001805480835281855260208084019592939186907fb10e2d527612073b26eecdfd717e6a320cf44b4afac2b0732d9fcbe2b7fa0cf690855b818110610aca5750505082610a8e910383610f31565b8451948186019282875251809352850195925b828110610aae5785870386f35b83516001600160a01b0316875295810195928101928401610aa1565b82546001600160a01b0316845292840192918701918701610a78565b83915034610199576020928360031936011261072357813567ffffffffffffffff92838211610cb75736602383011215610cb75781810135938411610cb75760249236848685010111610cb3576002546001600160a01b03163303610c72575050610b5260035461101c565b601f8111610c1e575b508394601f8411600114610b9b5750938394839493610b8e575b5050508160011b916000199060031b1c19161760035580f35b0101359050838080610b75565b601f198416957fc2575a0e9e593c00f959f8c92f12db2869c3395a3b0502d05e2516446f71f85b939186905b888210610c04575050846001969710610be8575b50505050811b0160035580f35b60001960f88660031b161c199201013516905583808080610bdb565b806001849786839596890101358155019601920190610bc7565b610c62907fc2575a0e9e593c00f959f8c92f12db2869c3395a3b0502d05e2516446f71f85b601f860160051c810191888710610c68575b601f0160051c01906111b9565b85610b5b565b9091508190610c55565b5162461bcd60e51b8152908101869052601f818401527f4f6e6c79206f776e65722063616e2073657420746865206d616e6966657374006044820152606490fd5b8580fd5b8480fd5b8391503461019957602092836003193601126107235792610cda610ee4565b9060018060a01b0394610cf286600254163314611111565b85859316925b855480821015610ed857879085610d0e8461116f565b939054600394851b1c1614610d435750506000198114610d3057600101610cf8565b634e487b7160e01b865260118552602486fd5b88610d6792610d5b610258939b96989b99979961116f565b9054911b1c169261116f565b90555b84548015610ec5576000190190610d808261116f565b909182549160031b1b19169055845584845282528083209360ff1994858154169055600683527f982d6fac85d22cbbe833f9fe4278a909ca0f3b24ecc8b1f10fe63736e3c72313610de38386208451918291858352868884015286830190611056565b0390a1808452600683528184208251908596815491610e018361101c565b92600192838216918215610eae575050600114610e7b575b50505083818760056000989952030190206001600160601b0360a01b8154169055845260068252832090610e4d825461101c565b601f8111610e5c575b50505580f35b601f610e74928487528620910160051c8101906111b9565b8380610e56565b875285872091975086915b888310610e9d575050509485019483816000610e19565b805484840152918601918101610e86565b168552505050801515028101955083816000610e19565b634e487b7160e01b865260318352602486fd5b50509194929092610d6a565b600435906001600160a01b0382168203610efa57565b600080fd5b6060810190811067ffffffffffffffff821117610f1b57604052565b634e487b7160e01b600052604160045260246000fd5b90601f8019910116810190811067ffffffffffffffff821117610f1b57604052565b67ffffffffffffffff8111610f1b57601f01601f191660200190565b81601f82011215610efa57803590610f8682610f53565b92610f946040519485610f31565b82845260208383010111610efa57816000926020809301838601378301015290565b906040600319830112610efa576004356001600160a01b0381168103610efa57916024359067ffffffffffffffff8211610efa57610ff691600401610f6f565b90565b60005b83811061100c5750506000910152565b8181015183820152602001610ffc565b90600182811c9216801561104c575b602083101461103657565b634e487b7160e01b600052602260045260246000fd5b91607f169161102b565b90600092918054916110678361101c565b9182825260019384811690816000146110c95750600114611089575b50505050565b90919394506000526020928360002092846000945b8386106110b5575050505001019038808080611083565b80548587018301529401938590820161109e565b9294505050602093945060ff191683830152151560051b01019038808080611083565b9060209161110581518092818552858086019101610ff9565b601f01601f1916010190565b1561111857565b60405162461bcd60e51b815260206004820152602960248201527f52657175657374207375626d69747465642062792061206e6f6e2d6d656d626560448201526872206164647265737360b81b6064820152608490fd5b9060009182548110156111a5578280527f290decd9548b62a8d60345a988386fc84ba6bc95484008f6362f93160ef3e563019190565b634e487b7160e01b83526032600452602483fd5b8181106111c4575050565b600081556001016111b9565b9190601f81116111df57505050565b61120a926000526020600020906020601f840160051c83019310610c6857601f0160051c01906111b9565b565b3d15611237573d9061121d82610f53565b9161122b6040519384610f31565b82523d6000602084013e565b60609056fea26469706673582212203ee6dccef013dc20badeb0a06ad56386115d76f0ad96f8cc9a13961f5fd42a9564736f6c63430008140033",
  "linkReferences": {},
  "deployedLinkReferences": {}
}